{
	"data": {
		"bytecode": {
			"linkReferences": {},
			"object": "6080604052600a805460ff19169055662386f26fc10000600b556004600e553480156200002b57600080fd5b50604080518082018252600b81526a43727970746f506570657360a81b602080830191825283518085019094526002845261043560f41b908401528151919291620000799160009162000863565b5080516200008f90600190602084019062000863565b5050600780546001600160a01b031916331790555060005b60048110156200018a57600754620000c9906001600160a01b031682620001ea565b6040518060400160405280620000e5836200021060201b60201c565b8152602001620000f760088462000909565b620001049060016200092c565b905260008281526008602090815260409091208251805191926200012e9284929091019062000863565b5060209190910151600190910155600960006200014d60088462000909565b6200015a9060016200092c565b815260208082019290925260400160009081208054600181810183559183529290912090910182905501620000a7565b50600460065560158054336001600160a01b0319918216811790925560168054909116821790556040519081527f8ab6a1e4f6b3c93535331f79f89671804e32175732c3acb5067f1c667aee25049060200160405180910390a162000af3565b6200020c8282604051806020016040528060008152506200054660201b60201c565b5050565b606060006040518060e00160405280604051806040016040528060088152602001674c6f72645065706560c01b81525081526020016040518060400160405280600b81526020016a4d617269654c655065706560a81b8152508152602001604051806040016040528060048152602001635065706560e01b81525081526020016040518060400160405280600a81526020016950657065506f6c69636560b01b81525081526020016040518060400160405280600b81526020016a2832b832a9b7b63234b2b960a91b81525081526020016040518060400160405280600a81526020016914195c1955da5e985c9960b21b8152508152602001604051806040016040528060088152602001675472756d5065706560c01b8152508152509050600060405180610140016040528060405180604001604052806007815260200166416e78696f757360c81b81525081526020016040518060400160405280600b81526020016a115b9b1a59da1d195b995960aa1b81525081526020016040518060400160405280600681526020016547686f74696360d01b815250815260200160405180604001604052806005815260200164486170707960d81b81525081526020016040518060400160405280600381526020016213db1960ea1b8152508152602001604051806040016040528060048152602001630a4d2c6d60e31b81525081526020016040518060400160405280600381526020016214d85960ea1b8152508152602001604051806040016040528060068152602001655374726f6e6760d01b81525081526020016040518060400160405280600a8152602001695375676765737469766560b01b815250815260200160405180604001604052806005815260200164596f756e6760d81b815250815250905060006007620004ba866200058e60201b60201c565b620004c6919062000909565b90506000600a620004d7836200058e565b620004e3919062000909565b90508281600a8110620004fa57620004fa62000953565b602002015184836007811062000514576200051462000953565b60200201516040516020016200052c9291906200099c565b604051602081830303815290604052945050505050919050565b620005528383620005e9565b62000561600084848462000731565b620005895760405162461bcd60e51b81526004016200058090620009dc565b60405180910390fd5b505050565b600044423384604051602001620005cb9493929190938452602084019290925260601b6001600160601b0319166040830152605482015260740190565b60408051601f19818403018152919052805160209091012092915050565b6001600160a01b038216620006415760405162461bcd60e51b815260206004820181905260248201527f4552433732313a206d696e7420746f20746865207a65726f2061646472657373604482015260640162000580565b6000818152600260205260409020546001600160a01b031615620006a85760405162461bcd60e51b815260206004820152601c60248201527f4552433732313a20746f6b656e20616c7265616479206d696e74656400000000604482015260640162000580565b6001600160a01b0382166000908152600360205260408120805460019290620006d39084906200092c565b909155505060008181526002602052604080822080546001600160a01b0319166001600160a01b03861690811790915590518392907fddf252ad1be2c89b69c2b068fc378daa952ba7f163c4a11628f55a4df523b3ef908290a45050565b600062000752846001600160a01b03166200085460201b62001dd21760201c565b156200084857604051630a85bd0160e11b81526001600160a01b0385169063150b7a02906200078c90339089908890889060040162000a2e565b6020604051808303816000875af1925050508015620007ca575060408051601f3d908101601f19168201909252620007c79181019062000a84565b60015b6200082d573d808015620007fb576040519150601f19603f3d011682016040523d82523d6000602084013e62000800565b606091505b508051600003620008255760405162461bcd60e51b81526004016200058090620009dc565b805181602001fd5b6001600160e01b031916630a85bd0160e11b1490506200084c565b5060015b949350505050565b6001600160a01b03163b151590565b828054620008719062000ab7565b90600052602060002090601f016020900481019282620008955760008555620008e0565b82601f10620008b057805160ff1916838001178555620008e0565b82800160010185558215620008e0579182015b82811115620008e0578251825591602001919060010190620008c3565b50620008ee929150620008f2565b5090565b5b80821115620008ee5760008155600101620008f3565b6000826200092757634e487b7160e01b600052601260045260246000fd5b500690565b600082198211156200094e57634e487b7160e01b600052601160045260246000fd5b500190565b634e487b7160e01b600052603260045260246000fd5b60005b83811015620009865781810151838201526020016200096c565b8381111562000996576000848401525b50505050565b60008351620009b081846020880162000969565b600160fd1b9083019081528351620009d081600184016020880162000969565b01600101949350505050565b60208082526032908201527f4552433732313a207472616e7366657220746f206e6f6e20455243373231526560408201527131b2b4bb32b91034b6b83632b6b2b73a32b960711b606082015260800190565b600060018060a01b03808716835280861660208401525083604083015260806060830152825180608084015262000a6d8160a085016020870162000969565b601f01601f19169190910160a00195945050505050565b60006020828403121562000a9757600080fd5b81516001600160e01b03198116811462000ab057600080fd5b9392505050565b600181811c9082168062000acc57607f821691505b60208210810362000aed57634e487b7160e01b600052602260045260246000fd5b50919050565b6138078062000b036000396000f3fe6080604052600436106101675760003560e01c806275f5d51461016c57806301ffc9a71461018e57806306d5ee54146101c357806306fdde03146101d8578063081812fc146101fa578063095ea7b3146102275780630bc09cfe1461024757806312065fe01461025a57806323b872dd146102775780633a178d99146102975780633e0fb267146102b757806342842e0e146102d75780636352211e146102f7578063642f581814610317578063676c902f146103445780636fd098161461036657806370a082311461037b5780637dc379fa1461039b5780637e40be66146103c857806382f68dc4146103de57806384350e1d146103fe57806395d89b4114610413578063a0712d6814610428578063a22cb46514610448578063b88d4fde14610468578063bd85948c14610488578063c87b56dd1461049d578063cb4c2e9e146104bd578063e985e9c5146104dd578063edcefa60146104fd578063f6be71d11461051d575b600080fd5b34801561017857600080fd5b5061018c610187366004612eb5565b61053d565b005b34801561019a57600080fd5b506101ae6101a9366004612ee4565b6105a2565b60405190151581526020015b60405180910390f35b3480156101cf57600080fd5b506101ae6105f4565b3480156101e457600080fd5b506101ed610876565b6040516101ba9190612f59565b34801561020657600080fd5b5061021a610215366004612eb5565b610908565b6040516101ba9190612f6c565b34801561023357600080fd5b5061018c610242366004612f97565b610990565b6101ae61025536600461302f565b610aa0565b34801561026657600080fd5b50475b6040519081526020016101ba565b34801561028357600080fd5b5061018c61029236600461311b565b6110d6565b3480156102a357600080fd5b506101ae6102b2366004612eb5565b611107565b3480156102c357600080fd5b506101ed6102d2366004612eb5565b611187565b3480156102e357600080fd5b5061018c6102f236600461311b565b611286565b34801561030357600080fd5b5061021a610312366004612eb5565b6112a1565b34801561032357600080fd5b50610337610332366004612eb5565b611318565b6040516101ba9190613157565b34801561035057600080fd5b5061035961137a565b6040516101ba91906131be565b34801561037257600080fd5b5061018c611592565b34801561038757600080fd5b506102696103963660046131cc565b61176b565b3480156103a757600080fd5b506103bb6103b6366004612eb5565b6117f2565b6040516101ba91906131e7565b3480156103d457600080fd5b50610269600b5481565b3480156103ea57600080fd5b506102696103f9366004612eb5565b611887565b34801561040a57600080fd5b506103596118e8565b34801561041f57600080fd5b506101ed611923565b34801561043457600080fd5b506101ae610443366004612eb5565b611932565b34801561045457600080fd5b5061018c610463366004613212565b6119e4565b34801561047457600080fd5b5061018c61048336600461324e565b6119f3565b34801561049457600080fd5b506101ae611a2b565b3480156104a957600080fd5b506101ed6104b8366004612eb5565b611bbf565b3480156104c957600080fd5b506102696104d8366004612eb5565b611c97565b3480156104e957600080fd5b506101ae6104f836600461330d565b611cae565b34801561050957600080fd5b5061018c6105183660046131cc565b611cdc565b34801561052957600080fd5b5061018c610538366004612eb5565b611d76565b6015546001600160a01b031633146105705760405162461bcd60e51b815260040161056790613340565b60405180910390fd5b600c5415806105815750600a5460ff165b61059d5760405162461bcd60e51b815260040161056790613364565b600b55565b60006001600160e01b031982166380ac58cd60e01b14806105d357506001600160e01b03198216635b5e139f60e01b145b806105ee57506301ffc9a760e01b6001600160e01b03198316145b92915050565b6015546000906001600160a01b031633146106215760405162461bcd60e51b815260040161056790613340565b600c54158015906106415750600e54600d5461063d91906133b1565b4310155b80156106505750600a5460ff16155b61066c5760405162461bcd60e51b8152600401610567906133c9565b600f546000036106be5760405162461bcd60e51b815260206004820152601d60248201527f77696e6e696e67206e756d62657273206e6f7420647261776e207965740000006044820152606401610567565b60005b600c5460009081526019602052604090205481101561085a57600c5460009081526019602052604081208054839081106106fd576106fd6133f6565b60009182526020808320600790920290910154600c54835260199091526040822080546001600160a01b0390921693506107a99185908110610741576107416133f6565b6000918252602091829020604080518082018252600790930290910180546001600160a01b03168352815160c0810190925291928301906001830160068282826020028201915b81548152602001906001019080831161078857505050505081525050611de1565b90508015610850576107ba81611107565b156107cf576107c98282611f0f565b50610806565b6000805160206137b283398151915282826006546040516107f29392919061340c565b60405180910390a16108048282612086565b505b7f7d6e17dc1b3ace82369b27e455b9e362da3edb79a7e4839cfb4bfdf5592db9e382826001600654610838919061342d565b6040516108479392919061340c565b60405180910390a15b50506001016106c1565b50600a805460ff19166001179055610870612131565b50600190565b60606000805461088590613444565b80601f01602080910402602001604051908101604052809291908181526020018280546108b190613444565b80156108fe5780601f106108d3576101008083540402835291602001916108fe565b820191906000526020600020905b8154815290600101906020018083116108e157829003601f168201915b5050505050905090565b6000610913826121b4565b6109745760405162461bcd60e51b815260206004820152602c60248201527f4552433732313a20617070726f76656420717565727920666f72206e6f6e657860448201526b34b9ba32b73a103a37b5b2b760a11b6064820152608401610567565b506000908152600460205260409020546001600160a01b031690565b600061099b826112a1565b9050806001600160a01b0316836001600160a01b031603610a085760405162461bcd60e51b815260206004820152602160248201527f4552433732313a20617070726f76616c20746f2063757272656e74206f776e656044820152603960f91b6064820152608401610567565b336001600160a01b0382161480610a245750610a248133611cae565b610a915760405162461bcd60e51b815260206004820152603860248201527f4552433732313a20617070726f76652063616c6c6572206973206e6f74206f776044820152771b995c881b9bdc88185c1c1c9bdd995908199bdc88185b1b60421b6064820152608401610567565b610a9b83836121d1565b505050565b6000600c54600014158015610ac35750600e54600d54610ac091906133b1565b43105b610b035760405162461bcd60e51b815260206004820152601160248201527061637469766520726f756e64206f6e6c7960781b6044820152606401610567565b8151600b54600090610b1690839061347e565b905080341015610b5f5760405162461bcd60e51b81526020600482015260146024820152730dae6ce5cecc2d8eaca40dcdee840cadcdeeaced60631b6044820152606401610567565b60005b82811015611047576000858281518110610b7e57610b7e6133f6565b6020026020010151600060068110610b9857610b986133f6565b6020020151118015610bda57506046858281518110610bb957610bb96133f6565b6020026020010151600060068110610bd357610bd36133f6565b6020020151105b610bf65760405162461bcd60e51b81526004016105679061349d565b6000858281518110610c0a57610c0a6133f6565b6020026020010151600160068110610c2457610c246133f6565b6020020151118015610c6657506046858281518110610c4557610c456133f6565b6020026020010151600160068110610c5f57610c5f6133f6565b6020020151105b610c825760405162461bcd60e51b81526004016105679061349d565b6000858281518110610c9657610c966133f6565b6020026020010151600260068110610cb057610cb06133f6565b6020020151118015610cf257506046858281518110610cd157610cd16133f6565b6020026020010151600260068110610ceb57610ceb6133f6565b6020020151105b610d0e5760405162461bcd60e51b81526004016105679061349d565b6000858281518110610d2257610d226133f6565b6020026020010151600360068110610d3c57610d3c6133f6565b6020020151118015610d7e57506046858281518110610d5d57610d5d6133f6565b6020026020010151600360068110610d7757610d776133f6565b6020020151105b610d9a5760405162461bcd60e51b81526004016105679061349d565b6000858281518110610dae57610dae6133f6565b6020026020010151600460068110610dc857610dc86133f6565b6020020151118015610e0a57506046858281518110610de957610de96133f6565b6020026020010151600460068110610e0357610e036133f6565b6020020151105b610e265760405162461bcd60e51b81526004016105679061349d565b6000858281518110610e3a57610e3a6133f6565b6020026020010151600560068110610e5457610e546133f6565b6020020151118015610e965750601b858281518110610e7557610e756133f6565b6020026020010151600560068110610e8f57610e8f6133f6565b6020020151105b610edd5760405162461bcd60e51b815260206004820152601860248201527734b73b30b634b2103837bbb2b92130b63610373ab6b132b960411b6044820152606401610567565b610eff858281518110610ef257610ef26133f6565b602002602001015161223f565b15610fec5760178054600181019091557fc624b66cc0138b8fabc209247f72d758e1cf3343756d543badbf24212bed8c150180546001600160a01b031916339081179091556000818152601860209081526040808320869055600c54835260198252918290208251808401909352928252875190820190889085908110610f8857610f886133f6565b602090810291909101810151909152825460018082018555600094855293829020835160079092020180546001600160a01b0319166001600160a01b039092169190911781559082015191929091610fe4918301906006612cf3565b50505061103f565b7fb1faad3c81bee814e0bc56849cc24c878dc2c98e30fd9d04a20c92719a66d72033868381518110611020576110206133f6565b60200260200101516040516110369291906134ce565b60405180910390a15b600101610b62565b508034111561108f57600061105c823461342d565b604051909150339082156108fc029083906000818181858888f1935050505015801561108c573d6000803e3d6000fd5b50505b7f61c9dfea40d7d9157786da221d50827efd620b465355369c3edc403c377497503334866040516110c2939291906134eb565b60405180910390a16001925050505b919050565b6110e033826122b3565b6110fc5760405162461bcd60e51b815260040161056790613552565b610a9b83838361237d565b60008082118015611119575060088211155b6111625760405162461bcd60e51b815260206004820152601a602482015279717565727920666f72206e6f6e6578697374656e742072616e6b60301b6044820152606401610567565b600082815260096020526040812054900361117f57506000919050565b506001919050565b6000818152600860205260408120805460609291906111a590613444565b80601f01602080910402602001604051908101604052809291908181526020018280546111d190613444565b801561121e5780601f106111f35761010080835404028352916020019161121e565b820191906000526020600020905b81548152906001019060200180831161120157829003601f168201915b5050505050905080516000036105ee5760405162461bcd60e51b815260206004820152602760248201527f6465736372697074696f6e20717565727920666f72206e6f6e6578697374656e6044820152663a103a37b5b2b760c91b6064820152608401610567565b610a9b838383604051806020016040528060008152506119f3565b6000818152600260205260408120546001600160a01b0316806105ee5760405162461bcd60e51b815260206004820152602960248201527f4552433732313a206f776e657220717565727920666f72206e6f6e657869737460448201526832b73a103a37b5b2b760b91b6064820152608401610567565b60008181526009602090815260409182902080548351818402810184019094528084526060939283018282801561136e57602002820191906000526020600020905b81548152602001906001019080831161135a575b50505050509050919050565b611382612d31565b6015546001600160a01b031633146113ac5760405162461bcd60e51b815260040161056790613340565b600c54158015906113cc5750600e54600d546113c891906133b1565b4310155b80156113db5750600a5460ff16155b6113f75760405162461bcd60e51b8152600401610567906133c9565b600f541561143f5760405162461bcd60e51b8152602060048201526015602482015274373ab6b132b9399030b63932b0b23c90323930bbb760591b6044820152606401610567565b611447612d31565b60005b6005811015611520576000604561146083612507565b61146a91906135b9565b6114759060016133b1565b90505b6000818152601a602052604090205460ff16156114c05760456114a461149f83600761347e565b612507565b6114ae91906135b9565b6114b99060016133b1565b9050611478565b808383600681106114d3576114d36133f6565b60200201526001601a60008585600681106114f0576114f06133f6565b602090810291909101518252810191909152604001600020805460ff19169115159190911790555060010161144a565b50601a61152d6005612507565b61153791906135b9565b6115429060016133b1565b60a0820152611554600f826006612cf3565b507f03bf059960eaec20aed6ddf189ef22f6fabda10667936ad01f15a9d751587e29600f60405161158591906135cd565b60405180910390a1905090565b6015546001600160a01b031633146115bc5760405162461bcd60e51b815260040161056790613340565b600a5460ff166117185760005b601754811015611716577f412098f8b4bb18ef21312fefd8a6b513b57c64572d0d0f0aacda093636c74bdd60178281548110611607576116076133f6565b9060005260206000200160009054906101000a90046001600160a01b0316601860006017858154811061163c5761163c6133f6565b60009182526020808320909101546001600160a01b0316835282019290925260409081019091205490516116719291906135fe565b60405180910390a16017818154811061168c5761168c6133f6565b6000918252602082200154601780546001600160a01b03909216926108fc9260189290869081106116bf576116bf6133f6565b60009182526020808320909101546001600160a01b03168352820192909252604090810182205490518115909302929091818181858888f1935050505015801561170d573d6000803e3d6000fd5b506001016115c9565b505b6016546040517f66e53903f9f634737500d1427f22bba2b2070ffaba517f2a9a3493e88d210caa91611755916001600160a01b0390911690612f6c565b60405180910390a16016546001600160a01b0316ff5b60006001600160a01b0382166117d65760405162461bcd60e51b815260206004820152602a60248201527f4552433732313a2062616c616e636520717565727920666f7220746865207a65604482015269726f206164647265737360b01b6064820152608401610567565b506001600160a01b031660009081526003602052604090205490565b6117fa612d4f565b600c54600090815260196020526040902080548390811061181d5761181d6133f6565b6000918252602091829020604080518082018252600790930290910180546001600160a01b03168352815160c0810190925291928301906001830160068282826020028201915b815481526020019060010190808311611864575050505050815250509050919050565b6000818152600860205260408120600101548082036105ee5760405162461bcd60e51b815260206004820181905260248201527f72616e6b20717565727920666f72206e6f6e6578697374656e7420746f6b656e6044820152606401610567565b6118f0612d31565b6040805160c081019182905290600f9060069082845b815481526020019060010190808311611906575050505050905090565b60606001805461088590613444565b6015546000906001600160a01b0316331461195f5760405162461bcd60e51b815260040161056790613340565b600082118015611970575060088211155b61198c5760405162461bcd60e51b815260040161056790613617565b6015546006546040516000805160206137b2833981519152926119bd926001600160a01b039091169186919061340c565b60405180910390a16015546119db906001600160a01b031683612086565b50600192915050565b6119ef338383612561565b5050565b6119fd33836122b3565b611a195760405162461bcd60e51b815260040161056790613552565b611a258484848461262b565b50505050565b6015546000906001600160a01b03163314611a585760405162461bcd60e51b815260040161056790613340565b600c541580611a695750600a5460ff165b611a855760405162461bcd60e51b815260040161056790613364565b43600d55600a805460ff19169055600c546000908152601960205260408120611aad91612d77565b600c8054906000611abd8361364d565b9190505550600c54600114611b7c5760005b601754811015611b1d576018600060178381548110611af057611af06133f6565b60009182526020808320909101546001600160a01b03168352820192909252604001812055600101611acf565b50611b2a60176000612d98565b60005b6005811015611b6f57601a6000600f8360068110611b4d57611b4d6133f6565b015481526020810191909152604001600020805460ff19169055600101611b2d565b50611b7c600f6000612db6565b600c546040805143815260208101929092527f0c6a72cb9b2e85d4887dcdb8bf75f03cae1d9e7b5d009e0ed2295e2947a55a55910160405180910390a150600190565b6060611bca826121b4565b611c2e5760405162461bcd60e51b815260206004820152602f60248201527f4552433732314d657461646174613a2055524920717565727920666f72206e6f60448201526e3732bc34b9ba32b73a103a37b5b2b760891b6064820152608401610567565b6000611c4560408051602081019091526000815290565b90506000815111611c655760405180602001604052806000815250611c90565b80611c6f8461265e565b604051602001611c80929190613666565b6040516020818303038152906040525b9392505050565b600f8160068110611ca757600080fd5b0154905081565b6001600160a01b03918216600090815260056020908152604080832093909416825291909152205460ff1690565b6015546001600160a01b03163314611d065760405162461bcd60e51b815260040161056790613340565b6001600160a01b038116611d545760405162461bcd60e51b8152602060048201526015602482015274696e76616c696420656d707479206164647265737360581b6044820152606401610567565b601680546001600160a01b0319166001600160a01b0392909216919091179055565b6015546001600160a01b03163314611da05760405162461bcd60e51b815260040161056790613340565b600c541580611db15750600a5460ff165b611dcd5760405162461bcd60e51b815260040161056790613364565b600e55565b6001600160a01b03163b151590565b6000808080805b6005811015611e4257601a600087602001518360068110611e0b57611e0b6133f6565b6020908102919091015182528101919091526040016000205460ff1615611e3a5782611e368161364d565b9350505b600101611de8565b50601454602086015160a0015103611e58575060015b81600603611e695760019250611f06565b816005148015611e77575080155b15611e855760029250611f06565b816005148015611e925750805b15611ea05760039250611f06565b81600403611eb15760049250611f06565b81600303611ec25760059250611f06565b81600203611ed35760069250611f06565b816001148015611ee1575080155b15611eef5760079250611f06565b816001148015611efc5750805b15611f0657600892505b50909392505050565b60008082118015611f21575060088211155b611f3d5760405162461bcd60e51b815260040161056790613617565b600082815260096020526040812054611f5584612507565b611f5f91906135b9565b60008481526009602052604081208054929350909183908110611f8457611f846133f6565b90600052602060002001549050600060096000868152602001908152602001600020805480602002602001604051908101604052809291908181526020018280548015611ff057602002820191906000526020600020905b815481526020019060010190808311611fdc575b505050505090508060018251612006919061342d565b81518110612016576120166133f6565b6020026020010151818481518110612030576120306133f6565b602090810291909101810191909152815160001901825260008681526009825260409020825161206292840190612dc5565b5060075461207a906001600160a01b03168784611286565b50600195945050505050565b60008082118015612098575060088211155b6120b45760405162461bcd60e51b815260040161056790613617565b6120c08360065461275e565b60405180604001604052806120d6600654612778565b815260209081018490526006546000908152600882526040902082518051919261210592849290910190612dff565b5060209190910151600190910155600680549060006121238361364d565b909155506001949350505050565b6016546040517fb4214c8c54fc7442f36d3682f59aebaf09358a4431835b30efb29d52cf9e1e9191612170916001600160a01b039091169047906135fe565b60405180910390a16016546040516001600160a01b03909116904780156108fc02916000818181858888f193505050501580156121b1573d6000803e3d6000fd5b50565b6000908152600260205260409020546001600160a01b0316151590565b600081815260046020526040902080546001600160a01b0319166001600160a01b0384169081179091558190612206826112a1565b6001600160a01b03167f8c5be1e5ebec7d5bd14f71427d1e84f3dd0314c0f7b2291e5b200ac8c7c3b92560405160405180910390a45050565b6000805b60058110156119db5760006122598260016133b1565b90505b60058110156122aa57838160068110612277576122776133f6565b602002015184836006811061228e5761228e6133f6565b6020020151036122a2575060009392505050565b60010161225c565b50600101612243565b60006122be826121b4565b61231f5760405162461bcd60e51b815260206004820152602c60248201527f4552433732313a206f70657261746f7220717565727920666f72206e6f6e657860448201526b34b9ba32b73a103a37b5b2b760a11b6064820152608401610567565b600061232a836112a1565b9050806001600160a01b0316846001600160a01b0316148061235157506123518185611cae565b806123755750836001600160a01b031661236a84610908565b6001600160a01b0316145b949350505050565b826001600160a01b0316612390826112a1565b6001600160a01b0316146123f45760405162461bcd60e51b815260206004820152602560248201527f4552433732313a207472616e736665722066726f6d20696e636f72726563742060448201526437bbb732b960d91b6064820152608401610567565b6001600160a01b0382166124565760405162461bcd60e51b8152602060048201526024808201527f4552433732313a207472616e7366657220746f20746865207a65726f206164646044820152637265737360e01b6064820152608401610567565b6124616000826121d1565b6001600160a01b038316600090815260036020526040812080546001929061248a90849061342d565b90915550506001600160a01b03821660009081526003602052604081208054600192906124b89084906133b1565b909155505060008181526002602052604080822080546001600160a01b0319166001600160a01b03868116918217909255915184939187169160008051602061379283398151915291a4505050565b6000444233846040516020016125439493929190938452602084019290925260601b6001600160601b0319166040830152605482015260740190565b60408051601f19818403018152919052805160209091012092915050565b816001600160a01b0316836001600160a01b0316036125be5760405162461bcd60e51b815260206004820152601960248201527822a9219b99189d1030b8383937bb32903a379031b0b63632b960391b6044820152606401610567565b6001600160a01b03838116600081815260056020908152604080832094871680845294825291829020805460ff191686151590811790915591519182527f17307eab39ab6107e8899845ad3d59bd9653f200f220920489ca2b5937696c31910160405180910390a3505050565b61263684848461237d565b61264284848484612a98565b611a255760405162461bcd60e51b815260040161056790613695565b6060816000036126855750506040805180820190915260018152600360fc1b602082015290565b8160005b81156126af57806126998161364d565b91506126a89050600a836136e7565b9150612689565b6000816001600160401b038111156126c9576126c9612fc1565b6040519080825280601f01601f1916602001820160405280156126f3576020820181803683370190505b5090505b84156123755761270860018361342d565b9150612715600a866135b9565b6127209060306133b1565b60f81b818381518110612735576127356133f6565b60200101906001600160f81b031916908160001a905350612757600a866136e7565b94506126f7565b6119ef828260405180602001604052806000815250612ba0565b606060006040518060e00160405280604051806040016040528060088152602001674c6f72645065706560c01b81525081526020016040518060400160405280600b81526020016a4d617269654c655065706560a81b8152508152602001604051806040016040528060048152602001635065706560e01b81525081526020016040518060400160405280600a81526020016950657065506f6c69636560b01b81525081526020016040518060400160405280600b81526020016a2832b832a9b7b63234b2b960a91b81525081526020016040518060400160405280600a81526020016914195c1955da5e985c9960b21b8152508152602001604051806040016040528060088152602001675472756d5065706560c01b8152508152509050600060405180610140016040528060405180604001604052806007815260200166416e78696f757360c81b81525081526020016040518060400160405280600b81526020016a115b9b1a59da1d195b995960aa1b81525081526020016040518060400160405280600681526020016547686f74696360d01b815250815260200160405180604001604052806005815260200164486170707960d81b81525081526020016040518060400160405280600381526020016213db1960ea1b8152508152602001604051806040016040528060048152602001630a4d2c6d60e31b81525081526020016040518060400160405280600381526020016214d85960ea1b8152508152602001604051806040016040528060068152602001655374726f6e6760d01b81525081526020016040518060400160405280600a8152602001695375676765737469766560b01b815250815260200160405180604001604052806005815260200164596f756e6760d81b815250815250905060006007612a1a86612507565b612a2491906135b9565b90506000600a612a3383612507565b612a3d91906135b9565b90508281600a8110612a5157612a516133f6565b6020020151848360078110612a6857612a686133f6565b6020020151604051602001612a7e9291906136fb565b604051602081830303815290604052945050505050919050565b6000612aac846001600160a01b0316611dd2565b15612b9557604051630a85bd0160e11b81526001600160a01b0385169063150b7a0290612ae3903390899088908890600401613737565b6020604051808303816000875af1925050508015612b1e575060408051601f3d908101601f19168201909252612b1b91810190613774565b60015b612b7b573d808015612b4c576040519150601f19603f3d011682016040523d82523d6000602084013e612b51565b606091505b508051600003612b735760405162461bcd60e51b815260040161056790613695565b805181602001fd5b6001600160e01b031916630a85bd0160e11b149050612375565b506001949350505050565b612baa8383612bd3565b612bb76000848484612a98565b610a9b5760405162461bcd60e51b815260040161056790613695565b6001600160a01b038216612c295760405162461bcd60e51b815260206004820181905260248201527f4552433732313a206d696e7420746f20746865207a65726f20616464726573736044820152606401610567565b612c32816121b4565b15612c7e5760405162461bcd60e51b815260206004820152601c60248201527b115490cdcc8c4e881d1bdad95b88185b1c9958591e481b5a5b9d195960221b6044820152606401610567565b6001600160a01b0382166000908152600360205260408120805460019290612ca79084906133b1565b909155505060008181526002602052604080822080546001600160a01b0319166001600160a01b0386169081179091559051839290600080516020613792833981519152908290a45050565b8260068101928215612d21579160200282015b82811115612d21578251825591602001919060010190612d06565b50612d2d929150612e72565b5090565b6040518060c001604052806006906020820280368337509192915050565b604051806040016040528060006001600160a01b03168152602001612d72612d31565b905290565b50805460008255600702906000526020600020908101906121b19190612e87565b50805460008255906000526020600020908101906121b19190612e72565b506121b1906006810190612e72565b828054828255906000526020600020908101928215612d215791602002820182811115612d21578251825591602001919060010190612d06565b828054612e0b90613444565b90600052602060002090601f016020900481019282612e2d5760008555612d21565b82601f10612e4657805160ff1916838001178555612d21565b82800160010185558215612d215791820182811115612d21578251825591602001919060010190612d06565b5b80821115612d2d5760008155600101612e73565b80821115612d2d5780546001600160a01b03191681556000612eac6001830182612db6565b50600701612e87565b600060208284031215612ec757600080fd5b5035919050565b6001600160e01b0319811681146121b157600080fd5b600060208284031215612ef657600080fd5b8135611c9081612ece565b60005b83811015612f1c578181015183820152602001612f04565b83811115611a255750506000910152565b60008151808452612f45816020860160208601612f01565b601f01601f19169290920160200192915050565b602081526000611c906020830184612f2d565b6001600160a01b0391909116815260200190565b80356001600160a01b03811681146110d157600080fd5b60008060408385031215612faa57600080fd5b612fb383612f80565b946020939093013593505050565b634e487b7160e01b600052604160045260246000fd5b60405160c081016001600160401b0381118282101715612ff957612ff9612fc1565b60405290565b604051601f8201601f191681016001600160401b038111828210171561302757613027612fc1565b604052919050565b6000602080838503121561304257600080fd5b82356001600160401b038082111561305957600080fd5b8185019150601f868184011261306e57600080fd5b82358281111561308057613080612fc1565b61308e858260051b01612fff565b818152858101935060c09182028501860191898311156130ad57600080fd5b948601945b8286101561310e5789848701126130c95760008081fd5b6130d1612fd7565b808288018c8111156130e35760008081fd5b885b818110156130fc5780358452928a01928a016130e5565b505086525094850194938601936130b2565b5098975050505050505050565b60008060006060848603121561313057600080fd5b61313984612f80565b925061314760208501612f80565b9150604084013590509250925092565b6020808252825182820181905260009190848201906040850190845b8181101561318f57835183529284019291840191600101613173565b50909695505050505050565b8060005b6006811015611a2557815184526020938401939091019060010161319f565b60c081016105ee828461319b565b6000602082840312156131de57600080fd5b611c9082612f80565b81516001600160a01b0316815260208083015160e083019161320b9084018261319b565b5092915050565b6000806040838503121561322557600080fd5b61322e83612f80565b91506020830135801515811461324357600080fd5b809150509250929050565b6000806000806080858703121561326457600080fd5b61326d85612f80565b9350602061327c818701612f80565b93506040860135925060608601356001600160401b038082111561329f57600080fd5b818801915088601f8301126132b357600080fd5b8135818111156132c5576132c5612fc1565b6132d7601f8201601f19168501612fff565b915080825289848285010111156132ed57600080fd5b808484018584013760008482840101525080935050505092959194509250565b6000806040838503121561332057600080fd5b61332983612f80565b915061333760208401612f80565b90509250929050565b6020808252600a90820152696f776e6572206f6e6c7960b01b604082015260600190565b6020808252601f908201527f666972737420726f756e64206f7220656e64656420726f756e64206f6e6c7900604082015260600190565b634e487b7160e01b600052601160045260246000fd5b600082198211156133c4576133c461339b565b500190565b602080825260139082015272696e61637469766520726f756e64206f6e6c7960681b604082015260600190565b634e487b7160e01b600052603260045260246000fd5b6001600160a01b039390931683526020830191909152604082015260600190565b60008282101561343f5761343f61339b565b500390565b600181811c9082168061345857607f821691505b60208210810361347857634e487b7160e01b600052602260045260246000fd5b50919050565b60008160001904831182151516156134985761349861339b565b500290565b60208082526017908201527634b73b30b634b21039ba30b73230b93210373ab6b132b960491b604082015260600190565b6001600160a01b038316815260e08101611c90602083018461319b565b6001600160a01b038416815260208082018490526060604083018190528351908301819052600091848101916080850190845b818110156135445761353183865161319b565b9383019360c0929092019160010161351e565b509098975050505050505050565b60208082526031908201527f4552433732313a207472616e736665722063616c6c6572206973206e6f74206f6040820152701ddb995c881b9bdc88185c1c1c9bdd9959607a1b606082015260800190565b634e487b7160e01b600052601260045260246000fd5b6000826135c8576135c86135a3565b500690565b60c08101818360005b60068110156135f55781548352602090920191600191820191016135d6565b50505092915050565b6001600160a01b03929092168252602082015260400190565b6020808252601c908201527b6e6f6e206578697374656e742072616e6b2028312d38206f6e6c792960201b604082015260600190565b60006001820161365f5761365f61339b565b5060010190565b60008351613678818460208801612f01565b83519083019061368c818360208801612f01565b01949350505050565b60208082526032908201527f4552433732313a207472616e7366657220746f206e6f6e20455243373231526560408201527131b2b4bb32b91034b6b83632b6b2b73a32b960711b606082015260800190565b6000826136f6576136f66135a3565b500490565b6000835161370d818460208801612f01565b600160fd1b908301908152835161372b816001840160208801612f01565b01600101949350505050565b6001600160a01b038581168252841660208201526040810183905260806060820181905260009061376a90830184612f2d565b9695505050505050565b60006020828403121561378657600080fd5b8151611c9081612ece56feddf252ad1be2c89b69c2b068fc378daa952ba7f163c4a11628f55a4df523b3efa82a7ea15c804d00dba1b969024b510969fde70fac8e0d5da860cf1f7376d317a26469706673582212205cdc27a69f260f59a0eff65f657702f76cdee5d6ce0ca8f9d55d3b278a9892a864736f6c634300080e0033",
			"opcodes": "PUSH1 0x80 PUSH1 0x40 MSTORE PUSH1 0xA DUP1 SLOAD PUSH1 0xFF NOT AND SWAP1 SSTORE PUSH7 0x2386F26FC10000 PUSH1 0xB SSTORE PUSH1 0x4 PUSH1 0xE SSTORE CALLVALUE DUP1 ISZERO PUSH3 0x2B JUMPI PUSH1 0x0 DUP1 REVERT JUMPDEST POP PUSH1 0x40 DUP1 MLOAD DUP1 DUP3 ADD DUP3 MSTORE PUSH1 0xB DUP2 MSTORE PUSH11 0x43727970746F5065706573 PUSH1 0xA8 SHL PUSH1 0x20 DUP1 DUP4 ADD SWAP2 DUP3 MSTORE DUP4 MLOAD DUP1 DUP6 ADD SWAP1 SWAP5 MSTORE PUSH1 0x2 DUP5 MSTORE PUSH2 0x435 PUSH1 0xF4 SHL SWAP1 DUP5 ADD MSTORE DUP2 MLOAD SWAP2 SWAP3 SWAP2 PUSH3 0x79 SWAP2 PUSH1 0x0 SWAP2 PUSH3 0x863 JUMP JUMPDEST POP DUP1 MLOAD PUSH3 0x8F SWAP1 PUSH1 0x1 SWAP1 PUSH1 0x20 DUP5 ADD SWAP1 PUSH3 0x863 JUMP JUMPDEST POP POP PUSH1 0x7 DUP1 SLOAD PUSH1 0x1 PUSH1 0x1 PUSH1 0xA0 SHL SUB NOT AND CALLER OR SWAP1 SSTORE POP PUSH1 0x0 JUMPDEST PUSH1 0x4 DUP2 LT ISZERO PUSH3 0x18A JUMPI PUSH1 0x7 SLOAD PUSH3 0xC9 SWAP1 PUSH1 0x1 PUSH1 0x1 PUSH1 0xA0 SHL SUB AND DUP3 PUSH3 0x1EA JUMP JUMPDEST PUSH1 0x40 MLOAD DUP1 PUSH1 0x40 ADD PUSH1 0x40 MSTORE DUP1 PUSH3 0xE5 DUP4 PUSH3 0x210 PUSH1 0x20 SHL PUSH1 0x20 SHR JUMP JUMPDEST DUP2 MSTORE PUSH1 0x20 ADD PUSH3 0xF7 PUSH1 0x8 DUP5 PUSH3 0x909 JUMP JUMPDEST PUSH3 0x104 SWAP1 PUSH1 0x1 PUSH3 0x92C JUMP JUMPDEST SWAP1 MSTORE PUSH1 0x0 DUP3 DUP2 MSTORE PUSH1 0x8 PUSH1 0x20 SWAP1 DUP2 MSTORE PUSH1 0x40 SWAP1 SWAP2 KECCAK256 DUP3 MLOAD DUP1 MLOAD SWAP2 SWAP3 PUSH3 0x12E SWAP3 DUP5 SWAP3 SWAP1 SWAP2 ADD SWAP1 PUSH3 0x863 JUMP JUMPDEST POP PUSH1 0x20 SWAP2 SWAP1 SWAP2 ADD MLOAD PUSH1 0x1 SWAP1 SWAP2 ADD SSTORE PUSH1 0x9 PUSH1 0x0 PUSH3 0x14D PUSH1 0x8 DUP5 PUSH3 0x909 JUMP JUMPDEST PUSH3 0x15A SWAP1 PUSH1 0x1 PUSH3 0x92C JUMP JUMPDEST DUP2 MSTORE PUSH1 0x20 DUP1 DUP3 ADD SWAP3 SWAP1 SWAP3 MSTORE PUSH1 0x40 ADD PUSH1 0x0 SWAP1 DUP2 KECCAK256 DUP1 SLOAD PUSH1 0x1 DUP2 DUP2 ADD DUP4 SSTORE SWAP2 DUP4 MSTORE SWAP3 SWAP1 SWAP2 KECCAK256 SWAP1 SWAP2 ADD DUP3 SWAP1 SSTORE ADD PUSH3 0xA7 JUMP JUMPDEST POP PUSH1 0x4 PUSH1 0x6 SSTORE PUSH1 0x15 DUP1 SLOAD CALLER PUSH1 0x1 PUSH1 0x1 PUSH1 0xA0 SHL SUB NOT SWAP2 DUP3 AND DUP2 OR SWAP1 SWAP3 SSTORE PUSH1 0x16 DUP1 SLOAD SWAP1 SWAP2 AND DUP3 OR SWAP1 SSTORE PUSH1 0x40 MLOAD SWAP1 DUP2 MSTORE PUSH32 0x8AB6A1E4F6B3C93535331F79F89671804E32175732C3ACB5067F1C667AEE2504 SWAP1 PUSH1 0x20 ADD PUSH1 0x40 MLOAD DUP1 SWAP2 SUB SWAP1 LOG1 PUSH3 0xAF3 JUMP JUMPDEST PUSH3 0x20C DUP3 DUP3 PUSH1 0x40 MLOAD DUP1 PUSH1 0x20 ADD PUSH1 0x40 MSTORE DUP1 PUSH1 0x0 DUP2 MSTORE POP PUSH3 0x546 PUSH1 0x20 SHL PUSH1 0x20 SHR JUMP JUMPDEST POP POP JUMP JUMPDEST PUSH1 0x60 PUSH1 0x0 PUSH1 0x40 MLOAD DUP1 PUSH1 0xE0 ADD PUSH1 0x40 MSTORE DUP1 PUSH1 0x40 MLOAD DUP1 PUSH1 0x40 ADD PUSH1 0x40 MSTORE DUP1 PUSH1 0x8 DUP2 MSTORE PUSH1 0x20 ADD PUSH8 0x4C6F726450657065 PUSH1 0xC0 SHL DUP2 MSTORE POP DUP2 MSTORE PUSH1 0x20 ADD PUSH1 0x40 MLOAD DUP1 PUSH1 0x40 ADD PUSH1 0x40 MSTORE DUP1 PUSH1 0xB DUP2 MSTORE PUSH1 0x20 ADD PUSH11 0x4D617269654C6550657065 PUSH1 0xA8 SHL DUP2 MSTORE POP DUP2 MSTORE PUSH1 0x20 ADD PUSH1 0x40 MLOAD DUP1 PUSH1 0x40 ADD PUSH1 0x40 MSTORE DUP1 PUSH1 0x4 DUP2 MSTORE PUSH1 0x20 ADD PUSH4 0x50657065 PUSH1 0xE0 SHL DUP2 MSTORE POP DUP2 MSTORE PUSH1 0x20 ADD PUSH1 0x40 MLOAD DUP1 PUSH1 0x40 ADD PUSH1 0x40 MSTORE DUP1 PUSH1 0xA DUP2 MSTORE PUSH1 0x20 ADD PUSH10 0x50657065506F6C696365 PUSH1 0xB0 SHL DUP2 MSTORE POP DUP2 MSTORE PUSH1 0x20 ADD PUSH1 0x40 MLOAD DUP1 PUSH1 0x40 ADD PUSH1 0x40 MSTORE DUP1 PUSH1 0xB DUP2 MSTORE PUSH1 0x20 ADD PUSH11 0x2832B832A9B7B63234B2B9 PUSH1 0xA9 SHL DUP2 MSTORE POP DUP2 MSTORE PUSH1 0x20 ADD PUSH1 0x40 MLOAD DUP1 PUSH1 0x40 ADD PUSH1 0x40 MSTORE DUP1 PUSH1 0xA DUP2 MSTORE PUSH1 0x20 ADD PUSH10 0x14195C1955DA5E985C99 PUSH1 0xB2 SHL DUP2 MSTORE POP DUP2 MSTORE PUSH1 0x20 ADD PUSH1 0x40 MLOAD DUP1 PUSH1 0x40 ADD PUSH1 0x40 MSTORE DUP1 PUSH1 0x8 DUP2 MSTORE PUSH1 0x20 ADD PUSH8 0x5472756D50657065 PUSH1 0xC0 SHL DUP2 MSTORE POP DUP2 MSTORE POP SWAP1 POP PUSH1 0x0 PUSH1 0x40 MLOAD DUP1 PUSH2 0x140 ADD PUSH1 0x40 MSTORE DUP1 PUSH1 0x40 MLOAD DUP1 PUSH1 0x40 ADD PUSH1 0x40 MSTORE DUP1 PUSH1 0x7 DUP2 MSTORE PUSH1 0x20 ADD PUSH7 0x416E78696F7573 PUSH1 0xC8 SHL DUP2 MSTORE POP DUP2 MSTORE PUSH1 0x20 ADD PUSH1 0x40 MLOAD DUP1 PUSH1 0x40 ADD PUSH1 0x40 MSTORE DUP1 PUSH1 0xB DUP2 MSTORE PUSH1 0x20 ADD PUSH11 0x115B9B1A59DA1D195B9959 PUSH1 0xAA SHL DUP2 MSTORE POP DUP2 MSTORE PUSH1 0x20 ADD PUSH1 0x40 MLOAD DUP1 PUSH1 0x40 ADD PUSH1 0x40 MSTORE DUP1 PUSH1 0x6 DUP2 MSTORE PUSH1 0x20 ADD PUSH6 0x47686F746963 PUSH1 0xD0 SHL DUP2 MSTORE POP DUP2 MSTORE PUSH1 0x20 ADD PUSH1 0x40 MLOAD DUP1 PUSH1 0x40 ADD PUSH1 0x40 MSTORE DUP1 PUSH1 0x5 DUP2 MSTORE PUSH1 0x20 ADD PUSH5 0x4861707079 PUSH1 0xD8 SHL DUP2 MSTORE POP DUP2 MSTORE PUSH1 0x20 ADD PUSH1 0x40 MLOAD DUP1 PUSH1 0x40 ADD PUSH1 0x40 MSTORE DUP1 PUSH1 0x3 DUP2 MSTORE PUSH1 0x20 ADD PUSH3 0x13DB19 PUSH1 0xEA SHL DUP2 MSTORE POP DUP2 MSTORE PUSH1 0x20 ADD PUSH1 0x40 MLOAD DUP1 PUSH1 0x40 ADD PUSH1 0x40 MSTORE DUP1 PUSH1 0x4 DUP2 MSTORE PUSH1 0x20 ADD PUSH4 0xA4D2C6D PUSH1 0xE3 SHL DUP2 MSTORE POP DUP2 MSTORE PUSH1 0x20 ADD PUSH1 0x40 MLOAD DUP1 PUSH1 0x40 ADD PUSH1 0x40 MSTORE DUP1 PUSH1 0x3 DUP2 MSTORE PUSH1 0x20 ADD PUSH3 0x14D859 PUSH1 0xEA SHL DUP2 MSTORE POP DUP2 MSTORE PUSH1 0x20 ADD PUSH1 0x40 MLOAD DUP1 PUSH1 0x40 ADD PUSH1 0x40 MSTORE DUP1 PUSH1 0x6 DUP2 MSTORE PUSH1 0x20 ADD PUSH6 0x5374726F6E67 PUSH1 0xD0 SHL DUP2 MSTORE POP DUP2 MSTORE PUSH1 0x20 ADD PUSH1 0x40 MLOAD DUP1 PUSH1 0x40 ADD PUSH1 0x40 MSTORE DUP1 PUSH1 0xA DUP2 MSTORE PUSH1 0x20 ADD PUSH10 0x53756767657374697665 PUSH1 0xB0 SHL DUP2 MSTORE POP DUP2 MSTORE PUSH1 0x20 ADD PUSH1 0x40 MLOAD DUP1 PUSH1 0x40 ADD PUSH1 0x40 MSTORE DUP1 PUSH1 0x5 DUP2 MSTORE PUSH1 0x20 ADD PUSH5 0x596F756E67 PUSH1 0xD8 SHL DUP2 MSTORE POP DUP2 MSTORE POP SWAP1 POP PUSH1 0x0 PUSH1 0x7 PUSH3 0x4BA DUP7 PUSH3 0x58E PUSH1 0x20 SHL PUSH1 0x20 SHR JUMP JUMPDEST PUSH3 0x4C6 SWAP2 SWAP1 PUSH3 0x909 JUMP JUMPDEST SWAP1 POP PUSH1 0x0 PUSH1 0xA PUSH3 0x4D7 DUP4 PUSH3 0x58E JUMP JUMPDEST PUSH3 0x4E3 SWAP2 SWAP1 PUSH3 0x909 JUMP JUMPDEST SWAP1 POP DUP3 DUP2 PUSH1 0xA DUP2 LT PUSH3 0x4FA JUMPI PUSH3 0x4FA PUSH3 0x953 JUMP JUMPDEST PUSH1 0x20 MUL ADD MLOAD DUP5 DUP4 PUSH1 0x7 DUP2 LT PUSH3 0x514 JUMPI PUSH3 0x514 PUSH3 0x953 JUMP JUMPDEST PUSH1 0x20 MUL ADD MLOAD PUSH1 0x40 MLOAD PUSH1 0x20 ADD PUSH3 0x52C SWAP3 SWAP2 SWAP1 PUSH3 0x99C JUMP JUMPDEST PUSH1 0x40 MLOAD PUSH1 0x20 DUP2 DUP4 SUB SUB DUP2 MSTORE SWAP1 PUSH1 0x40 MSTORE SWAP5 POP POP POP POP POP SWAP2 SWAP1 POP JUMP JUMPDEST PUSH3 0x552 DUP4 DUP4 PUSH3 0x5E9 JUMP JUMPDEST PUSH3 0x561 PUSH1 0x0 DUP5 DUP5 DUP5 PUSH3 0x731 JUMP JUMPDEST PUSH3 0x589 JUMPI PUSH1 0x40 MLOAD PUSH3 0x461BCD PUSH1 0xE5 SHL DUP2 MSTORE PUSH1 0x4 ADD PUSH3 0x580 SWAP1 PUSH3 0x9DC JUMP JUMPDEST PUSH1 0x40 MLOAD DUP1 SWAP2 SUB SWAP1 REVERT JUMPDEST POP POP POP JUMP JUMPDEST PUSH1 0x0 DIFFICULTY TIMESTAMP CALLER DUP5 PUSH1 0x40 MLOAD PUSH1 0x20 ADD PUSH3 0x5CB SWAP5 SWAP4 SWAP3 SWAP2 SWAP1 SWAP4 DUP5 MSTORE PUSH1 0x20 DUP5 ADD SWAP3 SWAP1 SWAP3 MSTORE PUSH1 0x60 SHL PUSH1 0x1 PUSH1 0x1 PUSH1 0x60 SHL SUB NOT AND PUSH1 0x40 DUP4 ADD MSTORE PUSH1 0x54 DUP3 ADD MSTORE PUSH1 0x74 ADD SWAP1 JUMP JUMPDEST PUSH1 0x40 DUP1 MLOAD PUSH1 0x1F NOT DUP2 DUP5 SUB ADD DUP2 MSTORE SWAP2 SWAP1 MSTORE DUP1 MLOAD PUSH1 0x20 SWAP1 SWAP2 ADD KECCAK256 SWAP3 SWAP2 POP POP JUMP JUMPDEST PUSH1 0x1 PUSH1 0x1 PUSH1 0xA0 SHL SUB DUP3 AND PUSH3 0x641 JUMPI PUSH1 0x40 MLOAD PUSH3 0x461BCD PUSH1 0xE5 SHL DUP2 MSTORE PUSH1 0x20 PUSH1 0x4 DUP3 ADD DUP2 SWAP1 MSTORE PUSH1 0x24 DUP3 ADD MSTORE PUSH32 0x4552433732313A206D696E7420746F20746865207A65726F2061646472657373 PUSH1 0x44 DUP3 ADD MSTORE PUSH1 0x64 ADD PUSH3 0x580 JUMP JUMPDEST PUSH1 0x0 DUP2 DUP2 MSTORE PUSH1 0x2 PUSH1 0x20 MSTORE PUSH1 0x40 SWAP1 KECCAK256 SLOAD PUSH1 0x1 PUSH1 0x1 PUSH1 0xA0 SHL SUB AND ISZERO PUSH3 0x6A8 JUMPI PUSH1 0x40 MLOAD PUSH3 0x461BCD PUSH1 0xE5 SHL DUP2 MSTORE PUSH1 0x20 PUSH1 0x4 DUP3 ADD MSTORE PUSH1 0x1C PUSH1 0x24 DUP3 ADD MSTORE PUSH32 0x4552433732313A20746F6B656E20616C7265616479206D696E74656400000000 PUSH1 0x44 DUP3 ADD MSTORE PUSH1 0x64 ADD PUSH3 0x580 JUMP JUMPDEST PUSH1 0x1 PUSH1 0x1 PUSH1 0xA0 SHL SUB DUP3 AND PUSH1 0x0 SWAP1 DUP2 MSTORE PUSH1 0x3 PUSH1 0x20 MSTORE PUSH1 0x40 DUP2 KECCAK256 DUP1 SLOAD PUSH1 0x1 SWAP3 SWAP1 PUSH3 0x6D3 SWAP1 DUP5 SWAP1 PUSH3 0x92C JUMP JUMPDEST SWAP1 SWAP2 SSTORE POP POP PUSH1 0x0 DUP2 DUP2 MSTORE PUSH1 0x2 PUSH1 0x20 MSTORE PUSH1 0x40 DUP1 DUP3 KECCAK256 DUP1 SLOAD PUSH1 0x1 PUSH1 0x1 PUSH1 0xA0 SHL SUB NOT AND PUSH1 0x1 PUSH1 0x1 PUSH1 0xA0 SHL SUB DUP7 AND SWAP1 DUP2 OR SWAP1 SWAP2 SSTORE SWAP1 MLOAD DUP4 SWAP3 SWAP1 PUSH32 0xDDF252AD1BE2C89B69C2B068FC378DAA952BA7F163C4A11628F55A4DF523B3EF SWAP1 DUP3 SWAP1 LOG4 POP POP JUMP JUMPDEST PUSH1 0x0 PUSH3 0x752 DUP5 PUSH1 0x1 PUSH1 0x1 PUSH1 0xA0 SHL SUB AND PUSH3 0x854 PUSH1 0x20 SHL PUSH3 0x1DD2 OR PUSH1 0x20 SHR JUMP JUMPDEST ISZERO PUSH3 0x848 JUMPI PUSH1 0x40 MLOAD PUSH4 0xA85BD01 PUSH1 0xE1 SHL DUP2 MSTORE PUSH1 0x1 PUSH1 0x1 PUSH1 0xA0 SHL SUB DUP6 AND SWAP1 PUSH4 0x150B7A02 SWAP1 PUSH3 0x78C SWAP1 CALLER SWAP1 DUP10 SWAP1 DUP9 SWAP1 DUP9 SWAP1 PUSH1 0x4 ADD PUSH3 0xA2E JUMP JUMPDEST PUSH1 0x20 PUSH1 0x40 MLOAD DUP1 DUP4 SUB DUP2 PUSH1 0x0 DUP8 GAS CALL SWAP3 POP POP POP DUP1 ISZERO PUSH3 0x7CA JUMPI POP PUSH1 0x40 DUP1 MLOAD PUSH1 0x1F RETURNDATASIZE SWAP1 DUP2 ADD PUSH1 0x1F NOT AND DUP3 ADD SWAP1 SWAP3 MSTORE PUSH3 0x7C7 SWAP2 DUP2 ADD SWAP1 PUSH3 0xA84 JUMP JUMPDEST PUSH1 0x1 JUMPDEST PUSH3 0x82D JUMPI RETURNDATASIZE DUP1 DUP1 ISZERO PUSH3 0x7FB JUMPI PUSH1 0x40 MLOAD SWAP2 POP PUSH1 0x1F NOT PUSH1 0x3F RETURNDATASIZE ADD AND DUP3 ADD PUSH1 0x40 MSTORE RETURNDATASIZE DUP3 MSTORE RETURNDATASIZE PUSH1 0x0 PUSH1 0x20 DUP5 ADD RETURNDATACOPY PUSH3 0x800 JUMP JUMPDEST PUSH1 0x60 SWAP2 POP JUMPDEST POP DUP1 MLOAD PUSH1 0x0 SUB PUSH3 0x825 JUMPI PUSH1 0x40 MLOAD PUSH3 0x461BCD PUSH1 0xE5 SHL DUP2 MSTORE PUSH1 0x4 ADD PUSH3 0x580 SWAP1 PUSH3 0x9DC JUMP JUMPDEST DUP1 MLOAD DUP2 PUSH1 0x20 ADD REVERT JUMPDEST PUSH1 0x1 PUSH1 0x1 PUSH1 0xE0 SHL SUB NOT AND PUSH4 0xA85BD01 PUSH1 0xE1 SHL EQ SWAP1 POP PUSH3 0x84C JUMP JUMPDEST POP PUSH1 0x1 JUMPDEST SWAP5 SWAP4 POP POP POP POP JUMP JUMPDEST PUSH1 0x1 PUSH1 0x1 PUSH1 0xA0 SHL SUB AND EXTCODESIZE ISZERO ISZERO SWAP1 JUMP JUMPDEST DUP3 DUP1 SLOAD PUSH3 0x871 SWAP1 PUSH3 0xAB7 JUMP JUMPDEST SWAP1 PUSH1 0x0 MSTORE PUSH1 0x20 PUSH1 0x0 KECCAK256 SWAP1 PUSH1 0x1F ADD PUSH1 0x20 SWAP1 DIV DUP2 ADD SWAP3 DUP3 PUSH3 0x895 JUMPI PUSH1 0x0 DUP6 SSTORE PUSH3 0x8E0 JUMP JUMPDEST DUP3 PUSH1 0x1F LT PUSH3 0x8B0 JUMPI DUP1 MLOAD PUSH1 0xFF NOT AND DUP4 DUP1 ADD OR DUP6 SSTORE PUSH3 0x8E0 JUMP JUMPDEST DUP3 DUP1 ADD PUSH1 0x1 ADD DUP6 SSTORE DUP3 ISZERO PUSH3 0x8E0 JUMPI SWAP2 DUP3 ADD JUMPDEST DUP3 DUP2 GT ISZERO PUSH3 0x8E0 JUMPI DUP3 MLOAD DUP3 SSTORE SWAP2 PUSH1 0x20 ADD SWAP2 SWAP1 PUSH1 0x1 ADD SWAP1 PUSH3 0x8C3 JUMP JUMPDEST POP PUSH3 0x8EE SWAP3 SWAP2 POP PUSH3 0x8F2 JUMP JUMPDEST POP SWAP1 JUMP JUMPDEST JUMPDEST DUP1 DUP3 GT ISZERO PUSH3 0x8EE JUMPI PUSH1 0x0 DUP2 SSTORE PUSH1 0x1 ADD PUSH3 0x8F3 JUMP JUMPDEST PUSH1 0x0 DUP3 PUSH3 0x927 JUMPI PUSH4 0x4E487B71 PUSH1 0xE0 SHL PUSH1 0x0 MSTORE PUSH1 0x12 PUSH1 0x4 MSTORE PUSH1 0x24 PUSH1 0x0 REVERT JUMPDEST POP MOD SWAP1 JUMP JUMPDEST PUSH1 0x0 DUP3 NOT DUP3 GT ISZERO PUSH3 0x94E JUMPI PUSH4 0x4E487B71 PUSH1 0xE0 SHL PUSH1 0x0 MSTORE PUSH1 0x11 PUSH1 0x4 MSTORE PUSH1 0x24 PUSH1 0x0 REVERT JUMPDEST POP ADD SWAP1 JUMP JUMPDEST PUSH4 0x4E487B71 PUSH1 0xE0 SHL PUSH1 0x0 MSTORE PUSH1 0x32 PUSH1 0x4 MSTORE PUSH1 0x24 PUSH1 0x0 REVERT JUMPDEST PUSH1 0x0 JUMPDEST DUP4 DUP2 LT ISZERO PUSH3 0x986 JUMPI DUP2 DUP2 ADD MLOAD DUP4 DUP3 ADD MSTORE PUSH1 0x20 ADD PUSH3 0x96C JUMP JUMPDEST DUP4 DUP2 GT ISZERO PUSH3 0x996 JUMPI PUSH1 0x0 DUP5 DUP5 ADD MSTORE JUMPDEST POP POP POP POP JUMP JUMPDEST PUSH1 0x0 DUP4 MLOAD PUSH3 0x9B0 DUP2 DUP5 PUSH1 0x20 DUP9 ADD PUSH3 0x969 JUMP JUMPDEST PUSH1 0x1 PUSH1 0xFD SHL SWAP1 DUP4 ADD SWAP1 DUP2 MSTORE DUP4 MLOAD PUSH3 0x9D0 DUP2 PUSH1 0x1 DUP5 ADD PUSH1 0x20 DUP9 ADD PUSH3 0x969 JUMP JUMPDEST ADD PUSH1 0x1 ADD SWAP5 SWAP4 POP POP POP POP JUMP JUMPDEST PUSH1 0x20 DUP1 DUP3 MSTORE PUSH1 0x32 SWAP1 DUP3 ADD MSTORE PUSH32 0x4552433732313A207472616E7366657220746F206E6F6E204552433732315265 PUSH1 0x40 DUP3 ADD MSTORE PUSH18 0x31B2B4BB32B91034B6B83632B6B2B73A32B9 PUSH1 0x71 SHL PUSH1 0x60 DUP3 ADD MSTORE PUSH1 0x80 ADD SWAP1 JUMP JUMPDEST PUSH1 0x0 PUSH1 0x1 DUP1 PUSH1 0xA0 SHL SUB DUP1 DUP8 AND DUP4 MSTORE DUP1 DUP7 AND PUSH1 0x20 DUP5 ADD MSTORE POP DUP4 PUSH1 0x40 DUP4 ADD MSTORE PUSH1 0x80 PUSH1 0x60 DUP4 ADD MSTORE DUP3 MLOAD DUP1 PUSH1 0x80 DUP5 ADD MSTORE PUSH3 0xA6D DUP2 PUSH1 0xA0 DUP6 ADD PUSH1 0x20 DUP8 ADD PUSH3 0x969 JUMP JUMPDEST PUSH1 0x1F ADD PUSH1 0x1F NOT AND SWAP2 SWAP1 SWAP2 ADD PUSH1 0xA0 ADD SWAP6 SWAP5 POP POP POP POP POP JUMP JUMPDEST PUSH1 0x0 PUSH1 0x20 DUP3 DUP5 SUB SLT ISZERO PUSH3 0xA97 JUMPI PUSH1 0x0 DUP1 REVERT JUMPDEST DUP2 MLOAD PUSH1 0x1 PUSH1 0x1 PUSH1 0xE0 SHL SUB NOT DUP2 AND DUP2 EQ PUSH3 0xAB0 JUMPI PUSH1 0x0 DUP1 REVERT JUMPDEST SWAP4 SWAP3 POP POP POP JUMP JUMPDEST PUSH1 0x1 DUP2 DUP2 SHR SWAP1 DUP3 AND DUP1 PUSH3 0xACC JUMPI PUSH1 0x7F DUP3 AND SWAP2 POP JUMPDEST PUSH1 0x20 DUP3 LT DUP2 SUB PUSH3 0xAED JUMPI PUSH4 0x4E487B71 PUSH1 0xE0 SHL PUSH1 0x0 MSTORE PUSH1 0x22 PUSH1 0x4 MSTORE PUSH1 0x24 PUSH1 0x0 REVERT JUMPDEST POP SWAP2 SWAP1 POP JUMP JUMPDEST PUSH2 0x3807 DUP1 PUSH3 0xB03 PUSH1 0x0 CODECOPY PUSH1 0x0 RETURN INVALID PUSH1 0x80 PUSH1 0x40 MSTORE PUSH1 0x4 CALLDATASIZE LT PUSH2 0x167 JUMPI PUSH1 0x0 CALLDATALOAD PUSH1 0xE0 SHR DUP1 PUSH3 0x75F5D5 EQ PUSH2 0x16C JUMPI DUP1 PUSH4 0x1FFC9A7 EQ PUSH2 0x18E JUMPI DUP1 PUSH4 0x6D5EE54 EQ PUSH2 0x1C3 JUMPI DUP1 PUSH4 0x6FDDE03 EQ PUSH2 0x1D8 JUMPI DUP1 PUSH4 0x81812FC EQ PUSH2 0x1FA JUMPI DUP1 PUSH4 0x95EA7B3 EQ PUSH2 0x227 JUMPI DUP1 PUSH4 0xBC09CFE EQ PUSH2 0x247 JUMPI DUP1 PUSH4 0x12065FE0 EQ PUSH2 0x25A JUMPI DUP1 PUSH4 0x23B872DD EQ PUSH2 0x277 JUMPI DUP1 PUSH4 0x3A178D99 EQ PUSH2 0x297 JUMPI DUP1 PUSH4 0x3E0FB267 EQ PUSH2 0x2B7 JUMPI DUP1 PUSH4 0x42842E0E EQ PUSH2 0x2D7 JUMPI DUP1 PUSH4 0x6352211E EQ PUSH2 0x2F7 JUMPI DUP1 PUSH4 0x642F5818 EQ PUSH2 0x317 JUMPI DUP1 PUSH4 0x676C902F EQ PUSH2 0x344 JUMPI DUP1 PUSH4 0x6FD09816 EQ PUSH2 0x366 JUMPI DUP1 PUSH4 0x70A08231 EQ PUSH2 0x37B JUMPI DUP1 PUSH4 0x7DC379FA EQ PUSH2 0x39B JUMPI DUP1 PUSH4 0x7E40BE66 EQ PUSH2 0x3C8 JUMPI DUP1 PUSH4 0x82F68DC4 EQ PUSH2 0x3DE JUMPI DUP1 PUSH4 0x84350E1D EQ PUSH2 0x3FE JUMPI DUP1 PUSH4 0x95D89B41 EQ PUSH2 0x413 JUMPI DUP1 PUSH4 0xA0712D68 EQ PUSH2 0x428 JUMPI DUP1 PUSH4 0xA22CB465 EQ PUSH2 0x448 JUMPI DUP1 PUSH4 0xB88D4FDE EQ PUSH2 0x468 JUMPI DUP1 PUSH4 0xBD85948C EQ PUSH2 0x488 JUMPI DUP1 PUSH4 0xC87B56DD EQ PUSH2 0x49D JUMPI DUP1 PUSH4 0xCB4C2E9E EQ PUSH2 0x4BD JUMPI DUP1 PUSH4 0xE985E9C5 EQ PUSH2 0x4DD JUMPI DUP1 PUSH4 0xEDCEFA60 EQ PUSH2 0x4FD JUMPI DUP1 PUSH4 0xF6BE71D1 EQ PUSH2 0x51D JUMPI JUMPDEST PUSH1 0x0 DUP1 REVERT JUMPDEST CALLVALUE DUP1 ISZERO PUSH2 0x178 JUMPI PUSH1 0x0 DUP1 REVERT JUMPDEST POP PUSH2 0x18C PUSH2 0x187 CALLDATASIZE PUSH1 0x4 PUSH2 0x2EB5 JUMP JUMPDEST PUSH2 0x53D JUMP JUMPDEST STOP JUMPDEST CALLVALUE DUP1 ISZERO PUSH2 0x19A JUMPI PUSH1 0x0 DUP1 REVERT JUMPDEST POP PUSH2 0x1AE PUSH2 0x1A9 CALLDATASIZE PUSH1 0x4 PUSH2 0x2EE4 JUMP JUMPDEST PUSH2 0x5A2 JUMP JUMPDEST PUSH1 0x40 MLOAD SWAP1 ISZERO ISZERO DUP2 MSTORE PUSH1 0x20 ADD JUMPDEST PUSH1 0x40 MLOAD DUP1 SWAP2 SUB SWAP1 RETURN JUMPDEST CALLVALUE DUP1 ISZERO PUSH2 0x1CF JUMPI PUSH1 0x0 DUP1 REVERT JUMPDEST POP PUSH2 0x1AE PUSH2 0x5F4 JUMP JUMPDEST CALLVALUE DUP1 ISZERO PUSH2 0x1E4 JUMPI PUSH1 0x0 DUP1 REVERT JUMPDEST POP PUSH2 0x1ED PUSH2 0x876 JUMP JUMPDEST PUSH1 0x40 MLOAD PUSH2 0x1BA SWAP2 SWAP1 PUSH2 0x2F59 JUMP JUMPDEST CALLVALUE DUP1 ISZERO PUSH2 0x206 JUMPI PUSH1 0x0 DUP1 REVERT JUMPDEST POP PUSH2 0x21A PUSH2 0x215 CALLDATASIZE PUSH1 0x4 PUSH2 0x2EB5 JUMP JUMPDEST PUSH2 0x908 JUMP JUMPDEST PUSH1 0x40 MLOAD PUSH2 0x1BA SWAP2 SWAP1 PUSH2 0x2F6C JUMP JUMPDEST CALLVALUE DUP1 ISZERO PUSH2 0x233 JUMPI PUSH1 0x0 DUP1 REVERT JUMPDEST POP PUSH2 0x18C PUSH2 0x242 CALLDATASIZE PUSH1 0x4 PUSH2 0x2F97 JUMP JUMPDEST PUSH2 0x990 JUMP JUMPDEST PUSH2 0x1AE PUSH2 0x255 CALLDATASIZE PUSH1 0x4 PUSH2 0x302F JUMP JUMPDEST PUSH2 0xAA0 JUMP JUMPDEST CALLVALUE DUP1 ISZERO PUSH2 0x266 JUMPI PUSH1 0x0 DUP1 REVERT JUMPDEST POP SELFBALANCE JUMPDEST PUSH1 0x40 MLOAD SWAP1 DUP2 MSTORE PUSH1 0x20 ADD PUSH2 0x1BA JUMP JUMPDEST CALLVALUE DUP1 ISZERO PUSH2 0x283 JUMPI PUSH1 0x0 DUP1 REVERT JUMPDEST POP PUSH2 0x18C PUSH2 0x292 CALLDATASIZE PUSH1 0x4 PUSH2 0x311B JUMP JUMPDEST PUSH2 0x10D6 JUMP JUMPDEST CALLVALUE DUP1 ISZERO PUSH2 0x2A3 JUMPI PUSH1 0x0 DUP1 REVERT JUMPDEST POP PUSH2 0x1AE PUSH2 0x2B2 CALLDATASIZE PUSH1 0x4 PUSH2 0x2EB5 JUMP JUMPDEST PUSH2 0x1107 JUMP JUMPDEST CALLVALUE DUP1 ISZERO PUSH2 0x2C3 JUMPI PUSH1 0x0 DUP1 REVERT JUMPDEST POP PUSH2 0x1ED PUSH2 0x2D2 CALLDATASIZE PUSH1 0x4 PUSH2 0x2EB5 JUMP JUMPDEST PUSH2 0x1187 JUMP JUMPDEST CALLVALUE DUP1 ISZERO PUSH2 0x2E3 JUMPI PUSH1 0x0 DUP1 REVERT JUMPDEST POP PUSH2 0x18C PUSH2 0x2F2 CALLDATASIZE PUSH1 0x4 PUSH2 0x311B JUMP JUMPDEST PUSH2 0x1286 JUMP JUMPDEST CALLVALUE DUP1 ISZERO PUSH2 0x303 JUMPI PUSH1 0x0 DUP1 REVERT JUMPDEST POP PUSH2 0x21A PUSH2 0x312 CALLDATASIZE PUSH1 0x4 PUSH2 0x2EB5 JUMP JUMPDEST PUSH2 0x12A1 JUMP JUMPDEST CALLVALUE DUP1 ISZERO PUSH2 0x323 JUMPI PUSH1 0x0 DUP1 REVERT JUMPDEST POP PUSH2 0x337 PUSH2 0x332 CALLDATASIZE PUSH1 0x4 PUSH2 0x2EB5 JUMP JUMPDEST PUSH2 0x1318 JUMP JUMPDEST PUSH1 0x40 MLOAD PUSH2 0x1BA SWAP2 SWAP1 PUSH2 0x3157 JUMP JUMPDEST CALLVALUE DUP1 ISZERO PUSH2 0x350 JUMPI PUSH1 0x0 DUP1 REVERT JUMPDEST POP PUSH2 0x359 PUSH2 0x137A JUMP JUMPDEST PUSH1 0x40 MLOAD PUSH2 0x1BA SWAP2 SWAP1 PUSH2 0x31BE JUMP JUMPDEST CALLVALUE DUP1 ISZERO PUSH2 0x372 JUMPI PUSH1 0x0 DUP1 REVERT JUMPDEST POP PUSH2 0x18C PUSH2 0x1592 JUMP JUMPDEST CALLVALUE DUP1 ISZERO PUSH2 0x387 JUMPI PUSH1 0x0 DUP1 REVERT JUMPDEST POP PUSH2 0x269 PUSH2 0x396 CALLDATASIZE PUSH1 0x4 PUSH2 0x31CC JUMP JUMPDEST PUSH2 0x176B JUMP JUMPDEST CALLVALUE DUP1 ISZERO PUSH2 0x3A7 JUMPI PUSH1 0x0 DUP1 REVERT JUMPDEST POP PUSH2 0x3BB PUSH2 0x3B6 CALLDATASIZE PUSH1 0x4 PUSH2 0x2EB5 JUMP JUMPDEST PUSH2 0x17F2 JUMP JUMPDEST PUSH1 0x40 MLOAD PUSH2 0x1BA SWAP2 SWAP1 PUSH2 0x31E7 JUMP JUMPDEST CALLVALUE DUP1 ISZERO PUSH2 0x3D4 JUMPI PUSH1 0x0 DUP1 REVERT JUMPDEST POP PUSH2 0x269 PUSH1 0xB SLOAD DUP2 JUMP JUMPDEST CALLVALUE DUP1 ISZERO PUSH2 0x3EA JUMPI PUSH1 0x0 DUP1 REVERT JUMPDEST POP PUSH2 0x269 PUSH2 0x3F9 CALLDATASIZE PUSH1 0x4 PUSH2 0x2EB5 JUMP JUMPDEST PUSH2 0x1887 JUMP JUMPDEST CALLVALUE DUP1 ISZERO PUSH2 0x40A JUMPI PUSH1 0x0 DUP1 REVERT JUMPDEST POP PUSH2 0x359 PUSH2 0x18E8 JUMP JUMPDEST CALLVALUE DUP1 ISZERO PUSH2 0x41F JUMPI PUSH1 0x0 DUP1 REVERT JUMPDEST POP PUSH2 0x1ED PUSH2 0x1923 JUMP JUMPDEST CALLVALUE DUP1 ISZERO PUSH2 0x434 JUMPI PUSH1 0x0 DUP1 REVERT JUMPDEST POP PUSH2 0x1AE PUSH2 0x443 CALLDATASIZE PUSH1 0x4 PUSH2 0x2EB5 JUMP JUMPDEST PUSH2 0x1932 JUMP JUMPDEST CALLVALUE DUP1 ISZERO PUSH2 0x454 JUMPI PUSH1 0x0 DUP1 REVERT JUMPDEST POP PUSH2 0x18C PUSH2 0x463 CALLDATASIZE PUSH1 0x4 PUSH2 0x3212 JUMP JUMPDEST PUSH2 0x19E4 JUMP JUMPDEST CALLVALUE DUP1 ISZERO PUSH2 0x474 JUMPI PUSH1 0x0 DUP1 REVERT JUMPDEST POP PUSH2 0x18C PUSH2 0x483 CALLDATASIZE PUSH1 0x4 PUSH2 0x324E JUMP JUMPDEST PUSH2 0x19F3 JUMP JUMPDEST CALLVALUE DUP1 ISZERO PUSH2 0x494 JUMPI PUSH1 0x0 DUP1 REVERT JUMPDEST POP PUSH2 0x1AE PUSH2 0x1A2B JUMP JUMPDEST CALLVALUE DUP1 ISZERO PUSH2 0x4A9 JUMPI PUSH1 0x0 DUP1 REVERT JUMPDEST POP PUSH2 0x1ED PUSH2 0x4B8 CALLDATASIZE PUSH1 0x4 PUSH2 0x2EB5 JUMP JUMPDEST PUSH2 0x1BBF JUMP JUMPDEST CALLVALUE DUP1 ISZERO PUSH2 0x4C9 JUMPI PUSH1 0x0 DUP1 REVERT JUMPDEST POP PUSH2 0x269 PUSH2 0x4D8 CALLDATASIZE PUSH1 0x4 PUSH2 0x2EB5 JUMP JUMPDEST PUSH2 0x1C97 JUMP JUMPDEST CALLVALUE DUP1 ISZERO PUSH2 0x4E9 JUMPI PUSH1 0x0 DUP1 REVERT JUMPDEST POP PUSH2 0x1AE PUSH2 0x4F8 CALLDATASIZE PUSH1 0x4 PUSH2 0x330D JUMP JUMPDEST PUSH2 0x1CAE JUMP JUMPDEST CALLVALUE DUP1 ISZERO PUSH2 0x509 JUMPI PUSH1 0x0 DUP1 REVERT JUMPDEST POP PUSH2 0x18C PUSH2 0x518 CALLDATASIZE PUSH1 0x4 PUSH2 0x31CC JUMP JUMPDEST PUSH2 0x1CDC JUMP JUMPDEST CALLVALUE DUP1 ISZERO PUSH2 0x529 JUMPI PUSH1 0x0 DUP1 REVERT JUMPDEST POP PUSH2 0x18C PUSH2 0x538 CALLDATASIZE PUSH1 0x4 PUSH2 0x2EB5 JUMP JUMPDEST PUSH2 0x1D76 JUMP JUMPDEST PUSH1 0x15 SLOAD PUSH1 0x1 PUSH1 0x1 PUSH1 0xA0 SHL SUB AND CALLER EQ PUSH2 0x570 JUMPI PUSH1 0x40 MLOAD PUSH3 0x461BCD PUSH1 0xE5 SHL DUP2 MSTORE PUSH1 0x4 ADD PUSH2 0x567 SWAP1 PUSH2 0x3340 JUMP JUMPDEST PUSH1 0x40 MLOAD DUP1 SWAP2 SUB SWAP1 REVERT JUMPDEST PUSH1 0xC SLOAD ISZERO DUP1 PUSH2 0x581 JUMPI POP PUSH1 0xA SLOAD PUSH1 0xFF AND JUMPDEST PUSH2 0x59D JUMPI PUSH1 0x40 MLOAD PUSH3 0x461BCD PUSH1 0xE5 SHL DUP2 MSTORE PUSH1 0x4 ADD PUSH2 0x567 SWAP1 PUSH2 0x3364 JUMP JUMPDEST PUSH1 0xB SSTORE JUMP JUMPDEST PUSH1 0x0 PUSH1 0x1 PUSH1 0x1 PUSH1 0xE0 SHL SUB NOT DUP3 AND PUSH4 0x80AC58CD PUSH1 0xE0 SHL EQ DUP1 PUSH2 0x5D3 JUMPI POP PUSH1 0x1 PUSH1 0x1 PUSH1 0xE0 SHL SUB NOT DUP3 AND PUSH4 0x5B5E139F PUSH1 0xE0 SHL EQ JUMPDEST DUP1 PUSH2 0x5EE JUMPI POP PUSH4 0x1FFC9A7 PUSH1 0xE0 SHL PUSH1 0x1 PUSH1 0x1 PUSH1 0xE0 SHL SUB NOT DUP4 AND EQ JUMPDEST SWAP3 SWAP2 POP POP JUMP JUMPDEST PUSH1 0x15 SLOAD PUSH1 0x0 SWAP1 PUSH1 0x1 PUSH1 0x1 PUSH1 0xA0 SHL SUB AND CALLER EQ PUSH2 0x621 JUMPI PUSH1 0x40 MLOAD PUSH3 0x461BCD PUSH1 0xE5 SHL DUP2 MSTORE PUSH1 0x4 ADD PUSH2 0x567 SWAP1 PUSH2 0x3340 JUMP JUMPDEST PUSH1 0xC SLOAD ISZERO DUP1 ISZERO SWAP1 PUSH2 0x641 JUMPI POP PUSH1 0xE SLOAD PUSH1 0xD SLOAD PUSH2 0x63D SWAP2 SWAP1 PUSH2 0x33B1 JUMP JUMPDEST NUMBER LT ISZERO JUMPDEST DUP1 ISZERO PUSH2 0x650 JUMPI POP PUSH1 0xA SLOAD PUSH1 0xFF AND ISZERO JUMPDEST PUSH2 0x66C JUMPI PUSH1 0x40 MLOAD PUSH3 0x461BCD PUSH1 0xE5 SHL DUP2 MSTORE PUSH1 0x4 ADD PUSH2 0x567 SWAP1 PUSH2 0x33C9 JUMP JUMPDEST PUSH1 0xF SLOAD PUSH1 0x0 SUB PUSH2 0x6BE JUMPI PUSH1 0x40 MLOAD PUSH3 0x461BCD PUSH1 0xE5 SHL DUP2 MSTORE PUSH1 0x20 PUSH1 0x4 DUP3 ADD MSTORE PUSH1 0x1D PUSH1 0x24 DUP3 ADD MSTORE PUSH32 0x77696E6E696E67206E756D62657273206E6F7420647261776E20796574000000 PUSH1 0x44 DUP3 ADD MSTORE PUSH1 0x64 ADD PUSH2 0x567 JUMP JUMPDEST PUSH1 0x0 JUMPDEST PUSH1 0xC SLOAD PUSH1 0x0 SWAP1 DUP2 MSTORE PUSH1 0x19 PUSH1 0x20 MSTORE PUSH1 0x40 SWAP1 KECCAK256 SLOAD DUP2 LT ISZERO PUSH2 0x85A JUMPI PUSH1 0xC SLOAD PUSH1 0x0 SWAP1 DUP2 MSTORE PUSH1 0x19 PUSH1 0x20 MSTORE PUSH1 0x40 DUP2 KECCAK256 DUP1 SLOAD DUP4 SWAP1 DUP2 LT PUSH2 0x6FD JUMPI PUSH2 0x6FD PUSH2 0x33F6 JUMP JUMPDEST PUSH1 0x0 SWAP2 DUP3 MSTORE PUSH1 0x20 DUP1 DUP4 KECCAK256 PUSH1 0x7 SWAP1 SWAP3 MUL SWAP1 SWAP2 ADD SLOAD PUSH1 0xC SLOAD DUP4 MSTORE PUSH1 0x19 SWAP1 SWAP2 MSTORE PUSH1 0x40 DUP3 KECCAK256 DUP1 SLOAD PUSH1 0x1 PUSH1 0x1 PUSH1 0xA0 SHL SUB SWAP1 SWAP3 AND SWAP4 POP PUSH2 0x7A9 SWAP2 DUP6 SWAP1 DUP2 LT PUSH2 0x741 JUMPI PUSH2 0x741 PUSH2 0x33F6 JUMP JUMPDEST PUSH1 0x0 SWAP2 DUP3 MSTORE PUSH1 0x20 SWAP2 DUP3 SWAP1 KECCAK256 PUSH1 0x40 DUP1 MLOAD DUP1 DUP3 ADD DUP3 MSTORE PUSH1 0x7 SWAP1 SWAP4 MUL SWAP1 SWAP2 ADD DUP1 SLOAD PUSH1 0x1 PUSH1 0x1 PUSH1 0xA0 SHL SUB AND DUP4 MSTORE DUP2 MLOAD PUSH1 0xC0 DUP2 ADD SWAP1 SWAP3 MSTORE SWAP2 SWAP3 DUP4 ADD SWAP1 PUSH1 0x1 DUP4 ADD PUSH1 0x6 DUP3 DUP3 DUP3 PUSH1 0x20 MUL DUP3 ADD SWAP2 JUMPDEST DUP2 SLOAD DUP2 MSTORE PUSH1 0x20 ADD SWAP1 PUSH1 0x1 ADD SWAP1 DUP1 DUP4 GT PUSH2 0x788 JUMPI POP POP POP POP POP DUP2 MSTORE POP POP PUSH2 0x1DE1 JUMP JUMPDEST SWAP1 POP DUP1 ISZERO PUSH2 0x850 JUMPI PUSH2 0x7BA DUP2 PUSH2 0x1107 JUMP JUMPDEST ISZERO PUSH2 0x7CF JUMPI PUSH2 0x7C9 DUP3 DUP3 PUSH2 0x1F0F JUMP JUMPDEST POP PUSH2 0x806 JUMP JUMPDEST PUSH1 0x0 DUP1 MLOAD PUSH1 0x20 PUSH2 0x37B2 DUP4 CODECOPY DUP2 MLOAD SWAP2 MSTORE DUP3 DUP3 PUSH1 0x6 SLOAD PUSH1 0x40 MLOAD PUSH2 0x7F2 SWAP4 SWAP3 SWAP2 SWAP1 PUSH2 0x340C JUMP JUMPDEST PUSH1 0x40 MLOAD DUP1 SWAP2 SUB SWAP1 LOG1 PUSH2 0x804 DUP3 DUP3 PUSH2 0x2086 JUMP JUMPDEST POP JUMPDEST PUSH32 0x7D6E17DC1B3ACE82369B27E455B9E362DA3EDB79A7E4839CFB4BFDF5592DB9E3 DUP3 DUP3 PUSH1 0x1 PUSH1 0x6 SLOAD PUSH2 0x838 SWAP2 SWAP1 PUSH2 0x342D JUMP JUMPDEST PUSH1 0x40 MLOAD PUSH2 0x847 SWAP4 SWAP3 SWAP2 SWAP1 PUSH2 0x340C JUMP JUMPDEST PUSH1 0x40 MLOAD DUP1 SWAP2 SUB SWAP1 LOG1 JUMPDEST POP POP PUSH1 0x1 ADD PUSH2 0x6C1 JUMP JUMPDEST POP PUSH1 0xA DUP1 SLOAD PUSH1 0xFF NOT AND PUSH1 0x1 OR SWAP1 SSTORE PUSH2 0x870 PUSH2 0x2131 JUMP JUMPDEST POP PUSH1 0x1 SWAP1 JUMP JUMPDEST PUSH1 0x60 PUSH1 0x0 DUP1 SLOAD PUSH2 0x885 SWAP1 PUSH2 0x3444 JUMP JUMPDEST DUP1 PUSH1 0x1F ADD PUSH1 0x20 DUP1 SWAP2 DIV MUL PUSH1 0x20 ADD PUSH1 0x40 MLOAD SWAP1 DUP2 ADD PUSH1 0x40 MSTORE DUP1 SWAP3 SWAP2 SWAP1 DUP2 DUP2 MSTORE PUSH1 0x20 ADD DUP3 DUP1 SLOAD PUSH2 0x8B1 SWAP1 PUSH2 0x3444 JUMP JUMPDEST DUP1 ISZERO PUSH2 0x8FE JUMPI DUP1 PUSH1 0x1F LT PUSH2 0x8D3 JUMPI PUSH2 0x100 DUP1 DUP4 SLOAD DIV MUL DUP4 MSTORE SWAP2 PUSH1 0x20 ADD SWAP2 PUSH2 0x8FE JUMP JUMPDEST DUP3 ADD SWAP2 SWAP1 PUSH1 0x0 MSTORE PUSH1 0x20 PUSH1 0x0 KECCAK256 SWAP1 JUMPDEST DUP2 SLOAD DUP2 MSTORE SWAP1 PUSH1 0x1 ADD SWAP1 PUSH1 0x20 ADD DUP1 DUP4 GT PUSH2 0x8E1 JUMPI DUP3 SWAP1 SUB PUSH1 0x1F AND DUP3 ADD SWAP2 JUMPDEST POP POP POP POP POP SWAP1 POP SWAP1 JUMP JUMPDEST PUSH1 0x0 PUSH2 0x913 DUP3 PUSH2 0x21B4 JUMP JUMPDEST PUSH2 0x974 JUMPI PUSH1 0x40 MLOAD PUSH3 0x461BCD PUSH1 0xE5 SHL DUP2 MSTORE PUSH1 0x20 PUSH1 0x4 DUP3 ADD MSTORE PUSH1 0x2C PUSH1 0x24 DUP3 ADD MSTORE PUSH32 0x4552433732313A20617070726F76656420717565727920666F72206E6F6E6578 PUSH1 0x44 DUP3 ADD MSTORE PUSH12 0x34B9BA32B73A103A37B5B2B7 PUSH1 0xA1 SHL PUSH1 0x64 DUP3 ADD MSTORE PUSH1 0x84 ADD PUSH2 0x567 JUMP JUMPDEST POP PUSH1 0x0 SWAP1 DUP2 MSTORE PUSH1 0x4 PUSH1 0x20 MSTORE PUSH1 0x40 SWAP1 KECCAK256 SLOAD PUSH1 0x1 PUSH1 0x1 PUSH1 0xA0 SHL SUB AND SWAP1 JUMP JUMPDEST PUSH1 0x0 PUSH2 0x99B DUP3 PUSH2 0x12A1 JUMP JUMPDEST SWAP1 POP DUP1 PUSH1 0x1 PUSH1 0x1 PUSH1 0xA0 SHL SUB AND DUP4 PUSH1 0x1 PUSH1 0x1 PUSH1 0xA0 SHL SUB AND SUB PUSH2 0xA08 JUMPI PUSH1 0x40 MLOAD PUSH3 0x461BCD PUSH1 0xE5 SHL DUP2 MSTORE PUSH1 0x20 PUSH1 0x4 DUP3 ADD MSTORE PUSH1 0x21 PUSH1 0x24 DUP3 ADD MSTORE PUSH32 0x4552433732313A20617070726F76616C20746F2063757272656E74206F776E65 PUSH1 0x44 DUP3 ADD MSTORE PUSH1 0x39 PUSH1 0xF9 SHL PUSH1 0x64 DUP3 ADD MSTORE PUSH1 0x84 ADD PUSH2 0x567 JUMP JUMPDEST CALLER PUSH1 0x1 PUSH1 0x1 PUSH1 0xA0 SHL SUB DUP3 AND EQ DUP1 PUSH2 0xA24 JUMPI POP PUSH2 0xA24 DUP2 CALLER PUSH2 0x1CAE JUMP JUMPDEST PUSH2 0xA91 JUMPI PUSH1 0x40 MLOAD PUSH3 0x461BCD PUSH1 0xE5 SHL DUP2 MSTORE PUSH1 0x20 PUSH1 0x4 DUP3 ADD MSTORE PUSH1 0x38 PUSH1 0x24 DUP3 ADD MSTORE PUSH32 0x4552433732313A20617070726F76652063616C6C6572206973206E6F74206F77 PUSH1 0x44 DUP3 ADD MSTORE PUSH24 0x1B995C881B9BDC88185C1C1C9BDD995908199BDC88185B1B PUSH1 0x42 SHL PUSH1 0x64 DUP3 ADD MSTORE PUSH1 0x84 ADD PUSH2 0x567 JUMP JUMPDEST PUSH2 0xA9B DUP4 DUP4 PUSH2 0x21D1 JUMP JUMPDEST POP POP POP JUMP JUMPDEST PUSH1 0x0 PUSH1 0xC SLOAD PUSH1 0x0 EQ ISZERO DUP1 ISZERO PUSH2 0xAC3 JUMPI POP PUSH1 0xE SLOAD PUSH1 0xD SLOAD PUSH2 0xAC0 SWAP2 SWAP1 PUSH2 0x33B1 JUMP JUMPDEST NUMBER LT JUMPDEST PUSH2 0xB03 JUMPI PUSH1 0x40 MLOAD PUSH3 0x461BCD PUSH1 0xE5 SHL DUP2 MSTORE PUSH1 0x20 PUSH1 0x4 DUP3 ADD MSTORE PUSH1 0x11 PUSH1 0x24 DUP3 ADD MSTORE PUSH17 0x61637469766520726F756E64206F6E6C79 PUSH1 0x78 SHL PUSH1 0x44 DUP3 ADD MSTORE PUSH1 0x64 ADD PUSH2 0x567 JUMP JUMPDEST DUP2 MLOAD PUSH1 0xB SLOAD PUSH1 0x0 SWAP1 PUSH2 0xB16 SWAP1 DUP4 SWAP1 PUSH2 0x347E JUMP JUMPDEST SWAP1 POP DUP1 CALLVALUE LT ISZERO PUSH2 0xB5F JUMPI PUSH1 0x40 MLOAD PUSH3 0x461BCD PUSH1 0xE5 SHL DUP2 MSTORE PUSH1 0x20 PUSH1 0x4 DUP3 ADD MSTORE PUSH1 0x14 PUSH1 0x24 DUP3 ADD MSTORE PUSH20 0xDAE6CE5CECC2D8EACA40DCDEE840CADCDEEACED PUSH1 0x63 SHL PUSH1 0x44 DUP3 ADD MSTORE PUSH1 0x64 ADD PUSH2 0x567 JUMP JUMPDEST PUSH1 0x0 JUMPDEST DUP3 DUP2 LT ISZERO PUSH2 0x1047 JUMPI PUSH1 0x0 DUP6 DUP3 DUP2 MLOAD DUP2 LT PUSH2 0xB7E JUMPI PUSH2 0xB7E PUSH2 0x33F6 JUMP JUMPDEST PUSH1 0x20 MUL PUSH1 0x20 ADD ADD MLOAD PUSH1 0x0 PUSH1 0x6 DUP2 LT PUSH2 0xB98 JUMPI PUSH2 0xB98 PUSH2 0x33F6 JUMP JUMPDEST PUSH1 0x20 MUL ADD MLOAD GT DUP1 ISZERO PUSH2 0xBDA JUMPI POP PUSH1 0x46 DUP6 DUP3 DUP2 MLOAD DUP2 LT PUSH2 0xBB9 JUMPI PUSH2 0xBB9 PUSH2 0x33F6 JUMP JUMPDEST PUSH1 0x20 MUL PUSH1 0x20 ADD ADD MLOAD PUSH1 0x0 PUSH1 0x6 DUP2 LT PUSH2 0xBD3 JUMPI PUSH2 0xBD3 PUSH2 0x33F6 JUMP JUMPDEST PUSH1 0x20 MUL ADD MLOAD LT JUMPDEST PUSH2 0xBF6 JUMPI PUSH1 0x40 MLOAD PUSH3 0x461BCD PUSH1 0xE5 SHL DUP2 MSTORE PUSH1 0x4 ADD PUSH2 0x567 SWAP1 PUSH2 0x349D JUMP JUMPDEST PUSH1 0x0 DUP6 DUP3 DUP2 MLOAD DUP2 LT PUSH2 0xC0A JUMPI PUSH2 0xC0A PUSH2 0x33F6 JUMP JUMPDEST PUSH1 0x20 MUL PUSH1 0x20 ADD ADD MLOAD PUSH1 0x1 PUSH1 0x6 DUP2 LT PUSH2 0xC24 JUMPI PUSH2 0xC24 PUSH2 0x33F6 JUMP JUMPDEST PUSH1 0x20 MUL ADD MLOAD GT DUP1 ISZERO PUSH2 0xC66 JUMPI POP PUSH1 0x46 DUP6 DUP3 DUP2 MLOAD DUP2 LT PUSH2 0xC45 JUMPI PUSH2 0xC45 PUSH2 0x33F6 JUMP JUMPDEST PUSH1 0x20 MUL PUSH1 0x20 ADD ADD MLOAD PUSH1 0x1 PUSH1 0x6 DUP2 LT PUSH2 0xC5F JUMPI PUSH2 0xC5F PUSH2 0x33F6 JUMP JUMPDEST PUSH1 0x20 MUL ADD MLOAD LT JUMPDEST PUSH2 0xC82 JUMPI PUSH1 0x40 MLOAD PUSH3 0x461BCD PUSH1 0xE5 SHL DUP2 MSTORE PUSH1 0x4 ADD PUSH2 0x567 SWAP1 PUSH2 0x349D JUMP JUMPDEST PUSH1 0x0 DUP6 DUP3 DUP2 MLOAD DUP2 LT PUSH2 0xC96 JUMPI PUSH2 0xC96 PUSH2 0x33F6 JUMP JUMPDEST PUSH1 0x20 MUL PUSH1 0x20 ADD ADD MLOAD PUSH1 0x2 PUSH1 0x6 DUP2 LT PUSH2 0xCB0 JUMPI PUSH2 0xCB0 PUSH2 0x33F6 JUMP JUMPDEST PUSH1 0x20 MUL ADD MLOAD GT DUP1 ISZERO PUSH2 0xCF2 JUMPI POP PUSH1 0x46 DUP6 DUP3 DUP2 MLOAD DUP2 LT PUSH2 0xCD1 JUMPI PUSH2 0xCD1 PUSH2 0x33F6 JUMP JUMPDEST PUSH1 0x20 MUL PUSH1 0x20 ADD ADD MLOAD PUSH1 0x2 PUSH1 0x6 DUP2 LT PUSH2 0xCEB JUMPI PUSH2 0xCEB PUSH2 0x33F6 JUMP JUMPDEST PUSH1 0x20 MUL ADD MLOAD LT JUMPDEST PUSH2 0xD0E JUMPI PUSH1 0x40 MLOAD PUSH3 0x461BCD PUSH1 0xE5 SHL DUP2 MSTORE PUSH1 0x4 ADD PUSH2 0x567 SWAP1 PUSH2 0x349D JUMP JUMPDEST PUSH1 0x0 DUP6 DUP3 DUP2 MLOAD DUP2 LT PUSH2 0xD22 JUMPI PUSH2 0xD22 PUSH2 0x33F6 JUMP JUMPDEST PUSH1 0x20 MUL PUSH1 0x20 ADD ADD MLOAD PUSH1 0x3 PUSH1 0x6 DUP2 LT PUSH2 0xD3C JUMPI PUSH2 0xD3C PUSH2 0x33F6 JUMP JUMPDEST PUSH1 0x20 MUL ADD MLOAD GT DUP1 ISZERO PUSH2 0xD7E JUMPI POP PUSH1 0x46 DUP6 DUP3 DUP2 MLOAD DUP2 LT PUSH2 0xD5D JUMPI PUSH2 0xD5D PUSH2 0x33F6 JUMP JUMPDEST PUSH1 0x20 MUL PUSH1 0x20 ADD ADD MLOAD PUSH1 0x3 PUSH1 0x6 DUP2 LT PUSH2 0xD77 JUMPI PUSH2 0xD77 PUSH2 0x33F6 JUMP JUMPDEST PUSH1 0x20 MUL ADD MLOAD LT JUMPDEST PUSH2 0xD9A JUMPI PUSH1 0x40 MLOAD PUSH3 0x461BCD PUSH1 0xE5 SHL DUP2 MSTORE PUSH1 0x4 ADD PUSH2 0x567 SWAP1 PUSH2 0x349D JUMP JUMPDEST PUSH1 0x0 DUP6 DUP3 DUP2 MLOAD DUP2 LT PUSH2 0xDAE JUMPI PUSH2 0xDAE PUSH2 0x33F6 JUMP JUMPDEST PUSH1 0x20 MUL PUSH1 0x20 ADD ADD MLOAD PUSH1 0x4 PUSH1 0x6 DUP2 LT PUSH2 0xDC8 JUMPI PUSH2 0xDC8 PUSH2 0x33F6 JUMP JUMPDEST PUSH1 0x20 MUL ADD MLOAD GT DUP1 ISZERO PUSH2 0xE0A JUMPI POP PUSH1 0x46 DUP6 DUP3 DUP2 MLOAD DUP2 LT PUSH2 0xDE9 JUMPI PUSH2 0xDE9 PUSH2 0x33F6 JUMP JUMPDEST PUSH1 0x20 MUL PUSH1 0x20 ADD ADD MLOAD PUSH1 0x4 PUSH1 0x6 DUP2 LT PUSH2 0xE03 JUMPI PUSH2 0xE03 PUSH2 0x33F6 JUMP JUMPDEST PUSH1 0x20 MUL ADD MLOAD LT JUMPDEST PUSH2 0xE26 JUMPI PUSH1 0x40 MLOAD PUSH3 0x461BCD PUSH1 0xE5 SHL DUP2 MSTORE PUSH1 0x4 ADD PUSH2 0x567 SWAP1 PUSH2 0x349D JUMP JUMPDEST PUSH1 0x0 DUP6 DUP3 DUP2 MLOAD DUP2 LT PUSH2 0xE3A JUMPI PUSH2 0xE3A PUSH2 0x33F6 JUMP JUMPDEST PUSH1 0x20 MUL PUSH1 0x20 ADD ADD MLOAD PUSH1 0x5 PUSH1 0x6 DUP2 LT PUSH2 0xE54 JUMPI PUSH2 0xE54 PUSH2 0x33F6 JUMP JUMPDEST PUSH1 0x20 MUL ADD MLOAD GT DUP1 ISZERO PUSH2 0xE96 JUMPI POP PUSH1 0x1B DUP6 DUP3 DUP2 MLOAD DUP2 LT PUSH2 0xE75 JUMPI PUSH2 0xE75 PUSH2 0x33F6 JUMP JUMPDEST PUSH1 0x20 MUL PUSH1 0x20 ADD ADD MLOAD PUSH1 0x5 PUSH1 0x6 DUP2 LT PUSH2 0xE8F JUMPI PUSH2 0xE8F PUSH2 0x33F6 JUMP JUMPDEST PUSH1 0x20 MUL ADD MLOAD LT JUMPDEST PUSH2 0xEDD JUMPI PUSH1 0x40 MLOAD PUSH3 0x461BCD PUSH1 0xE5 SHL DUP2 MSTORE PUSH1 0x20 PUSH1 0x4 DUP3 ADD MSTORE PUSH1 0x18 PUSH1 0x24 DUP3 ADD MSTORE PUSH24 0x34B73B30B634B2103837BBB2B92130B63610373AB6B132B9 PUSH1 0x41 SHL PUSH1 0x44 DUP3 ADD MSTORE PUSH1 0x64 ADD PUSH2 0x567 JUMP JUMPDEST PUSH2 0xEFF DUP6 DUP3 DUP2 MLOAD DUP2 LT PUSH2 0xEF2 JUMPI PUSH2 0xEF2 PUSH2 0x33F6 JUMP JUMPDEST PUSH1 0x20 MUL PUSH1 0x20 ADD ADD MLOAD PUSH2 0x223F JUMP JUMPDEST ISZERO PUSH2 0xFEC JUMPI PUSH1 0x17 DUP1 SLOAD PUSH1 0x1 DUP2 ADD SWAP1 SWAP2 SSTORE PUSH32 0xC624B66CC0138B8FABC209247F72D758E1CF3343756D543BADBF24212BED8C15 ADD DUP1 SLOAD PUSH1 0x1 PUSH1 0x1 PUSH1 0xA0 SHL SUB NOT AND CALLER SWAP1 DUP2 OR SWAP1 SWAP2 SSTORE PUSH1 0x0 DUP2 DUP2 MSTORE PUSH1 0x18 PUSH1 0x20 SWAP1 DUP2 MSTORE PUSH1 0x40 DUP1 DUP4 KECCAK256 DUP7 SWAP1 SSTORE PUSH1 0xC SLOAD DUP4 MSTORE PUSH1 0x19 DUP3 MSTORE SWAP2 DUP3 SWAP1 KECCAK256 DUP3 MLOAD DUP1 DUP5 ADD SWAP1 SWAP4 MSTORE SWAP3 DUP3 MSTORE DUP8 MLOAD SWAP1 DUP3 ADD SWAP1 DUP9 SWAP1 DUP6 SWAP1 DUP2 LT PUSH2 0xF88 JUMPI PUSH2 0xF88 PUSH2 0x33F6 JUMP JUMPDEST PUSH1 0x20 SWAP1 DUP2 MUL SWAP2 SWAP1 SWAP2 ADD DUP2 ADD MLOAD SWAP1 SWAP2 MSTORE DUP3 SLOAD PUSH1 0x1 DUP1 DUP3 ADD DUP6 SSTORE PUSH1 0x0 SWAP5 DUP6 MSTORE SWAP4 DUP3 SWAP1 KECCAK256 DUP4 MLOAD PUSH1 0x7 SWAP1 SWAP3 MUL ADD DUP1 SLOAD PUSH1 0x1 PUSH1 0x1 PUSH1 0xA0 SHL SUB NOT AND PUSH1 0x1 PUSH1 0x1 PUSH1 0xA0 SHL SUB SWAP1 SWAP3 AND SWAP2 SWAP1 SWAP2 OR DUP2 SSTORE SWAP1 DUP3 ADD MLOAD SWAP2 SWAP3 SWAP1 SWAP2 PUSH2 0xFE4 SWAP2 DUP4 ADD SWAP1 PUSH1 0x6 PUSH2 0x2CF3 JUMP JUMPDEST POP POP POP PUSH2 0x103F JUMP JUMPDEST PUSH32 0xB1FAAD3C81BEE814E0BC56849CC24C878DC2C98E30FD9D04A20C92719A66D720 CALLER DUP7 DUP4 DUP2 MLOAD DUP2 LT PUSH2 0x1020 JUMPI PUSH2 0x1020 PUSH2 0x33F6 JUMP JUMPDEST PUSH1 0x20 MUL PUSH1 0x20 ADD ADD MLOAD PUSH1 0x40 MLOAD PUSH2 0x1036 SWAP3 SWAP2 SWAP1 PUSH2 0x34CE JUMP JUMPDEST PUSH1 0x40 MLOAD DUP1 SWAP2 SUB SWAP1 LOG1 JUMPDEST PUSH1 0x1 ADD PUSH2 0xB62 JUMP JUMPDEST POP DUP1 CALLVALUE GT ISZERO PUSH2 0x108F JUMPI PUSH1 0x0 PUSH2 0x105C DUP3 CALLVALUE PUSH2 0x342D JUMP JUMPDEST PUSH1 0x40 MLOAD SWAP1 SWAP2 POP CALLER SWAP1 DUP3 ISZERO PUSH2 0x8FC MUL SWAP1 DUP4 SWAP1 PUSH1 0x0 DUP2 DUP2 DUP2 DUP6 DUP9 DUP9 CALL SWAP4 POP POP POP POP ISZERO DUP1 ISZERO PUSH2 0x108C JUMPI RETURNDATASIZE PUSH1 0x0 DUP1 RETURNDATACOPY RETURNDATASIZE PUSH1 0x0 REVERT JUMPDEST POP POP JUMPDEST PUSH32 0x61C9DFEA40D7D9157786DA221D50827EFD620B465355369C3EDC403C37749750 CALLER CALLVALUE DUP7 PUSH1 0x40 MLOAD PUSH2 0x10C2 SWAP4 SWAP3 SWAP2 SWAP1 PUSH2 0x34EB JUMP JUMPDEST PUSH1 0x40 MLOAD DUP1 SWAP2 SUB SWAP1 LOG1 PUSH1 0x1 SWAP3 POP POP POP JUMPDEST SWAP2 SWAP1 POP JUMP JUMPDEST PUSH2 0x10E0 CALLER DUP3 PUSH2 0x22B3 JUMP JUMPDEST PUSH2 0x10FC JUMPI PUSH1 0x40 MLOAD PUSH3 0x461BCD PUSH1 0xE5 SHL DUP2 MSTORE PUSH1 0x4 ADD PUSH2 0x567 SWAP1 PUSH2 0x3552 JUMP JUMPDEST PUSH2 0xA9B DUP4 DUP4 DUP4 PUSH2 0x237D JUMP JUMPDEST PUSH1 0x0 DUP1 DUP3 GT DUP1 ISZERO PUSH2 0x1119 JUMPI POP PUSH1 0x8 DUP3 GT ISZERO JUMPDEST PUSH2 0x1162 JUMPI PUSH1 0x40 MLOAD PUSH3 0x461BCD PUSH1 0xE5 SHL DUP2 MSTORE PUSH1 0x20 PUSH1 0x4 DUP3 ADD MSTORE PUSH1 0x1A PUSH1 0x24 DUP3 ADD MSTORE PUSH26 0x717565727920666F72206E6F6E6578697374656E742072616E6B PUSH1 0x30 SHL PUSH1 0x44 DUP3 ADD MSTORE PUSH1 0x64 ADD PUSH2 0x567 JUMP JUMPDEST PUSH1 0x0 DUP3 DUP2 MSTORE PUSH1 0x9 PUSH1 0x20 MSTORE PUSH1 0x40 DUP2 KECCAK256 SLOAD SWAP1 SUB PUSH2 0x117F JUMPI POP PUSH1 0x0 SWAP2 SWAP1 POP JUMP JUMPDEST POP PUSH1 0x1 SWAP2 SWAP1 POP JUMP JUMPDEST PUSH1 0x0 DUP2 DUP2 MSTORE PUSH1 0x8 PUSH1 0x20 MSTORE PUSH1 0x40 DUP2 KECCAK256 DUP1 SLOAD PUSH1 0x60 SWAP3 SWAP2 SWAP1 PUSH2 0x11A5 SWAP1 PUSH2 0x3444 JUMP JUMPDEST DUP1 PUSH1 0x1F ADD PUSH1 0x20 DUP1 SWAP2 DIV MUL PUSH1 0x20 ADD PUSH1 0x40 MLOAD SWAP1 DUP2 ADD PUSH1 0x40 MSTORE DUP1 SWAP3 SWAP2 SWAP1 DUP2 DUP2 MSTORE PUSH1 0x20 ADD DUP3 DUP1 SLOAD PUSH2 0x11D1 SWAP1 PUSH2 0x3444 JUMP JUMPDEST DUP1 ISZERO PUSH2 0x121E JUMPI DUP1 PUSH1 0x1F LT PUSH2 0x11F3 JUMPI PUSH2 0x100 DUP1 DUP4 SLOAD DIV MUL DUP4 MSTORE SWAP2 PUSH1 0x20 ADD SWAP2 PUSH2 0x121E JUMP JUMPDEST DUP3 ADD SWAP2 SWAP1 PUSH1 0x0 MSTORE PUSH1 0x20 PUSH1 0x0 KECCAK256 SWAP1 JUMPDEST DUP2 SLOAD DUP2 MSTORE SWAP1 PUSH1 0x1 ADD SWAP1 PUSH1 0x20 ADD DUP1 DUP4 GT PUSH2 0x1201 JUMPI DUP3 SWAP1 SUB PUSH1 0x1F AND DUP3 ADD SWAP2 JUMPDEST POP POP POP POP POP SWAP1 POP DUP1 MLOAD PUSH1 0x0 SUB PUSH2 0x5EE JUMPI PUSH1 0x40 MLOAD PUSH3 0x461BCD PUSH1 0xE5 SHL DUP2 MSTORE PUSH1 0x20 PUSH1 0x4 DUP3 ADD MSTORE PUSH1 0x27 PUSH1 0x24 DUP3 ADD MSTORE PUSH32 0x6465736372697074696F6E20717565727920666F72206E6F6E6578697374656E PUSH1 0x44 DUP3 ADD MSTORE PUSH7 0x3A103A37B5B2B7 PUSH1 0xC9 SHL PUSH1 0x64 DUP3 ADD MSTORE PUSH1 0x84 ADD PUSH2 0x567 JUMP JUMPDEST PUSH2 0xA9B DUP4 DUP4 DUP4 PUSH1 0x40 MLOAD DUP1 PUSH1 0x20 ADD PUSH1 0x40 MSTORE DUP1 PUSH1 0x0 DUP2 MSTORE POP PUSH2 0x19F3 JUMP JUMPDEST PUSH1 0x0 DUP2 DUP2 MSTORE PUSH1 0x2 PUSH1 0x20 MSTORE PUSH1 0x40 DUP2 KECCAK256 SLOAD PUSH1 0x1 PUSH1 0x1 PUSH1 0xA0 SHL SUB AND DUP1 PUSH2 0x5EE JUMPI PUSH1 0x40 MLOAD PUSH3 0x461BCD PUSH1 0xE5 SHL DUP2 MSTORE PUSH1 0x20 PUSH1 0x4 DUP3 ADD MSTORE PUSH1 0x29 PUSH1 0x24 DUP3 ADD MSTORE PUSH32 0x4552433732313A206F776E657220717565727920666F72206E6F6E6578697374 PUSH1 0x44 DUP3 ADD MSTORE PUSH9 0x32B73A103A37B5B2B7 PUSH1 0xB9 SHL PUSH1 0x64 DUP3 ADD MSTORE PUSH1 0x84 ADD PUSH2 0x567 JUMP JUMPDEST PUSH1 0x0 DUP2 DUP2 MSTORE PUSH1 0x9 PUSH1 0x20 SWAP1 DUP2 MSTORE PUSH1 0x40 SWAP2 DUP3 SWAP1 KECCAK256 DUP1 SLOAD DUP4 MLOAD DUP2 DUP5 MUL DUP2 ADD DUP5 ADD SWAP1 SWAP5 MSTORE DUP1 DUP5 MSTORE PUSH1 0x60 SWAP4 SWAP3 DUP4 ADD DUP3 DUP3 DUP1 ISZERO PUSH2 0x136E JUMPI PUSH1 0x20 MUL DUP3 ADD SWAP2 SWAP1 PUSH1 0x0 MSTORE PUSH1 0x20 PUSH1 0x0 KECCAK256 SWAP1 JUMPDEST DUP2 SLOAD DUP2 MSTORE PUSH1 0x20 ADD SWAP1 PUSH1 0x1 ADD SWAP1 DUP1 DUP4 GT PUSH2 0x135A JUMPI JUMPDEST POP POP POP POP POP SWAP1 POP SWAP2 SWAP1 POP JUMP JUMPDEST PUSH2 0x1382 PUSH2 0x2D31 JUMP JUMPDEST PUSH1 0x15 SLOAD PUSH1 0x1 PUSH1 0x1 PUSH1 0xA0 SHL SUB AND CALLER EQ PUSH2 0x13AC JUMPI PUSH1 0x40 MLOAD PUSH3 0x461BCD PUSH1 0xE5 SHL DUP2 MSTORE PUSH1 0x4 ADD PUSH2 0x567 SWAP1 PUSH2 0x3340 JUMP JUMPDEST PUSH1 0xC SLOAD ISZERO DUP1 ISZERO SWAP1 PUSH2 0x13CC JUMPI POP PUSH1 0xE SLOAD PUSH1 0xD SLOAD PUSH2 0x13C8 SWAP2 SWAP1 PUSH2 0x33B1 JUMP JUMPDEST NUMBER LT ISZERO JUMPDEST DUP1 ISZERO PUSH2 0x13DB JUMPI POP PUSH1 0xA SLOAD PUSH1 0xFF AND ISZERO JUMPDEST PUSH2 0x13F7 JUMPI PUSH1 0x40 MLOAD PUSH3 0x461BCD PUSH1 0xE5 SHL DUP2 MSTORE PUSH1 0x4 ADD PUSH2 0x567 SWAP1 PUSH2 0x33C9 JUMP JUMPDEST PUSH1 0xF SLOAD ISZERO PUSH2 0x143F JUMPI PUSH1 0x40 MLOAD PUSH3 0x461BCD PUSH1 0xE5 SHL DUP2 MSTORE PUSH1 0x20 PUSH1 0x4 DUP3 ADD MSTORE PUSH1 0x15 PUSH1 0x24 DUP3 ADD MSTORE PUSH21 0x373AB6B132B9399030B63932B0B23C90323930BBB7 PUSH1 0x59 SHL PUSH1 0x44 DUP3 ADD MSTORE PUSH1 0x64 ADD PUSH2 0x567 JUMP JUMPDEST PUSH2 0x1447 PUSH2 0x2D31 JUMP JUMPDEST PUSH1 0x0 JUMPDEST PUSH1 0x5 DUP2 LT ISZERO PUSH2 0x1520 JUMPI PUSH1 0x0 PUSH1 0x45 PUSH2 0x1460 DUP4 PUSH2 0x2507 JUMP JUMPDEST PUSH2 0x146A SWAP2 SWAP1 PUSH2 0x35B9 JUMP JUMPDEST PUSH2 0x1475 SWAP1 PUSH1 0x1 PUSH2 0x33B1 JUMP JUMPDEST SWAP1 POP JUMPDEST PUSH1 0x0 DUP2 DUP2 MSTORE PUSH1 0x1A PUSH1 0x20 MSTORE PUSH1 0x40 SWAP1 KECCAK256 SLOAD PUSH1 0xFF AND ISZERO PUSH2 0x14C0 JUMPI PUSH1 0x45 PUSH2 0x14A4 PUSH2 0x149F DUP4 PUSH1 0x7 PUSH2 0x347E JUMP JUMPDEST PUSH2 0x2507 JUMP JUMPDEST PUSH2 0x14AE SWAP2 SWAP1 PUSH2 0x35B9 JUMP JUMPDEST PUSH2 0x14B9 SWAP1 PUSH1 0x1 PUSH2 0x33B1 JUMP JUMPDEST SWAP1 POP PUSH2 0x1478 JUMP JUMPDEST DUP1 DUP4 DUP4 PUSH1 0x6 DUP2 LT PUSH2 0x14D3 JUMPI PUSH2 0x14D3 PUSH2 0x33F6 JUMP JUMPDEST PUSH1 0x20 MUL ADD MSTORE PUSH1 0x1 PUSH1 0x1A PUSH1 0x0 DUP6 DUP6 PUSH1 0x6 DUP2 LT PUSH2 0x14F0 JUMPI PUSH2 0x14F0 PUSH2 0x33F6 JUMP JUMPDEST PUSH1 0x20 SWAP1 DUP2 MUL SWAP2 SWAP1 SWAP2 ADD MLOAD DUP3 MSTORE DUP2 ADD SWAP2 SWAP1 SWAP2 MSTORE PUSH1 0x40 ADD PUSH1 0x0 KECCAK256 DUP1 SLOAD PUSH1 0xFF NOT AND SWAP2 ISZERO ISZERO SWAP2 SWAP1 SWAP2 OR SWAP1 SSTORE POP PUSH1 0x1 ADD PUSH2 0x144A JUMP JUMPDEST POP PUSH1 0x1A PUSH2 0x152D PUSH1 0x5 PUSH2 0x2507 JUMP JUMPDEST PUSH2 0x1537 SWAP2 SWAP1 PUSH2 0x35B9 JUMP JUMPDEST PUSH2 0x1542 SWAP1 PUSH1 0x1 PUSH2 0x33B1 JUMP JUMPDEST PUSH1 0xA0 DUP3 ADD MSTORE PUSH2 0x1554 PUSH1 0xF DUP3 PUSH1 0x6 PUSH2 0x2CF3 JUMP JUMPDEST POP PUSH32 0x3BF059960EAEC20AED6DDF189EF22F6FABDA10667936AD01F15A9D751587E29 PUSH1 0xF PUSH1 0x40 MLOAD PUSH2 0x1585 SWAP2 SWAP1 PUSH2 0x35CD JUMP JUMPDEST PUSH1 0x40 MLOAD DUP1 SWAP2 SUB SWAP1 LOG1 SWAP1 POP SWAP1 JUMP JUMPDEST PUSH1 0x15 SLOAD PUSH1 0x1 PUSH1 0x1 PUSH1 0xA0 SHL SUB AND CALLER EQ PUSH2 0x15BC JUMPI PUSH1 0x40 MLOAD PUSH3 0x461BCD PUSH1 0xE5 SHL DUP2 MSTORE PUSH1 0x4 ADD PUSH2 0x567 SWAP1 PUSH2 0x3340 JUMP JUMPDEST PUSH1 0xA SLOAD PUSH1 0xFF AND PUSH2 0x1718 JUMPI PUSH1 0x0 JUMPDEST PUSH1 0x17 SLOAD DUP2 LT ISZERO PUSH2 0x1716 JUMPI PUSH32 0x412098F8B4BB18EF21312FEFD8A6B513B57C64572D0D0F0AACDA093636C74BDD PUSH1 0x17 DUP3 DUP2 SLOAD DUP2 LT PUSH2 0x1607 JUMPI PUSH2 0x1607 PUSH2 0x33F6 JUMP JUMPDEST SWAP1 PUSH1 0x0 MSTORE PUSH1 0x20 PUSH1 0x0 KECCAK256 ADD PUSH1 0x0 SWAP1 SLOAD SWAP1 PUSH2 0x100 EXP SWAP1 DIV PUSH1 0x1 PUSH1 0x1 PUSH1 0xA0 SHL SUB AND PUSH1 0x18 PUSH1 0x0 PUSH1 0x17 DUP6 DUP2 SLOAD DUP2 LT PUSH2 0x163C JUMPI PUSH2 0x163C PUSH2 0x33F6 JUMP JUMPDEST PUSH1 0x0 SWAP2 DUP3 MSTORE PUSH1 0x20 DUP1 DUP4 KECCAK256 SWAP1 SWAP2 ADD SLOAD PUSH1 0x1 PUSH1 0x1 PUSH1 0xA0 SHL SUB AND DUP4 MSTORE DUP3 ADD SWAP3 SWAP1 SWAP3 MSTORE PUSH1 0x40 SWAP1 DUP2 ADD SWAP1 SWAP2 KECCAK256 SLOAD SWAP1 MLOAD PUSH2 0x1671 SWAP3 SWAP2 SWAP1 PUSH2 0x35FE JUMP JUMPDEST PUSH1 0x40 MLOAD DUP1 SWAP2 SUB SWAP1 LOG1 PUSH1 0x17 DUP2 DUP2 SLOAD DUP2 LT PUSH2 0x168C JUMPI PUSH2 0x168C PUSH2 0x33F6 JUMP JUMPDEST PUSH1 0x0 SWAP2 DUP3 MSTORE PUSH1 0x20 DUP3 KECCAK256 ADD SLOAD PUSH1 0x17 DUP1 SLOAD PUSH1 0x1 PUSH1 0x1 PUSH1 0xA0 SHL SUB SWAP1 SWAP3 AND SWAP3 PUSH2 0x8FC SWAP3 PUSH1 0x18 SWAP3 SWAP1 DUP7 SWAP1 DUP2 LT PUSH2 0x16BF JUMPI PUSH2 0x16BF PUSH2 0x33F6 JUMP JUMPDEST PUSH1 0x0 SWAP2 DUP3 MSTORE PUSH1 0x20 DUP1 DUP4 KECCAK256 SWAP1 SWAP2 ADD SLOAD PUSH1 0x1 PUSH1 0x1 PUSH1 0xA0 SHL SUB AND DUP4 MSTORE DUP3 ADD SWAP3 SWAP1 SWAP3 MSTORE PUSH1 0x40 SWAP1 DUP2 ADD DUP3 KECCAK256 SLOAD SWAP1 MLOAD DUP2 ISZERO SWAP1 SWAP4 MUL SWAP3 SWAP1 SWAP2 DUP2 DUP2 DUP2 DUP6 DUP9 DUP9 CALL SWAP4 POP POP POP POP ISZERO DUP1 ISZERO PUSH2 0x170D JUMPI RETURNDATASIZE PUSH1 0x0 DUP1 RETURNDATACOPY RETURNDATASIZE PUSH1 0x0 REVERT JUMPDEST POP PUSH1 0x1 ADD PUSH2 0x15C9 JUMP JUMPDEST POP JUMPDEST PUSH1 0x16 SLOAD PUSH1 0x40 MLOAD PUSH32 0x66E53903F9F634737500D1427F22BBA2B2070FFABA517F2A9A3493E88D210CAA SWAP2 PUSH2 0x1755 SWAP2 PUSH1 0x1 PUSH1 0x1 PUSH1 0xA0 SHL SUB SWAP1 SWAP2 AND SWAP1 PUSH2 0x2F6C JUMP JUMPDEST PUSH1 0x40 MLOAD DUP1 SWAP2 SUB SWAP1 LOG1 PUSH1 0x16 SLOAD PUSH1 0x1 PUSH1 0x1 PUSH1 0xA0 SHL SUB AND SELFDESTRUCT JUMPDEST PUSH1 0x0 PUSH1 0x1 PUSH1 0x1 PUSH1 0xA0 SHL SUB DUP3 AND PUSH2 0x17D6 JUMPI PUSH1 0x40 MLOAD PUSH3 0x461BCD PUSH1 0xE5 SHL DUP2 MSTORE PUSH1 0x20 PUSH1 0x4 DUP3 ADD MSTORE PUSH1 0x2A PUSH1 0x24 DUP3 ADD MSTORE PUSH32 0x4552433732313A2062616C616E636520717565727920666F7220746865207A65 PUSH1 0x44 DUP3 ADD MSTORE PUSH10 0x726F2061646472657373 PUSH1 0xB0 SHL PUSH1 0x64 DUP3 ADD MSTORE PUSH1 0x84 ADD PUSH2 0x567 JUMP JUMPDEST POP PUSH1 0x1 PUSH1 0x1 PUSH1 0xA0 SHL SUB AND PUSH1 0x0 SWAP1 DUP2 MSTORE PUSH1 0x3 PUSH1 0x20 MSTORE PUSH1 0x40 SWAP1 KECCAK256 SLOAD SWAP1 JUMP JUMPDEST PUSH2 0x17FA PUSH2 0x2D4F JUMP JUMPDEST PUSH1 0xC SLOAD PUSH1 0x0 SWAP1 DUP2 MSTORE PUSH1 0x19 PUSH1 0x20 MSTORE PUSH1 0x40 SWAP1 KECCAK256 DUP1 SLOAD DUP4 SWAP1 DUP2 LT PUSH2 0x181D JUMPI PUSH2 0x181D PUSH2 0x33F6 JUMP JUMPDEST PUSH1 0x0 SWAP2 DUP3 MSTORE PUSH1 0x20 SWAP2 DUP3 SWAP1 KECCAK256 PUSH1 0x40 DUP1 MLOAD DUP1 DUP3 ADD DUP3 MSTORE PUSH1 0x7 SWAP1 SWAP4 MUL SWAP1 SWAP2 ADD DUP1 SLOAD PUSH1 0x1 PUSH1 0x1 PUSH1 0xA0 SHL SUB AND DUP4 MSTORE DUP2 MLOAD PUSH1 0xC0 DUP2 ADD SWAP1 SWAP3 MSTORE SWAP2 SWAP3 DUP4 ADD SWAP1 PUSH1 0x1 DUP4 ADD PUSH1 0x6 DUP3 DUP3 DUP3 PUSH1 0x20 MUL DUP3 ADD SWAP2 JUMPDEST DUP2 SLOAD DUP2 MSTORE PUSH1 0x20 ADD SWAP1 PUSH1 0x1 ADD SWAP1 DUP1 DUP4 GT PUSH2 0x1864 JUMPI POP POP POP POP POP DUP2 MSTORE POP POP SWAP1 POP SWAP2 SWAP1 POP JUMP JUMPDEST PUSH1 0x0 DUP2 DUP2 MSTORE PUSH1 0x8 PUSH1 0x20 MSTORE PUSH1 0x40 DUP2 KECCAK256 PUSH1 0x1 ADD SLOAD DUP1 DUP3 SUB PUSH2 0x5EE JUMPI PUSH1 0x40 MLOAD PUSH3 0x461BCD PUSH1 0xE5 SHL DUP2 MSTORE PUSH1 0x20 PUSH1 0x4 DUP3 ADD DUP2 SWAP1 MSTORE PUSH1 0x24 DUP3 ADD MSTORE PUSH32 0x72616E6B20717565727920666F72206E6F6E6578697374656E7420746F6B656E PUSH1 0x44 DUP3 ADD MSTORE PUSH1 0x64 ADD PUSH2 0x567 JUMP JUMPDEST PUSH2 0x18F0 PUSH2 0x2D31 JUMP JUMPDEST PUSH1 0x40 DUP1 MLOAD PUSH1 0xC0 DUP2 ADD SWAP2 DUP3 SWAP1 MSTORE SWAP1 PUSH1 0xF SWAP1 PUSH1 0x6 SWAP1 DUP3 DUP5 JUMPDEST DUP2 SLOAD DUP2 MSTORE PUSH1 0x20 ADD SWAP1 PUSH1 0x1 ADD SWAP1 DUP1 DUP4 GT PUSH2 0x1906 JUMPI POP POP POP POP POP SWAP1 POP SWAP1 JUMP JUMPDEST PUSH1 0x60 PUSH1 0x1 DUP1 SLOAD PUSH2 0x885 SWAP1 PUSH2 0x3444 JUMP JUMPDEST PUSH1 0x15 SLOAD PUSH1 0x0 SWAP1 PUSH1 0x1 PUSH1 0x1 PUSH1 0xA0 SHL SUB AND CALLER EQ PUSH2 0x195F JUMPI PUSH1 0x40 MLOAD PUSH3 0x461BCD PUSH1 0xE5 SHL DUP2 MSTORE PUSH1 0x4 ADD PUSH2 0x567 SWAP1 PUSH2 0x3340 JUMP JUMPDEST PUSH1 0x0 DUP3 GT DUP1 ISZERO PUSH2 0x1970 JUMPI POP PUSH1 0x8 DUP3 GT ISZERO JUMPDEST PUSH2 0x198C JUMPI PUSH1 0x40 MLOAD PUSH3 0x461BCD PUSH1 0xE5 SHL DUP2 MSTORE PUSH1 0x4 ADD PUSH2 0x567 SWAP1 PUSH2 0x3617 JUMP JUMPDEST PUSH1 0x15 SLOAD PUSH1 0x6 SLOAD PUSH1 0x40 MLOAD PUSH1 0x0 DUP1 MLOAD PUSH1 0x20 PUSH2 0x37B2 DUP4 CODECOPY DUP2 MLOAD SWAP2 MSTORE SWAP3 PUSH2 0x19BD SWAP3 PUSH1 0x1 PUSH1 0x1 PUSH1 0xA0 SHL SUB SWAP1 SWAP2 AND SWAP2 DUP7 SWAP2 SWAP1 PUSH2 0x340C JUMP JUMPDEST PUSH1 0x40 MLOAD DUP1 SWAP2 SUB SWAP1 LOG1 PUSH1 0x15 SLOAD PUSH2 0x19DB SWAP1 PUSH1 0x1 PUSH1 0x1 PUSH1 0xA0 SHL SUB AND DUP4 PUSH2 0x2086 JUMP JUMPDEST POP PUSH1 0x1 SWAP3 SWAP2 POP POP JUMP JUMPDEST PUSH2 0x19EF CALLER DUP4 DUP4 PUSH2 0x2561 JUMP JUMPDEST POP POP JUMP JUMPDEST PUSH2 0x19FD CALLER DUP4 PUSH2 0x22B3 JUMP JUMPDEST PUSH2 0x1A19 JUMPI PUSH1 0x40 MLOAD PUSH3 0x461BCD PUSH1 0xE5 SHL DUP2 MSTORE PUSH1 0x4 ADD PUSH2 0x567 SWAP1 PUSH2 0x3552 JUMP JUMPDEST PUSH2 0x1A25 DUP5 DUP5 DUP5 DUP5 PUSH2 0x262B JUMP JUMPDEST POP POP POP POP JUMP JUMPDEST PUSH1 0x15 SLOAD PUSH1 0x0 SWAP1 PUSH1 0x1 PUSH1 0x1 PUSH1 0xA0 SHL SUB AND CALLER EQ PUSH2 0x1A58 JUMPI PUSH1 0x40 MLOAD PUSH3 0x461BCD PUSH1 0xE5 SHL DUP2 MSTORE PUSH1 0x4 ADD PUSH2 0x567 SWAP1 PUSH2 0x3340 JUMP JUMPDEST PUSH1 0xC SLOAD ISZERO DUP1 PUSH2 0x1A69 JUMPI POP PUSH1 0xA SLOAD PUSH1 0xFF AND JUMPDEST PUSH2 0x1A85 JUMPI PUSH1 0x40 MLOAD PUSH3 0x461BCD PUSH1 0xE5 SHL DUP2 MSTORE PUSH1 0x4 ADD PUSH2 0x567 SWAP1 PUSH2 0x3364 JUMP JUMPDEST NUMBER PUSH1 0xD SSTORE PUSH1 0xA DUP1 SLOAD PUSH1 0xFF NOT AND SWAP1 SSTORE PUSH1 0xC SLOAD PUSH1 0x0 SWAP1 DUP2 MSTORE PUSH1 0x19 PUSH1 0x20 MSTORE PUSH1 0x40 DUP2 KECCAK256 PUSH2 0x1AAD SWAP2 PUSH2 0x2D77 JUMP JUMPDEST PUSH1 0xC DUP1 SLOAD SWAP1 PUSH1 0x0 PUSH2 0x1ABD DUP4 PUSH2 0x364D JUMP JUMPDEST SWAP2 SWAP1 POP SSTORE POP PUSH1 0xC SLOAD PUSH1 0x1 EQ PUSH2 0x1B7C JUMPI PUSH1 0x0 JUMPDEST PUSH1 0x17 SLOAD DUP2 LT ISZERO PUSH2 0x1B1D JUMPI PUSH1 0x18 PUSH1 0x0 PUSH1 0x17 DUP4 DUP2 SLOAD DUP2 LT PUSH2 0x1AF0 JUMPI PUSH2 0x1AF0 PUSH2 0x33F6 JUMP JUMPDEST PUSH1 0x0 SWAP2 DUP3 MSTORE PUSH1 0x20 DUP1 DUP4 KECCAK256 SWAP1 SWAP2 ADD SLOAD PUSH1 0x1 PUSH1 0x1 PUSH1 0xA0 SHL SUB AND DUP4 MSTORE DUP3 ADD SWAP3 SWAP1 SWAP3 MSTORE PUSH1 0x40 ADD DUP2 KECCAK256 SSTORE PUSH1 0x1 ADD PUSH2 0x1ACF JUMP JUMPDEST POP PUSH2 0x1B2A PUSH1 0x17 PUSH1 0x0 PUSH2 0x2D98 JUMP JUMPDEST PUSH1 0x0 JUMPDEST PUSH1 0x5 DUP2 LT ISZERO PUSH2 0x1B6F JUMPI PUSH1 0x1A PUSH1 0x0 PUSH1 0xF DUP4 PUSH1 0x6 DUP2 LT PUSH2 0x1B4D JUMPI PUSH2 0x1B4D PUSH2 0x33F6 JUMP JUMPDEST ADD SLOAD DUP2 MSTORE PUSH1 0x20 DUP2 ADD SWAP2 SWAP1 SWAP2 MSTORE PUSH1 0x40 ADD PUSH1 0x0 KECCAK256 DUP1 SLOAD PUSH1 0xFF NOT AND SWAP1 SSTORE PUSH1 0x1 ADD PUSH2 0x1B2D JUMP JUMPDEST POP PUSH2 0x1B7C PUSH1 0xF PUSH1 0x0 PUSH2 0x2DB6 JUMP JUMPDEST PUSH1 0xC SLOAD PUSH1 0x40 DUP1 MLOAD NUMBER DUP2 MSTORE PUSH1 0x20 DUP2 ADD SWAP3 SWAP1 SWAP3 MSTORE PUSH32 0xC6A72CB9B2E85D4887DCDB8BF75F03CAE1D9E7B5D009E0ED2295E2947A55A55 SWAP2 ADD PUSH1 0x40 MLOAD DUP1 SWAP2 SUB SWAP1 LOG1 POP PUSH1 0x1 SWAP1 JUMP JUMPDEST PUSH1 0x60 PUSH2 0x1BCA DUP3 PUSH2 0x21B4 JUMP JUMPDEST PUSH2 0x1C2E JUMPI PUSH1 0x40 MLOAD PUSH3 0x461BCD PUSH1 0xE5 SHL DUP2 MSTORE PUSH1 0x20 PUSH1 0x4 DUP3 ADD MSTORE PUSH1 0x2F PUSH1 0x24 DUP3 ADD MSTORE PUSH32 0x4552433732314D657461646174613A2055524920717565727920666F72206E6F PUSH1 0x44 DUP3 ADD MSTORE PUSH15 0x3732BC34B9BA32B73A103A37B5B2B7 PUSH1 0x89 SHL PUSH1 0x64 DUP3 ADD MSTORE PUSH1 0x84 ADD PUSH2 0x567 JUMP JUMPDEST PUSH1 0x0 PUSH2 0x1C45 PUSH1 0x40 DUP1 MLOAD PUSH1 0x20 DUP2 ADD SWAP1 SWAP2 MSTORE PUSH1 0x0 DUP2 MSTORE SWAP1 JUMP JUMPDEST SWAP1 POP PUSH1 0x0 DUP2 MLOAD GT PUSH2 0x1C65 JUMPI PUSH1 0x40 MLOAD DUP1 PUSH1 0x20 ADD PUSH1 0x40 MSTORE DUP1 PUSH1 0x0 DUP2 MSTORE POP PUSH2 0x1C90 JUMP JUMPDEST DUP1 PUSH2 0x1C6F DUP5 PUSH2 0x265E JUMP JUMPDEST PUSH1 0x40 MLOAD PUSH1 0x20 ADD PUSH2 0x1C80 SWAP3 SWAP2 SWAP1 PUSH2 0x3666 JUMP JUMPDEST PUSH1 0x40 MLOAD PUSH1 0x20 DUP2 DUP4 SUB SUB DUP2 MSTORE SWAP1 PUSH1 0x40 MSTORE JUMPDEST SWAP4 SWAP3 POP POP POP JUMP JUMPDEST PUSH1 0xF DUP2 PUSH1 0x6 DUP2 LT PUSH2 0x1CA7 JUMPI PUSH1 0x0 DUP1 REVERT JUMPDEST ADD SLOAD SWAP1 POP DUP2 JUMP JUMPDEST PUSH1 0x1 PUSH1 0x1 PUSH1 0xA0 SHL SUB SWAP2 DUP3 AND PUSH1 0x0 SWAP1 DUP2 MSTORE PUSH1 0x5 PUSH1 0x20 SWAP1 DUP2 MSTORE PUSH1 0x40 DUP1 DUP4 KECCAK256 SWAP4 SWAP1 SWAP5 AND DUP3 MSTORE SWAP2 SWAP1 SWAP2 MSTORE KECCAK256 SLOAD PUSH1 0xFF AND SWAP1 JUMP JUMPDEST PUSH1 0x15 SLOAD PUSH1 0x1 PUSH1 0x1 PUSH1 0xA0 SHL SUB AND CALLER EQ PUSH2 0x1D06 JUMPI PUSH1 0x40 MLOAD PUSH3 0x461BCD PUSH1 0xE5 SHL DUP2 MSTORE PUSH1 0x4 ADD PUSH2 0x567 SWAP1 PUSH2 0x3340 JUMP JUMPDEST PUSH1 0x1 PUSH1 0x1 PUSH1 0xA0 SHL SUB DUP2 AND PUSH2 0x1D54 JUMPI PUSH1 0x40 MLOAD PUSH3 0x461BCD PUSH1 0xE5 SHL DUP2 MSTORE PUSH1 0x20 PUSH1 0x4 DUP3 ADD MSTORE PUSH1 0x15 PUSH1 0x24 DUP3 ADD MSTORE PUSH21 0x696E76616C696420656D7074792061646472657373 PUSH1 0x58 SHL PUSH1 0x44 DUP3 ADD MSTORE PUSH1 0x64 ADD PUSH2 0x567 JUMP JUMPDEST PUSH1 0x16 DUP1 SLOAD PUSH1 0x1 PUSH1 0x1 PUSH1 0xA0 SHL SUB NOT AND PUSH1 0x1 PUSH1 0x1 PUSH1 0xA0 SHL SUB SWAP3 SWAP1 SWAP3 AND SWAP2 SWAP1 SWAP2 OR SWAP1 SSTORE JUMP JUMPDEST PUSH1 0x15 SLOAD PUSH1 0x1 PUSH1 0x1 PUSH1 0xA0 SHL SUB AND CALLER EQ PUSH2 0x1DA0 JUMPI PUSH1 0x40 MLOAD PUSH3 0x461BCD PUSH1 0xE5 SHL DUP2 MSTORE PUSH1 0x4 ADD PUSH2 0x567 SWAP1 PUSH2 0x3340 JUMP JUMPDEST PUSH1 0xC SLOAD ISZERO DUP1 PUSH2 0x1DB1 JUMPI POP PUSH1 0xA SLOAD PUSH1 0xFF AND JUMPDEST PUSH2 0x1DCD JUMPI PUSH1 0x40 MLOAD PUSH3 0x461BCD PUSH1 0xE5 SHL DUP2 MSTORE PUSH1 0x4 ADD PUSH2 0x567 SWAP1 PUSH2 0x3364 JUMP JUMPDEST PUSH1 0xE SSTORE JUMP JUMPDEST PUSH1 0x1 PUSH1 0x1 PUSH1 0xA0 SHL SUB AND EXTCODESIZE ISZERO ISZERO SWAP1 JUMP JUMPDEST PUSH1 0x0 DUP1 DUP1 DUP1 DUP1 JUMPDEST PUSH1 0x5 DUP2 LT ISZERO PUSH2 0x1E42 JUMPI PUSH1 0x1A PUSH1 0x0 DUP8 PUSH1 0x20 ADD MLOAD DUP4 PUSH1 0x6 DUP2 LT PUSH2 0x1E0B JUMPI PUSH2 0x1E0B PUSH2 0x33F6 JUMP JUMPDEST PUSH1 0x20 SWAP1 DUP2 MUL SWAP2 SWAP1 SWAP2 ADD MLOAD DUP3 MSTORE DUP2 ADD SWAP2 SWAP1 SWAP2 MSTORE PUSH1 0x40 ADD PUSH1 0x0 KECCAK256 SLOAD PUSH1 0xFF AND ISZERO PUSH2 0x1E3A JUMPI DUP3 PUSH2 0x1E36 DUP2 PUSH2 0x364D JUMP JUMPDEST SWAP4 POP POP JUMPDEST PUSH1 0x1 ADD PUSH2 0x1DE8 JUMP JUMPDEST POP PUSH1 0x14 SLOAD PUSH1 0x20 DUP7 ADD MLOAD PUSH1 0xA0 ADD MLOAD SUB PUSH2 0x1E58 JUMPI POP PUSH1 0x1 JUMPDEST DUP2 PUSH1 0x6 SUB PUSH2 0x1E69 JUMPI PUSH1 0x1 SWAP3 POP PUSH2 0x1F06 JUMP JUMPDEST DUP2 PUSH1 0x5 EQ DUP1 ISZERO PUSH2 0x1E77 JUMPI POP DUP1 ISZERO JUMPDEST ISZERO PUSH2 0x1E85 JUMPI PUSH1 0x2 SWAP3 POP PUSH2 0x1F06 JUMP JUMPDEST DUP2 PUSH1 0x5 EQ DUP1 ISZERO PUSH2 0x1E92 JUMPI POP DUP1 JUMPDEST ISZERO PUSH2 0x1EA0 JUMPI PUSH1 0x3 SWAP3 POP PUSH2 0x1F06 JUMP JUMPDEST DUP2 PUSH1 0x4 SUB PUSH2 0x1EB1 JUMPI PUSH1 0x4 SWAP3 POP PUSH2 0x1F06 JUMP JUMPDEST DUP2 PUSH1 0x3 SUB PUSH2 0x1EC2 JUMPI PUSH1 0x5 SWAP3 POP PUSH2 0x1F06 JUMP JUMPDEST DUP2 PUSH1 0x2 SUB PUSH2 0x1ED3 JUMPI PUSH1 0x6 SWAP3 POP PUSH2 0x1F06 JUMP JUMPDEST DUP2 PUSH1 0x1 EQ DUP1 ISZERO PUSH2 0x1EE1 JUMPI POP DUP1 ISZERO JUMPDEST ISZERO PUSH2 0x1EEF JUMPI PUSH1 0x7 SWAP3 POP PUSH2 0x1F06 JUMP JUMPDEST DUP2 PUSH1 0x1 EQ DUP1 ISZERO PUSH2 0x1EFC JUMPI POP DUP1 JUMPDEST ISZERO PUSH2 0x1F06 JUMPI PUSH1 0x8 SWAP3 POP JUMPDEST POP SWAP1 SWAP4 SWAP3 POP POP POP JUMP JUMPDEST PUSH1 0x0 DUP1 DUP3 GT DUP1 ISZERO PUSH2 0x1F21 JUMPI POP PUSH1 0x8 DUP3 GT ISZERO JUMPDEST PUSH2 0x1F3D JUMPI PUSH1 0x40 MLOAD PUSH3 0x461BCD PUSH1 0xE5 SHL DUP2 MSTORE PUSH1 0x4 ADD PUSH2 0x567 SWAP1 PUSH2 0x3617 JUMP JUMPDEST PUSH1 0x0 DUP3 DUP2 MSTORE PUSH1 0x9 PUSH1 0x20 MSTORE PUSH1 0x40 DUP2 KECCAK256 SLOAD PUSH2 0x1F55 DUP5 PUSH2 0x2507 JUMP JUMPDEST PUSH2 0x1F5F SWAP2 SWAP1 PUSH2 0x35B9 JUMP JUMPDEST PUSH1 0x0 DUP5 DUP2 MSTORE PUSH1 0x9 PUSH1 0x20 MSTORE PUSH1 0x40 DUP2 KECCAK256 DUP1 SLOAD SWAP3 SWAP4 POP SWAP1 SWAP2 DUP4 SWAP1 DUP2 LT PUSH2 0x1F84 JUMPI PUSH2 0x1F84 PUSH2 0x33F6 JUMP JUMPDEST SWAP1 PUSH1 0x0 MSTORE PUSH1 0x20 PUSH1 0x0 KECCAK256 ADD SLOAD SWAP1 POP PUSH1 0x0 PUSH1 0x9 PUSH1 0x0 DUP7 DUP2 MSTORE PUSH1 0x20 ADD SWAP1 DUP2 MSTORE PUSH1 0x20 ADD PUSH1 0x0 KECCAK256 DUP1 SLOAD DUP1 PUSH1 0x20 MUL PUSH1 0x20 ADD PUSH1 0x40 MLOAD SWAP1 DUP2 ADD PUSH1 0x40 MSTORE DUP1 SWAP3 SWAP2 SWAP1 DUP2 DUP2 MSTORE PUSH1 0x20 ADD DUP3 DUP1 SLOAD DUP1 ISZERO PUSH2 0x1FF0 JUMPI PUSH1 0x20 MUL DUP3 ADD SWAP2 SWAP1 PUSH1 0x0 MSTORE PUSH1 0x20 PUSH1 0x0 KECCAK256 SWAP1 JUMPDEST DUP2 SLOAD DUP2 MSTORE PUSH1 0x20 ADD SWAP1 PUSH1 0x1 ADD SWAP1 DUP1 DUP4 GT PUSH2 0x1FDC JUMPI JUMPDEST POP POP POP POP POP SWAP1 POP DUP1 PUSH1 0x1 DUP3 MLOAD PUSH2 0x2006 SWAP2 SWAP1 PUSH2 0x342D JUMP JUMPDEST DUP2 MLOAD DUP2 LT PUSH2 0x2016 JUMPI PUSH2 0x2016 PUSH2 0x33F6 JUMP JUMPDEST PUSH1 0x20 MUL PUSH1 0x20 ADD ADD MLOAD DUP2 DUP5 DUP2 MLOAD DUP2 LT PUSH2 0x2030 JUMPI PUSH2 0x2030 PUSH2 0x33F6 JUMP JUMPDEST PUSH1 0x20 SWAP1 DUP2 MUL SWAP2 SWAP1 SWAP2 ADD DUP2 ADD SWAP2 SWAP1 SWAP2 MSTORE DUP2 MLOAD PUSH1 0x0 NOT ADD DUP3 MSTORE PUSH1 0x0 DUP7 DUP2 MSTORE PUSH1 0x9 DUP3 MSTORE PUSH1 0x40 SWAP1 KECCAK256 DUP3 MLOAD PUSH2 0x2062 SWAP3 DUP5 ADD SWAP1 PUSH2 0x2DC5 JUMP JUMPDEST POP PUSH1 0x7 SLOAD PUSH2 0x207A SWAP1 PUSH1 0x1 PUSH1 0x1 PUSH1 0xA0 SHL SUB AND DUP8 DUP5 PUSH2 0x1286 JUMP JUMPDEST POP PUSH1 0x1 SWAP6 SWAP5 POP POP POP POP POP JUMP JUMPDEST PUSH1 0x0 DUP1 DUP3 GT DUP1 ISZERO PUSH2 0x2098 JUMPI POP PUSH1 0x8 DUP3 GT ISZERO JUMPDEST PUSH2 0x20B4 JUMPI PUSH1 0x40 MLOAD PUSH3 0x461BCD PUSH1 0xE5 SHL DUP2 MSTORE PUSH1 0x4 ADD PUSH2 0x567 SWAP1 PUSH2 0x3617 JUMP JUMPDEST PUSH2 0x20C0 DUP4 PUSH1 0x6 SLOAD PUSH2 0x275E JUMP JUMPDEST PUSH1 0x40 MLOAD DUP1 PUSH1 0x40 ADD PUSH1 0x40 MSTORE DUP1 PUSH2 0x20D6 PUSH1 0x6 SLOAD PUSH2 0x2778 JUMP JUMPDEST DUP2 MSTORE PUSH1 0x20 SWAP1 DUP2 ADD DUP5 SWAP1 MSTORE PUSH1 0x6 SLOAD PUSH1 0x0 SWAP1 DUP2 MSTORE PUSH1 0x8 DUP3 MSTORE PUSH1 0x40 SWAP1 KECCAK256 DUP3 MLOAD DUP1 MLOAD SWAP2 SWAP3 PUSH2 0x2105 SWAP3 DUP5 SWAP3 SWAP1 SWAP2 ADD SWAP1 PUSH2 0x2DFF JUMP JUMPDEST POP PUSH1 0x20 SWAP2 SWAP1 SWAP2 ADD MLOAD PUSH1 0x1 SWAP1 SWAP2 ADD SSTORE PUSH1 0x6 DUP1 SLOAD SWAP1 PUSH1 0x0 PUSH2 0x2123 DUP4 PUSH2 0x364D JUMP JUMPDEST SWAP1 SWAP2 SSTORE POP PUSH1 0x1 SWAP5 SWAP4 POP POP POP POP JUMP JUMPDEST PUSH1 0x16 SLOAD PUSH1 0x40 MLOAD PUSH32 0xB4214C8C54FC7442F36D3682F59AEBAF09358A4431835B30EFB29D52CF9E1E91 SWAP2 PUSH2 0x2170 SWAP2 PUSH1 0x1 PUSH1 0x1 PUSH1 0xA0 SHL SUB SWAP1 SWAP2 AND SWAP1 SELFBALANCE SWAP1 PUSH2 0x35FE JUMP JUMPDEST PUSH1 0x40 MLOAD DUP1 SWAP2 SUB SWAP1 LOG1 PUSH1 0x16 SLOAD PUSH1 0x40 MLOAD PUSH1 0x1 PUSH1 0x1 PUSH1 0xA0 SHL SUB SWAP1 SWAP2 AND SWAP1 SELFBALANCE DUP1 ISZERO PUSH2 0x8FC MUL SWAP2 PUSH1 0x0 DUP2 DUP2 DUP2 DUP6 DUP9 DUP9 CALL SWAP4 POP POP POP POP ISZERO DUP1 ISZERO PUSH2 0x21B1 JUMPI RETURNDATASIZE PUSH1 0x0 DUP1 RETURNDATACOPY RETURNDATASIZE PUSH1 0x0 REVERT JUMPDEST POP JUMP JUMPDEST PUSH1 0x0 SWAP1 DUP2 MSTORE PUSH1 0x2 PUSH1 0x20 MSTORE PUSH1 0x40 SWAP1 KECCAK256 SLOAD PUSH1 0x1 PUSH1 0x1 PUSH1 0xA0 SHL SUB AND ISZERO ISZERO SWAP1 JUMP JUMPDEST PUSH1 0x0 DUP2 DUP2 MSTORE PUSH1 0x4 PUSH1 0x20 MSTORE PUSH1 0x40 SWAP1 KECCAK256 DUP1 SLOAD PUSH1 0x1 PUSH1 0x1 PUSH1 0xA0 SHL SUB NOT AND PUSH1 0x1 PUSH1 0x1 PUSH1 0xA0 SHL SUB DUP5 AND SWAP1 DUP2 OR SWAP1 SWAP2 SSTORE DUP2 SWAP1 PUSH2 0x2206 DUP3 PUSH2 0x12A1 JUMP JUMPDEST PUSH1 0x1 PUSH1 0x1 PUSH1 0xA0 SHL SUB AND PUSH32 0x8C5BE1E5EBEC7D5BD14F71427D1E84F3DD0314C0F7B2291E5B200AC8C7C3B925 PUSH1 0x40 MLOAD PUSH1 0x40 MLOAD DUP1 SWAP2 SUB SWAP1 LOG4 POP POP JUMP JUMPDEST PUSH1 0x0 DUP1 JUMPDEST PUSH1 0x5 DUP2 LT ISZERO PUSH2 0x19DB JUMPI PUSH1 0x0 PUSH2 0x2259 DUP3 PUSH1 0x1 PUSH2 0x33B1 JUMP JUMPDEST SWAP1 POP JUMPDEST PUSH1 0x5 DUP2 LT ISZERO PUSH2 0x22AA JUMPI DUP4 DUP2 PUSH1 0x6 DUP2 LT PUSH2 0x2277 JUMPI PUSH2 0x2277 PUSH2 0x33F6 JUMP JUMPDEST PUSH1 0x20 MUL ADD MLOAD DUP5 DUP4 PUSH1 0x6 DUP2 LT PUSH2 0x228E JUMPI PUSH2 0x228E PUSH2 0x33F6 JUMP JUMPDEST PUSH1 0x20 MUL ADD MLOAD SUB PUSH2 0x22A2 JUMPI POP PUSH1 0x0 SWAP4 SWAP3 POP POP POP JUMP JUMPDEST PUSH1 0x1 ADD PUSH2 0x225C JUMP JUMPDEST POP PUSH1 0x1 ADD PUSH2 0x2243 JUMP JUMPDEST PUSH1 0x0 PUSH2 0x22BE DUP3 PUSH2 0x21B4 JUMP JUMPDEST PUSH2 0x231F JUMPI PUSH1 0x40 MLOAD PUSH3 0x461BCD PUSH1 0xE5 SHL DUP2 MSTORE PUSH1 0x20 PUSH1 0x4 DUP3 ADD MSTORE PUSH1 0x2C PUSH1 0x24 DUP3 ADD MSTORE PUSH32 0x4552433732313A206F70657261746F7220717565727920666F72206E6F6E6578 PUSH1 0x44 DUP3 ADD MSTORE PUSH12 0x34B9BA32B73A103A37B5B2B7 PUSH1 0xA1 SHL PUSH1 0x64 DUP3 ADD MSTORE PUSH1 0x84 ADD PUSH2 0x567 JUMP JUMPDEST PUSH1 0x0 PUSH2 0x232A DUP4 PUSH2 0x12A1 JUMP JUMPDEST SWAP1 POP DUP1 PUSH1 0x1 PUSH1 0x1 PUSH1 0xA0 SHL SUB AND DUP5 PUSH1 0x1 PUSH1 0x1 PUSH1 0xA0 SHL SUB AND EQ DUP1 PUSH2 0x2351 JUMPI POP PUSH2 0x2351 DUP2 DUP6 PUSH2 0x1CAE JUMP JUMPDEST DUP1 PUSH2 0x2375 JUMPI POP DUP4 PUSH1 0x1 PUSH1 0x1 PUSH1 0xA0 SHL SUB AND PUSH2 0x236A DUP5 PUSH2 0x908 JUMP JUMPDEST PUSH1 0x1 PUSH1 0x1 PUSH1 0xA0 SHL SUB AND EQ JUMPDEST SWAP5 SWAP4 POP POP POP POP JUMP JUMPDEST DUP3 PUSH1 0x1 PUSH1 0x1 PUSH1 0xA0 SHL SUB AND PUSH2 0x2390 DUP3 PUSH2 0x12A1 JUMP JUMPDEST PUSH1 0x1 PUSH1 0x1 PUSH1 0xA0 SHL SUB AND EQ PUSH2 0x23F4 JUMPI PUSH1 0x40 MLOAD PUSH3 0x461BCD PUSH1 0xE5 SHL DUP2 MSTORE PUSH1 0x20 PUSH1 0x4 DUP3 ADD MSTORE PUSH1 0x25 PUSH1 0x24 DUP3 ADD MSTORE PUSH32 0x4552433732313A207472616E736665722066726F6D20696E636F727265637420 PUSH1 0x44 DUP3 ADD MSTORE PUSH5 0x37BBB732B9 PUSH1 0xD9 SHL PUSH1 0x64 DUP3 ADD MSTORE PUSH1 0x84 ADD PUSH2 0x567 JUMP JUMPDEST PUSH1 0x1 PUSH1 0x1 PUSH1 0xA0 SHL SUB DUP3 AND PUSH2 0x2456 JUMPI PUSH1 0x40 MLOAD PUSH3 0x461BCD PUSH1 0xE5 SHL DUP2 MSTORE PUSH1 0x20 PUSH1 0x4 DUP3 ADD MSTORE PUSH1 0x24 DUP1 DUP3 ADD MSTORE PUSH32 0x4552433732313A207472616E7366657220746F20746865207A65726F20616464 PUSH1 0x44 DUP3 ADD MSTORE PUSH4 0x72657373 PUSH1 0xE0 SHL PUSH1 0x64 DUP3 ADD MSTORE PUSH1 0x84 ADD PUSH2 0x567 JUMP JUMPDEST PUSH2 0x2461 PUSH1 0x0 DUP3 PUSH2 0x21D1 JUMP JUMPDEST PUSH1 0x1 PUSH1 0x1 PUSH1 0xA0 SHL SUB DUP4 AND PUSH1 0x0 SWAP1 DUP2 MSTORE PUSH1 0x3 PUSH1 0x20 MSTORE PUSH1 0x40 DUP2 KECCAK256 DUP1 SLOAD PUSH1 0x1 SWAP3 SWAP1 PUSH2 0x248A SWAP1 DUP5 SWAP1 PUSH2 0x342D JUMP JUMPDEST SWAP1 SWAP2 SSTORE POP POP PUSH1 0x1 PUSH1 0x1 PUSH1 0xA0 SHL SUB DUP3 AND PUSH1 0x0 SWAP1 DUP2 MSTORE PUSH1 0x3 PUSH1 0x20 MSTORE PUSH1 0x40 DUP2 KECCAK256 DUP1 SLOAD PUSH1 0x1 SWAP3 SWAP1 PUSH2 0x24B8 SWAP1 DUP5 SWAP1 PUSH2 0x33B1 JUMP JUMPDEST SWAP1 SWAP2 SSTORE POP POP PUSH1 0x0 DUP2 DUP2 MSTORE PUSH1 0x2 PUSH1 0x20 MSTORE PUSH1 0x40 DUP1 DUP3 KECCAK256 DUP1 SLOAD PUSH1 0x1 PUSH1 0x1 PUSH1 0xA0 SHL SUB NOT AND PUSH1 0x1 PUSH1 0x1 PUSH1 0xA0 SHL SUB DUP7 DUP2 AND SWAP2 DUP3 OR SWAP1 SWAP3 SSTORE SWAP2 MLOAD DUP5 SWAP4 SWAP2 DUP8 AND SWAP2 PUSH1 0x0 DUP1 MLOAD PUSH1 0x20 PUSH2 0x3792 DUP4 CODECOPY DUP2 MLOAD SWAP2 MSTORE SWAP2 LOG4 POP POP POP JUMP JUMPDEST PUSH1 0x0 DIFFICULTY TIMESTAMP CALLER DUP5 PUSH1 0x40 MLOAD PUSH1 0x20 ADD PUSH2 0x2543 SWAP5 SWAP4 SWAP3 SWAP2 SWAP1 SWAP4 DUP5 MSTORE PUSH1 0x20 DUP5 ADD SWAP3 SWAP1 SWAP3 MSTORE PUSH1 0x60 SHL PUSH1 0x1 PUSH1 0x1 PUSH1 0x60 SHL SUB NOT AND PUSH1 0x40 DUP4 ADD MSTORE PUSH1 0x54 DUP3 ADD MSTORE PUSH1 0x74 ADD SWAP1 JUMP JUMPDEST PUSH1 0x40 DUP1 MLOAD PUSH1 0x1F NOT DUP2 DUP5 SUB ADD DUP2 MSTORE SWAP2 SWAP1 MSTORE DUP1 MLOAD PUSH1 0x20 SWAP1 SWAP2 ADD KECCAK256 SWAP3 SWAP2 POP POP JUMP JUMPDEST DUP2 PUSH1 0x1 PUSH1 0x1 PUSH1 0xA0 SHL SUB AND DUP4 PUSH1 0x1 PUSH1 0x1 PUSH1 0xA0 SHL SUB AND SUB PUSH2 0x25BE JUMPI PUSH1 0x40 MLOAD PUSH3 0x461BCD PUSH1 0xE5 SHL DUP2 MSTORE PUSH1 0x20 PUSH1 0x4 DUP3 ADD MSTORE PUSH1 0x19 PUSH1 0x24 DUP3 ADD MSTORE PUSH25 0x22A9219B99189D1030B8383937BB32903A379031B0B63632B9 PUSH1 0x39 SHL PUSH1 0x44 DUP3 ADD MSTORE PUSH1 0x64 ADD PUSH2 0x567 JUMP JUMPDEST PUSH1 0x1 PUSH1 0x1 PUSH1 0xA0 SHL SUB DUP4 DUP2 AND PUSH1 0x0 DUP2 DUP2 MSTORE PUSH1 0x5 PUSH1 0x20 SWAP1 DUP2 MSTORE PUSH1 0x40 DUP1 DUP4 KECCAK256 SWAP5 DUP8 AND DUP1 DUP5 MSTORE SWAP5 DUP3 MSTORE SWAP2 DUP3 SWAP1 KECCAK256 DUP1 SLOAD PUSH1 0xFF NOT AND DUP7 ISZERO ISZERO SWAP1 DUP2 OR SWAP1 SWAP2 SSTORE SWAP2 MLOAD SWAP2 DUP3 MSTORE PUSH32 0x17307EAB39AB6107E8899845AD3D59BD9653F200F220920489CA2B5937696C31 SWAP2 ADD PUSH1 0x40 MLOAD DUP1 SWAP2 SUB SWAP1 LOG3 POP POP POP JUMP JUMPDEST PUSH2 0x2636 DUP5 DUP5 DUP5 PUSH2 0x237D JUMP JUMPDEST PUSH2 0x2642 DUP5 DUP5 DUP5 DUP5 PUSH2 0x2A98 JUMP JUMPDEST PUSH2 0x1A25 JUMPI PUSH1 0x40 MLOAD PUSH3 0x461BCD PUSH1 0xE5 SHL DUP2 MSTORE PUSH1 0x4 ADD PUSH2 0x567 SWAP1 PUSH2 0x3695 JUMP JUMPDEST PUSH1 0x60 DUP2 PUSH1 0x0 SUB PUSH2 0x2685 JUMPI POP POP PUSH1 0x40 DUP1 MLOAD DUP1 DUP3 ADD SWAP1 SWAP2 MSTORE PUSH1 0x1 DUP2 MSTORE PUSH1 0x3 PUSH1 0xFC SHL PUSH1 0x20 DUP3 ADD MSTORE SWAP1 JUMP JUMPDEST DUP2 PUSH1 0x0 JUMPDEST DUP2 ISZERO PUSH2 0x26AF JUMPI DUP1 PUSH2 0x2699 DUP2 PUSH2 0x364D JUMP JUMPDEST SWAP2 POP PUSH2 0x26A8 SWAP1 POP PUSH1 0xA DUP4 PUSH2 0x36E7 JUMP JUMPDEST SWAP2 POP PUSH2 0x2689 JUMP JUMPDEST PUSH1 0x0 DUP2 PUSH1 0x1 PUSH1 0x1 PUSH1 0x40 SHL SUB DUP2 GT ISZERO PUSH2 0x26C9 JUMPI PUSH2 0x26C9 PUSH2 0x2FC1 JUMP JUMPDEST PUSH1 0x40 MLOAD SWAP1 DUP1 DUP3 MSTORE DUP1 PUSH1 0x1F ADD PUSH1 0x1F NOT AND PUSH1 0x20 ADD DUP3 ADD PUSH1 0x40 MSTORE DUP1 ISZERO PUSH2 0x26F3 JUMPI PUSH1 0x20 DUP3 ADD DUP2 DUP1 CALLDATASIZE DUP4 CALLDATACOPY ADD SWAP1 POP JUMPDEST POP SWAP1 POP JUMPDEST DUP5 ISZERO PUSH2 0x2375 JUMPI PUSH2 0x2708 PUSH1 0x1 DUP4 PUSH2 0x342D JUMP JUMPDEST SWAP2 POP PUSH2 0x2715 PUSH1 0xA DUP7 PUSH2 0x35B9 JUMP JUMPDEST PUSH2 0x2720 SWAP1 PUSH1 0x30 PUSH2 0x33B1 JUMP JUMPDEST PUSH1 0xF8 SHL DUP2 DUP4 DUP2 MLOAD DUP2 LT PUSH2 0x2735 JUMPI PUSH2 0x2735 PUSH2 0x33F6 JUMP JUMPDEST PUSH1 0x20 ADD ADD SWAP1 PUSH1 0x1 PUSH1 0x1 PUSH1 0xF8 SHL SUB NOT AND SWAP1 DUP2 PUSH1 0x0 BYTE SWAP1 MSTORE8 POP PUSH2 0x2757 PUSH1 0xA DUP7 PUSH2 0x36E7 JUMP JUMPDEST SWAP5 POP PUSH2 0x26F7 JUMP JUMPDEST PUSH2 0x19EF DUP3 DUP3 PUSH1 0x40 MLOAD DUP1 PUSH1 0x20 ADD PUSH1 0x40 MSTORE DUP1 PUSH1 0x0 DUP2 MSTORE POP PUSH2 0x2BA0 JUMP JUMPDEST PUSH1 0x60 PUSH1 0x0 PUSH1 0x40 MLOAD DUP1 PUSH1 0xE0 ADD PUSH1 0x40 MSTORE DUP1 PUSH1 0x40 MLOAD DUP1 PUSH1 0x40 ADD PUSH1 0x40 MSTORE DUP1 PUSH1 0x8 DUP2 MSTORE PUSH1 0x20 ADD PUSH8 0x4C6F726450657065 PUSH1 0xC0 SHL DUP2 MSTORE POP DUP2 MSTORE PUSH1 0x20 ADD PUSH1 0x40 MLOAD DUP1 PUSH1 0x40 ADD PUSH1 0x40 MSTORE DUP1 PUSH1 0xB DUP2 MSTORE PUSH1 0x20 ADD PUSH11 0x4D617269654C6550657065 PUSH1 0xA8 SHL DUP2 MSTORE POP DUP2 MSTORE PUSH1 0x20 ADD PUSH1 0x40 MLOAD DUP1 PUSH1 0x40 ADD PUSH1 0x40 MSTORE DUP1 PUSH1 0x4 DUP2 MSTORE PUSH1 0x20 ADD PUSH4 0x50657065 PUSH1 0xE0 SHL DUP2 MSTORE POP DUP2 MSTORE PUSH1 0x20 ADD PUSH1 0x40 MLOAD DUP1 PUSH1 0x40 ADD PUSH1 0x40 MSTORE DUP1 PUSH1 0xA DUP2 MSTORE PUSH1 0x20 ADD PUSH10 0x50657065506F6C696365 PUSH1 0xB0 SHL DUP2 MSTORE POP DUP2 MSTORE PUSH1 0x20 ADD PUSH1 0x40 MLOAD DUP1 PUSH1 0x40 ADD PUSH1 0x40 MSTORE DUP1 PUSH1 0xB DUP2 MSTORE PUSH1 0x20 ADD PUSH11 0x2832B832A9B7B63234B2B9 PUSH1 0xA9 SHL DUP2 MSTORE POP DUP2 MSTORE PUSH1 0x20 ADD PUSH1 0x40 MLOAD DUP1 PUSH1 0x40 ADD PUSH1 0x40 MSTORE DUP1 PUSH1 0xA DUP2 MSTORE PUSH1 0x20 ADD PUSH10 0x14195C1955DA5E985C99 PUSH1 0xB2 SHL DUP2 MSTORE POP DUP2 MSTORE PUSH1 0x20 ADD PUSH1 0x40 MLOAD DUP1 PUSH1 0x40 ADD PUSH1 0x40 MSTORE DUP1 PUSH1 0x8 DUP2 MSTORE PUSH1 0x20 ADD PUSH8 0x5472756D50657065 PUSH1 0xC0 SHL DUP2 MSTORE POP DUP2 MSTORE POP SWAP1 POP PUSH1 0x0 PUSH1 0x40 MLOAD DUP1 PUSH2 0x140 ADD PUSH1 0x40 MSTORE DUP1 PUSH1 0x40 MLOAD DUP1 PUSH1 0x40 ADD PUSH1 0x40 MSTORE DUP1 PUSH1 0x7 DUP2 MSTORE PUSH1 0x20 ADD PUSH7 0x416E78696F7573 PUSH1 0xC8 SHL DUP2 MSTORE POP DUP2 MSTORE PUSH1 0x20 ADD PUSH1 0x40 MLOAD DUP1 PUSH1 0x40 ADD PUSH1 0x40 MSTORE DUP1 PUSH1 0xB DUP2 MSTORE PUSH1 0x20 ADD PUSH11 0x115B9B1A59DA1D195B9959 PUSH1 0xAA SHL DUP2 MSTORE POP DUP2 MSTORE PUSH1 0x20 ADD PUSH1 0x40 MLOAD DUP1 PUSH1 0x40 ADD PUSH1 0x40 MSTORE DUP1 PUSH1 0x6 DUP2 MSTORE PUSH1 0x20 ADD PUSH6 0x47686F746963 PUSH1 0xD0 SHL DUP2 MSTORE POP DUP2 MSTORE PUSH1 0x20 ADD PUSH1 0x40 MLOAD DUP1 PUSH1 0x40 ADD PUSH1 0x40 MSTORE DUP1 PUSH1 0x5 DUP2 MSTORE PUSH1 0x20 ADD PUSH5 0x4861707079 PUSH1 0xD8 SHL DUP2 MSTORE POP DUP2 MSTORE PUSH1 0x20 ADD PUSH1 0x40 MLOAD DUP1 PUSH1 0x40 ADD PUSH1 0x40 MSTORE DUP1 PUSH1 0x3 DUP2 MSTORE PUSH1 0x20 ADD PUSH3 0x13DB19 PUSH1 0xEA SHL DUP2 MSTORE POP DUP2 MSTORE PUSH1 0x20 ADD PUSH1 0x40 MLOAD DUP1 PUSH1 0x40 ADD PUSH1 0x40 MSTORE DUP1 PUSH1 0x4 DUP2 MSTORE PUSH1 0x20 ADD PUSH4 0xA4D2C6D PUSH1 0xE3 SHL DUP2 MSTORE POP DUP2 MSTORE PUSH1 0x20 ADD PUSH1 0x40 MLOAD DUP1 PUSH1 0x40 ADD PUSH1 0x40 MSTORE DUP1 PUSH1 0x3 DUP2 MSTORE PUSH1 0x20 ADD PUSH3 0x14D859 PUSH1 0xEA SHL DUP2 MSTORE POP DUP2 MSTORE PUSH1 0x20 ADD PUSH1 0x40 MLOAD DUP1 PUSH1 0x40 ADD PUSH1 0x40 MSTORE DUP1 PUSH1 0x6 DUP2 MSTORE PUSH1 0x20 ADD PUSH6 0x5374726F6E67 PUSH1 0xD0 SHL DUP2 MSTORE POP DUP2 MSTORE PUSH1 0x20 ADD PUSH1 0x40 MLOAD DUP1 PUSH1 0x40 ADD PUSH1 0x40 MSTORE DUP1 PUSH1 0xA DUP2 MSTORE PUSH1 0x20 ADD PUSH10 0x53756767657374697665 PUSH1 0xB0 SHL DUP2 MSTORE POP DUP2 MSTORE PUSH1 0x20 ADD PUSH1 0x40 MLOAD DUP1 PUSH1 0x40 ADD PUSH1 0x40 MSTORE DUP1 PUSH1 0x5 DUP2 MSTORE PUSH1 0x20 ADD PUSH5 0x596F756E67 PUSH1 0xD8 SHL DUP2 MSTORE POP DUP2 MSTORE POP SWAP1 POP PUSH1 0x0 PUSH1 0x7 PUSH2 0x2A1A DUP7 PUSH2 0x2507 JUMP JUMPDEST PUSH2 0x2A24 SWAP2 SWAP1 PUSH2 0x35B9 JUMP JUMPDEST SWAP1 POP PUSH1 0x0 PUSH1 0xA PUSH2 0x2A33 DUP4 PUSH2 0x2507 JUMP JUMPDEST PUSH2 0x2A3D SWAP2 SWAP1 PUSH2 0x35B9 JUMP JUMPDEST SWAP1 POP DUP3 DUP2 PUSH1 0xA DUP2 LT PUSH2 0x2A51 JUMPI PUSH2 0x2A51 PUSH2 0x33F6 JUMP JUMPDEST PUSH1 0x20 MUL ADD MLOAD DUP5 DUP4 PUSH1 0x7 DUP2 LT PUSH2 0x2A68 JUMPI PUSH2 0x2A68 PUSH2 0x33F6 JUMP JUMPDEST PUSH1 0x20 MUL ADD MLOAD PUSH1 0x40 MLOAD PUSH1 0x20 ADD PUSH2 0x2A7E SWAP3 SWAP2 SWAP1 PUSH2 0x36FB JUMP JUMPDEST PUSH1 0x40 MLOAD PUSH1 0x20 DUP2 DUP4 SUB SUB DUP2 MSTORE SWAP1 PUSH1 0x40 MSTORE SWAP5 POP POP POP POP POP SWAP2 SWAP1 POP JUMP JUMPDEST PUSH1 0x0 PUSH2 0x2AAC DUP5 PUSH1 0x1 PUSH1 0x1 PUSH1 0xA0 SHL SUB AND PUSH2 0x1DD2 JUMP JUMPDEST ISZERO PUSH2 0x2B95 JUMPI PUSH1 0x40 MLOAD PUSH4 0xA85BD01 PUSH1 0xE1 SHL DUP2 MSTORE PUSH1 0x1 PUSH1 0x1 PUSH1 0xA0 SHL SUB DUP6 AND SWAP1 PUSH4 0x150B7A02 SWAP1 PUSH2 0x2AE3 SWAP1 CALLER SWAP1 DUP10 SWAP1 DUP9 SWAP1 DUP9 SWAP1 PUSH1 0x4 ADD PUSH2 0x3737 JUMP JUMPDEST PUSH1 0x20 PUSH1 0x40 MLOAD DUP1 DUP4 SUB DUP2 PUSH1 0x0 DUP8 GAS CALL SWAP3 POP POP POP DUP1 ISZERO PUSH2 0x2B1E JUMPI POP PUSH1 0x40 DUP1 MLOAD PUSH1 0x1F RETURNDATASIZE SWAP1 DUP2 ADD PUSH1 0x1F NOT AND DUP3 ADD SWAP1 SWAP3 MSTORE PUSH2 0x2B1B SWAP2 DUP2 ADD SWAP1 PUSH2 0x3774 JUMP JUMPDEST PUSH1 0x1 JUMPDEST PUSH2 0x2B7B JUMPI RETURNDATASIZE DUP1 DUP1 ISZERO PUSH2 0x2B4C JUMPI PUSH1 0x40 MLOAD SWAP2 POP PUSH1 0x1F NOT PUSH1 0x3F RETURNDATASIZE ADD AND DUP3 ADD PUSH1 0x40 MSTORE RETURNDATASIZE DUP3 MSTORE RETURNDATASIZE PUSH1 0x0 PUSH1 0x20 DUP5 ADD RETURNDATACOPY PUSH2 0x2B51 JUMP JUMPDEST PUSH1 0x60 SWAP2 POP JUMPDEST POP DUP1 MLOAD PUSH1 0x0 SUB PUSH2 0x2B73 JUMPI PUSH1 0x40 MLOAD PUSH3 0x461BCD PUSH1 0xE5 SHL DUP2 MSTORE PUSH1 0x4 ADD PUSH2 0x567 SWAP1 PUSH2 0x3695 JUMP JUMPDEST DUP1 MLOAD DUP2 PUSH1 0x20 ADD REVERT JUMPDEST PUSH1 0x1 PUSH1 0x1 PUSH1 0xE0 SHL SUB NOT AND PUSH4 0xA85BD01 PUSH1 0xE1 SHL EQ SWAP1 POP PUSH2 0x2375 JUMP JUMPDEST POP PUSH1 0x1 SWAP5 SWAP4 POP POP POP POP JUMP JUMPDEST PUSH2 0x2BAA DUP4 DUP4 PUSH2 0x2BD3 JUMP JUMPDEST PUSH2 0x2BB7 PUSH1 0x0 DUP5 DUP5 DUP5 PUSH2 0x2A98 JUMP JUMPDEST PUSH2 0xA9B JUMPI PUSH1 0x40 MLOAD PUSH3 0x461BCD PUSH1 0xE5 SHL DUP2 MSTORE PUSH1 0x4 ADD PUSH2 0x567 SWAP1 PUSH2 0x3695 JUMP JUMPDEST PUSH1 0x1 PUSH1 0x1 PUSH1 0xA0 SHL SUB DUP3 AND PUSH2 0x2C29 JUMPI PUSH1 0x40 MLOAD PUSH3 0x461BCD PUSH1 0xE5 SHL DUP2 MSTORE PUSH1 0x20 PUSH1 0x4 DUP3 ADD DUP2 SWAP1 MSTORE PUSH1 0x24 DUP3 ADD MSTORE PUSH32 0x4552433732313A206D696E7420746F20746865207A65726F2061646472657373 PUSH1 0x44 DUP3 ADD MSTORE PUSH1 0x64 ADD PUSH2 0x567 JUMP JUMPDEST PUSH2 0x2C32 DUP2 PUSH2 0x21B4 JUMP JUMPDEST ISZERO PUSH2 0x2C7E JUMPI PUSH1 0x40 MLOAD PUSH3 0x461BCD PUSH1 0xE5 SHL DUP2 MSTORE PUSH1 0x20 PUSH1 0x4 DUP3 ADD MSTORE PUSH1 0x1C PUSH1 0x24 DUP3 ADD MSTORE PUSH28 0x115490CDCC8C4E881D1BDAD95B88185B1C9958591E481B5A5B9D1959 PUSH1 0x22 SHL PUSH1 0x44 DUP3 ADD MSTORE PUSH1 0x64 ADD PUSH2 0x567 JUMP JUMPDEST PUSH1 0x1 PUSH1 0x1 PUSH1 0xA0 SHL SUB DUP3 AND PUSH1 0x0 SWAP1 DUP2 MSTORE PUSH1 0x3 PUSH1 0x20 MSTORE PUSH1 0x40 DUP2 KECCAK256 DUP1 SLOAD PUSH1 0x1 SWAP3 SWAP1 PUSH2 0x2CA7 SWAP1 DUP5 SWAP1 PUSH2 0x33B1 JUMP JUMPDEST SWAP1 SWAP2 SSTORE POP POP PUSH1 0x0 DUP2 DUP2 MSTORE PUSH1 0x2 PUSH1 0x20 MSTORE PUSH1 0x40 DUP1 DUP3 KECCAK256 DUP1 SLOAD PUSH1 0x1 PUSH1 0x1 PUSH1 0xA0 SHL SUB NOT AND PUSH1 0x1 PUSH1 0x1 PUSH1 0xA0 SHL SUB DUP7 AND SWAP1 DUP2 OR SWAP1 SWAP2 SSTORE SWAP1 MLOAD DUP4 SWAP3 SWAP1 PUSH1 0x0 DUP1 MLOAD PUSH1 0x20 PUSH2 0x3792 DUP4 CODECOPY DUP2 MLOAD SWAP2 MSTORE SWAP1 DUP3 SWAP1 LOG4 POP POP JUMP JUMPDEST DUP3 PUSH1 0x6 DUP2 ADD SWAP3 DUP3 ISZERO PUSH2 0x2D21 JUMPI SWAP2 PUSH1 0x20 MUL DUP3 ADD JUMPDEST DUP3 DUP2 GT ISZERO PUSH2 0x2D21 JUMPI DUP3 MLOAD DUP3 SSTORE SWAP2 PUSH1 0x20 ADD SWAP2 SWAP1 PUSH1 0x1 ADD SWAP1 PUSH2 0x2D06 JUMP JUMPDEST POP PUSH2 0x2D2D SWAP3 SWAP2 POP PUSH2 0x2E72 JUMP JUMPDEST POP SWAP1 JUMP JUMPDEST PUSH1 0x40 MLOAD DUP1 PUSH1 0xC0 ADD PUSH1 0x40 MSTORE DUP1 PUSH1 0x6 SWAP1 PUSH1 0x20 DUP3 MUL DUP1 CALLDATASIZE DUP4 CALLDATACOPY POP SWAP2 SWAP3 SWAP2 POP POP JUMP JUMPDEST PUSH1 0x40 MLOAD DUP1 PUSH1 0x40 ADD PUSH1 0x40 MSTORE DUP1 PUSH1 0x0 PUSH1 0x1 PUSH1 0x1 PUSH1 0xA0 SHL SUB AND DUP2 MSTORE PUSH1 0x20 ADD PUSH2 0x2D72 PUSH2 0x2D31 JUMP JUMPDEST SWAP1 MSTORE SWAP1 JUMP JUMPDEST POP DUP1 SLOAD PUSH1 0x0 DUP3 SSTORE PUSH1 0x7 MUL SWAP1 PUSH1 0x0 MSTORE PUSH1 0x20 PUSH1 0x0 KECCAK256 SWAP1 DUP2 ADD SWAP1 PUSH2 0x21B1 SWAP2 SWAP1 PUSH2 0x2E87 JUMP JUMPDEST POP DUP1 SLOAD PUSH1 0x0 DUP3 SSTORE SWAP1 PUSH1 0x0 MSTORE PUSH1 0x20 PUSH1 0x0 KECCAK256 SWAP1 DUP2 ADD SWAP1 PUSH2 0x21B1 SWAP2 SWAP1 PUSH2 0x2E72 JUMP JUMPDEST POP PUSH2 0x21B1 SWAP1 PUSH1 0x6 DUP2 ADD SWAP1 PUSH2 0x2E72 JUMP JUMPDEST DUP3 DUP1 SLOAD DUP3 DUP3 SSTORE SWAP1 PUSH1 0x0 MSTORE PUSH1 0x20 PUSH1 0x0 KECCAK256 SWAP1 DUP2 ADD SWAP3 DUP3 ISZERO PUSH2 0x2D21 JUMPI SWAP2 PUSH1 0x20 MUL DUP3 ADD DUP3 DUP2 GT ISZERO PUSH2 0x2D21 JUMPI DUP3 MLOAD DUP3 SSTORE SWAP2 PUSH1 0x20 ADD SWAP2 SWAP1 PUSH1 0x1 ADD SWAP1 PUSH2 0x2D06 JUMP JUMPDEST DUP3 DUP1 SLOAD PUSH2 0x2E0B SWAP1 PUSH2 0x3444 JUMP JUMPDEST SWAP1 PUSH1 0x0 MSTORE PUSH1 0x20 PUSH1 0x0 KECCAK256 SWAP1 PUSH1 0x1F ADD PUSH1 0x20 SWAP1 DIV DUP2 ADD SWAP3 DUP3 PUSH2 0x2E2D JUMPI PUSH1 0x0 DUP6 SSTORE PUSH2 0x2D21 JUMP JUMPDEST DUP3 PUSH1 0x1F LT PUSH2 0x2E46 JUMPI DUP1 MLOAD PUSH1 0xFF NOT AND DUP4 DUP1 ADD OR DUP6 SSTORE PUSH2 0x2D21 JUMP JUMPDEST DUP3 DUP1 ADD PUSH1 0x1 ADD DUP6 SSTORE DUP3 ISZERO PUSH2 0x2D21 JUMPI SWAP2 DUP3 ADD DUP3 DUP2 GT ISZERO PUSH2 0x2D21 JUMPI DUP3 MLOAD DUP3 SSTORE SWAP2 PUSH1 0x20 ADD SWAP2 SWAP1 PUSH1 0x1 ADD SWAP1 PUSH2 0x2D06 JUMP JUMPDEST JUMPDEST DUP1 DUP3 GT ISZERO PUSH2 0x2D2D JUMPI PUSH1 0x0 DUP2 SSTORE PUSH1 0x1 ADD PUSH2 0x2E73 JUMP JUMPDEST DUP1 DUP3 GT ISZERO PUSH2 0x2D2D JUMPI DUP1 SLOAD PUSH1 0x1 PUSH1 0x1 PUSH1 0xA0 SHL SUB NOT AND DUP2 SSTORE PUSH1 0x0 PUSH2 0x2EAC PUSH1 0x1 DUP4 ADD DUP3 PUSH2 0x2DB6 JUMP JUMPDEST POP PUSH1 0x7 ADD PUSH2 0x2E87 JUMP JUMPDEST PUSH1 0x0 PUSH1 0x20 DUP3 DUP5 SUB SLT ISZERO PUSH2 0x2EC7 JUMPI PUSH1 0x0 DUP1 REVERT JUMPDEST POP CALLDATALOAD SWAP2 SWAP1 POP JUMP JUMPDEST PUSH1 0x1 PUSH1 0x1 PUSH1 0xE0 SHL SUB NOT DUP2 AND DUP2 EQ PUSH2 0x21B1 JUMPI PUSH1 0x0 DUP1 REVERT JUMPDEST PUSH1 0x0 PUSH1 0x20 DUP3 DUP5 SUB SLT ISZERO PUSH2 0x2EF6 JUMPI PUSH1 0x0 DUP1 REVERT JUMPDEST DUP2 CALLDATALOAD PUSH2 0x1C90 DUP2 PUSH2 0x2ECE JUMP JUMPDEST PUSH1 0x0 JUMPDEST DUP4 DUP2 LT ISZERO PUSH2 0x2F1C JUMPI DUP2 DUP2 ADD MLOAD DUP4 DUP3 ADD MSTORE PUSH1 0x20 ADD PUSH2 0x2F04 JUMP JUMPDEST DUP4 DUP2 GT ISZERO PUSH2 0x1A25 JUMPI POP POP PUSH1 0x0 SWAP2 ADD MSTORE JUMP JUMPDEST PUSH1 0x0 DUP2 MLOAD DUP1 DUP5 MSTORE PUSH2 0x2F45 DUP2 PUSH1 0x20 DUP7 ADD PUSH1 0x20 DUP7 ADD PUSH2 0x2F01 JUMP JUMPDEST PUSH1 0x1F ADD PUSH1 0x1F NOT AND SWAP3 SWAP1 SWAP3 ADD PUSH1 0x20 ADD SWAP3 SWAP2 POP POP JUMP JUMPDEST PUSH1 0x20 DUP2 MSTORE PUSH1 0x0 PUSH2 0x1C90 PUSH1 0x20 DUP4 ADD DUP5 PUSH2 0x2F2D JUMP JUMPDEST PUSH1 0x1 PUSH1 0x1 PUSH1 0xA0 SHL SUB SWAP2 SWAP1 SWAP2 AND DUP2 MSTORE PUSH1 0x20 ADD SWAP1 JUMP JUMPDEST DUP1 CALLDATALOAD PUSH1 0x1 PUSH1 0x1 PUSH1 0xA0 SHL SUB DUP2 AND DUP2 EQ PUSH2 0x10D1 JUMPI PUSH1 0x0 DUP1 REVERT JUMPDEST PUSH1 0x0 DUP1 PUSH1 0x40 DUP4 DUP6 SUB SLT ISZERO PUSH2 0x2FAA JUMPI PUSH1 0x0 DUP1 REVERT JUMPDEST PUSH2 0x2FB3 DUP4 PUSH2 0x2F80 JUMP JUMPDEST SWAP5 PUSH1 0x20 SWAP4 SWAP1 SWAP4 ADD CALLDATALOAD SWAP4 POP POP POP JUMP JUMPDEST PUSH4 0x4E487B71 PUSH1 0xE0 SHL PUSH1 0x0 MSTORE PUSH1 0x41 PUSH1 0x4 MSTORE PUSH1 0x24 PUSH1 0x0 REVERT JUMPDEST PUSH1 0x40 MLOAD PUSH1 0xC0 DUP2 ADD PUSH1 0x1 PUSH1 0x1 PUSH1 0x40 SHL SUB DUP2 GT DUP3 DUP3 LT OR ISZERO PUSH2 0x2FF9 JUMPI PUSH2 0x2FF9 PUSH2 0x2FC1 JUMP JUMPDEST PUSH1 0x40 MSTORE SWAP1 JUMP JUMPDEST PUSH1 0x40 MLOAD PUSH1 0x1F DUP3 ADD PUSH1 0x1F NOT AND DUP2 ADD PUSH1 0x1 PUSH1 0x1 PUSH1 0x40 SHL SUB DUP2 GT DUP3 DUP3 LT OR ISZERO PUSH2 0x3027 JUMPI PUSH2 0x3027 PUSH2 0x2FC1 JUMP JUMPDEST PUSH1 0x40 MSTORE SWAP2 SWAP1 POP JUMP JUMPDEST PUSH1 0x0 PUSH1 0x20 DUP1 DUP4 DUP6 SUB SLT ISZERO PUSH2 0x3042 JUMPI PUSH1 0x0 DUP1 REVERT JUMPDEST DUP3 CALLDATALOAD PUSH1 0x1 PUSH1 0x1 PUSH1 0x40 SHL SUB DUP1 DUP3 GT ISZERO PUSH2 0x3059 JUMPI PUSH1 0x0 DUP1 REVERT JUMPDEST DUP2 DUP6 ADD SWAP2 POP PUSH1 0x1F DUP7 DUP2 DUP5 ADD SLT PUSH2 0x306E JUMPI PUSH1 0x0 DUP1 REVERT JUMPDEST DUP3 CALLDATALOAD DUP3 DUP2 GT ISZERO PUSH2 0x3080 JUMPI PUSH2 0x3080 PUSH2 0x2FC1 JUMP JUMPDEST PUSH2 0x308E DUP6 DUP3 PUSH1 0x5 SHL ADD PUSH2 0x2FFF JUMP JUMPDEST DUP2 DUP2 MSTORE DUP6 DUP2 ADD SWAP4 POP PUSH1 0xC0 SWAP2 DUP3 MUL DUP6 ADD DUP7 ADD SWAP2 DUP10 DUP4 GT ISZERO PUSH2 0x30AD JUMPI PUSH1 0x0 DUP1 REVERT JUMPDEST SWAP5 DUP7 ADD SWAP5 JUMPDEST DUP3 DUP7 LT ISZERO PUSH2 0x310E JUMPI DUP10 DUP5 DUP8 ADD SLT PUSH2 0x30C9 JUMPI PUSH1 0x0 DUP1 DUP2 REVERT JUMPDEST PUSH2 0x30D1 PUSH2 0x2FD7 JUMP JUMPDEST DUP1 DUP3 DUP9 ADD DUP13 DUP2 GT ISZERO PUSH2 0x30E3 JUMPI PUSH1 0x0 DUP1 DUP2 REVERT JUMPDEST DUP9 JUMPDEST DUP2 DUP2 LT ISZERO PUSH2 0x30FC JUMPI DUP1 CALLDATALOAD DUP5 MSTORE SWAP3 DUP11 ADD SWAP3 DUP11 ADD PUSH2 0x30E5 JUMP JUMPDEST POP POP DUP7 MSTORE POP SWAP5 DUP6 ADD SWAP5 SWAP4 DUP7 ADD SWAP4 PUSH2 0x30B2 JUMP JUMPDEST POP SWAP9 SWAP8 POP POP POP POP POP POP POP POP JUMP JUMPDEST PUSH1 0x0 DUP1 PUSH1 0x0 PUSH1 0x60 DUP5 DUP7 SUB SLT ISZERO PUSH2 0x3130 JUMPI PUSH1 0x0 DUP1 REVERT JUMPDEST PUSH2 0x3139 DUP5 PUSH2 0x2F80 JUMP JUMPDEST SWAP3 POP PUSH2 0x3147 PUSH1 0x20 DUP6 ADD PUSH2 0x2F80 JUMP JUMPDEST SWAP2 POP PUSH1 0x40 DUP5 ADD CALLDATALOAD SWAP1 POP SWAP3 POP SWAP3 POP SWAP3 JUMP JUMPDEST PUSH1 0x20 DUP1 DUP3 MSTORE DUP3 MLOAD DUP3 DUP3 ADD DUP2 SWAP1 MSTORE PUSH1 0x0 SWAP2 SWAP1 DUP5 DUP3 ADD SWAP1 PUSH1 0x40 DUP6 ADD SWAP1 DUP5 JUMPDEST DUP2 DUP2 LT ISZERO PUSH2 0x318F JUMPI DUP4 MLOAD DUP4 MSTORE SWAP3 DUP5 ADD SWAP3 SWAP2 DUP5 ADD SWAP2 PUSH1 0x1 ADD PUSH2 0x3173 JUMP JUMPDEST POP SWAP1 SWAP7 SWAP6 POP POP POP POP POP POP JUMP JUMPDEST DUP1 PUSH1 0x0 JUMPDEST PUSH1 0x6 DUP2 LT ISZERO PUSH2 0x1A25 JUMPI DUP2 MLOAD DUP5 MSTORE PUSH1 0x20 SWAP4 DUP5 ADD SWAP4 SWAP1 SWAP2 ADD SWAP1 PUSH1 0x1 ADD PUSH2 0x319F JUMP JUMPDEST PUSH1 0xC0 DUP2 ADD PUSH2 0x5EE DUP3 DUP5 PUSH2 0x319B JUMP JUMPDEST PUSH1 0x0 PUSH1 0x20 DUP3 DUP5 SUB SLT ISZERO PUSH2 0x31DE JUMPI PUSH1 0x0 DUP1 REVERT JUMPDEST PUSH2 0x1C90 DUP3 PUSH2 0x2F80 JUMP JUMPDEST DUP2 MLOAD PUSH1 0x1 PUSH1 0x1 PUSH1 0xA0 SHL SUB AND DUP2 MSTORE PUSH1 0x20 DUP1 DUP4 ADD MLOAD PUSH1 0xE0 DUP4 ADD SWAP2 PUSH2 0x320B SWAP1 DUP5 ADD DUP3 PUSH2 0x319B JUMP JUMPDEST POP SWAP3 SWAP2 POP POP JUMP JUMPDEST PUSH1 0x0 DUP1 PUSH1 0x40 DUP4 DUP6 SUB SLT ISZERO PUSH2 0x3225 JUMPI PUSH1 0x0 DUP1 REVERT JUMPDEST PUSH2 0x322E DUP4 PUSH2 0x2F80 JUMP JUMPDEST SWAP2 POP PUSH1 0x20 DUP4 ADD CALLDATALOAD DUP1 ISZERO ISZERO DUP2 EQ PUSH2 0x3243 JUMPI PUSH1 0x0 DUP1 REVERT JUMPDEST DUP1 SWAP2 POP POP SWAP3 POP SWAP3 SWAP1 POP JUMP JUMPDEST PUSH1 0x0 DUP1 PUSH1 0x0 DUP1 PUSH1 0x80 DUP6 DUP8 SUB SLT ISZERO PUSH2 0x3264 JUMPI PUSH1 0x0 DUP1 REVERT JUMPDEST PUSH2 0x326D DUP6 PUSH2 0x2F80 JUMP JUMPDEST SWAP4 POP PUSH1 0x20 PUSH2 0x327C DUP2 DUP8 ADD PUSH2 0x2F80 JUMP JUMPDEST SWAP4 POP PUSH1 0x40 DUP7 ADD CALLDATALOAD SWAP3 POP PUSH1 0x60 DUP7 ADD CALLDATALOAD PUSH1 0x1 PUSH1 0x1 PUSH1 0x40 SHL SUB DUP1 DUP3 GT ISZERO PUSH2 0x329F JUMPI PUSH1 0x0 DUP1 REVERT JUMPDEST DUP2 DUP9 ADD SWAP2 POP DUP9 PUSH1 0x1F DUP4 ADD SLT PUSH2 0x32B3 JUMPI PUSH1 0x0 DUP1 REVERT JUMPDEST DUP2 CALLDATALOAD DUP2 DUP2 GT ISZERO PUSH2 0x32C5 JUMPI PUSH2 0x32C5 PUSH2 0x2FC1 JUMP JUMPDEST PUSH2 0x32D7 PUSH1 0x1F DUP3 ADD PUSH1 0x1F NOT AND DUP6 ADD PUSH2 0x2FFF JUMP JUMPDEST SWAP2 POP DUP1 DUP3 MSTORE DUP10 DUP5 DUP3 DUP6 ADD ADD GT ISZERO PUSH2 0x32ED JUMPI PUSH1 0x0 DUP1 REVERT JUMPDEST DUP1 DUP5 DUP5 ADD DUP6 DUP5 ADD CALLDATACOPY PUSH1 0x0 DUP5 DUP3 DUP5 ADD ADD MSTORE POP DUP1 SWAP4 POP POP POP POP SWAP3 SWAP6 SWAP2 SWAP5 POP SWAP3 POP JUMP JUMPDEST PUSH1 0x0 DUP1 PUSH1 0x40 DUP4 DUP6 SUB SLT ISZERO PUSH2 0x3320 JUMPI PUSH1 0x0 DUP1 REVERT JUMPDEST PUSH2 0x3329 DUP4 PUSH2 0x2F80 JUMP JUMPDEST SWAP2 POP PUSH2 0x3337 PUSH1 0x20 DUP5 ADD PUSH2 0x2F80 JUMP JUMPDEST SWAP1 POP SWAP3 POP SWAP3 SWAP1 POP JUMP JUMPDEST PUSH1 0x20 DUP1 DUP3 MSTORE PUSH1 0xA SWAP1 DUP3 ADD MSTORE PUSH10 0x6F776E6572206F6E6C79 PUSH1 0xB0 SHL PUSH1 0x40 DUP3 ADD MSTORE PUSH1 0x60 ADD SWAP1 JUMP JUMPDEST PUSH1 0x20 DUP1 DUP3 MSTORE PUSH1 0x1F SWAP1 DUP3 ADD MSTORE PUSH32 0x666972737420726F756E64206F7220656E64656420726F756E64206F6E6C7900 PUSH1 0x40 DUP3 ADD MSTORE PUSH1 0x60 ADD SWAP1 JUMP JUMPDEST PUSH4 0x4E487B71 PUSH1 0xE0 SHL PUSH1 0x0 MSTORE PUSH1 0x11 PUSH1 0x4 MSTORE PUSH1 0x24 PUSH1 0x0 REVERT JUMPDEST PUSH1 0x0 DUP3 NOT DUP3 GT ISZERO PUSH2 0x33C4 JUMPI PUSH2 0x33C4 PUSH2 0x339B JUMP JUMPDEST POP ADD SWAP1 JUMP JUMPDEST PUSH1 0x20 DUP1 DUP3 MSTORE PUSH1 0x13 SWAP1 DUP3 ADD MSTORE PUSH19 0x696E61637469766520726F756E64206F6E6C79 PUSH1 0x68 SHL PUSH1 0x40 DUP3 ADD MSTORE PUSH1 0x60 ADD SWAP1 JUMP JUMPDEST PUSH4 0x4E487B71 PUSH1 0xE0 SHL PUSH1 0x0 MSTORE PUSH1 0x32 PUSH1 0x4 MSTORE PUSH1 0x24 PUSH1 0x0 REVERT JUMPDEST PUSH1 0x1 PUSH1 0x1 PUSH1 0xA0 SHL SUB SWAP4 SWAP1 SWAP4 AND DUP4 MSTORE PUSH1 0x20 DUP4 ADD SWAP2 SWAP1 SWAP2 MSTORE PUSH1 0x40 DUP3 ADD MSTORE PUSH1 0x60 ADD SWAP1 JUMP JUMPDEST PUSH1 0x0 DUP3 DUP3 LT ISZERO PUSH2 0x343F JUMPI PUSH2 0x343F PUSH2 0x339B JUMP JUMPDEST POP SUB SWAP1 JUMP JUMPDEST PUSH1 0x1 DUP2 DUP2 SHR SWAP1 DUP3 AND DUP1 PUSH2 0x3458 JUMPI PUSH1 0x7F DUP3 AND SWAP2 POP JUMPDEST PUSH1 0x20 DUP3 LT DUP2 SUB PUSH2 0x3478 JUMPI PUSH4 0x4E487B71 PUSH1 0xE0 SHL PUSH1 0x0 MSTORE PUSH1 0x22 PUSH1 0x4 MSTORE PUSH1 0x24 PUSH1 0x0 REVERT JUMPDEST POP SWAP2 SWAP1 POP JUMP JUMPDEST PUSH1 0x0 DUP2 PUSH1 0x0 NOT DIV DUP4 GT DUP3 ISZERO ISZERO AND ISZERO PUSH2 0x3498 JUMPI PUSH2 0x3498 PUSH2 0x339B JUMP JUMPDEST POP MUL SWAP1 JUMP JUMPDEST PUSH1 0x20 DUP1 DUP3 MSTORE PUSH1 0x17 SWAP1 DUP3 ADD MSTORE PUSH23 0x34B73B30B634B21039BA30B73230B93210373AB6B132B9 PUSH1 0x49 SHL PUSH1 0x40 DUP3 ADD MSTORE PUSH1 0x60 ADD SWAP1 JUMP JUMPDEST PUSH1 0x1 PUSH1 0x1 PUSH1 0xA0 SHL SUB DUP4 AND DUP2 MSTORE PUSH1 0xE0 DUP2 ADD PUSH2 0x1C90 PUSH1 0x20 DUP4 ADD DUP5 PUSH2 0x319B JUMP JUMPDEST PUSH1 0x1 PUSH1 0x1 PUSH1 0xA0 SHL SUB DUP5 AND DUP2 MSTORE PUSH1 0x20 DUP1 DUP3 ADD DUP5 SWAP1 MSTORE PUSH1 0x60 PUSH1 0x40 DUP4 ADD DUP2 SWAP1 MSTORE DUP4 MLOAD SWAP1 DUP4 ADD DUP2 SWAP1 MSTORE PUSH1 0x0 SWAP2 DUP5 DUP2 ADD SWAP2 PUSH1 0x80 DUP6 ADD SWAP1 DUP5 JUMPDEST DUP2 DUP2 LT ISZERO PUSH2 0x3544 JUMPI PUSH2 0x3531 DUP4 DUP7 MLOAD PUSH2 0x319B JUMP JUMPDEST SWAP4 DUP4 ADD SWAP4 PUSH1 0xC0 SWAP3 SWAP1 SWAP3 ADD SWAP2 PUSH1 0x1 ADD PUSH2 0x351E JUMP JUMPDEST POP SWAP1 SWAP9 SWAP8 POP POP POP POP POP POP POP POP JUMP JUMPDEST PUSH1 0x20 DUP1 DUP3 MSTORE PUSH1 0x31 SWAP1 DUP3 ADD MSTORE PUSH32 0x4552433732313A207472616E736665722063616C6C6572206973206E6F74206F PUSH1 0x40 DUP3 ADD MSTORE PUSH17 0x1DDB995C881B9BDC88185C1C1C9BDD9959 PUSH1 0x7A SHL PUSH1 0x60 DUP3 ADD MSTORE PUSH1 0x80 ADD SWAP1 JUMP JUMPDEST PUSH4 0x4E487B71 PUSH1 0xE0 SHL PUSH1 0x0 MSTORE PUSH1 0x12 PUSH1 0x4 MSTORE PUSH1 0x24 PUSH1 0x0 REVERT JUMPDEST PUSH1 0x0 DUP3 PUSH2 0x35C8 JUMPI PUSH2 0x35C8 PUSH2 0x35A3 JUMP JUMPDEST POP MOD SWAP1 JUMP JUMPDEST PUSH1 0xC0 DUP2 ADD DUP2 DUP4 PUSH1 0x0 JUMPDEST PUSH1 0x6 DUP2 LT ISZERO PUSH2 0x35F5 JUMPI DUP2 SLOAD DUP4 MSTORE PUSH1 0x20 SWAP1 SWAP3 ADD SWAP2 PUSH1 0x1 SWAP2 DUP3 ADD SWAP2 ADD PUSH2 0x35D6 JUMP JUMPDEST POP POP POP SWAP3 SWAP2 POP POP JUMP JUMPDEST PUSH1 0x1 PUSH1 0x1 PUSH1 0xA0 SHL SUB SWAP3 SWAP1 SWAP3 AND DUP3 MSTORE PUSH1 0x20 DUP3 ADD MSTORE PUSH1 0x40 ADD SWAP1 JUMP JUMPDEST PUSH1 0x20 DUP1 DUP3 MSTORE PUSH1 0x1C SWAP1 DUP3 ADD MSTORE PUSH28 0x6E6F6E206578697374656E742072616E6B2028312D38206F6E6C7929 PUSH1 0x20 SHL PUSH1 0x40 DUP3 ADD MSTORE PUSH1 0x60 ADD SWAP1 JUMP JUMPDEST PUSH1 0x0 PUSH1 0x1 DUP3 ADD PUSH2 0x365F JUMPI PUSH2 0x365F PUSH2 0x339B JUMP JUMPDEST POP PUSH1 0x1 ADD SWAP1 JUMP JUMPDEST PUSH1 0x0 DUP4 MLOAD PUSH2 0x3678 DUP2 DUP5 PUSH1 0x20 DUP9 ADD PUSH2 0x2F01 JUMP JUMPDEST DUP4 MLOAD SWAP1 DUP4 ADD SWAP1 PUSH2 0x368C DUP2 DUP4 PUSH1 0x20 DUP9 ADD PUSH2 0x2F01 JUMP JUMPDEST ADD SWAP5 SWAP4 POP POP POP POP JUMP JUMPDEST PUSH1 0x20 DUP1 DUP3 MSTORE PUSH1 0x32 SWAP1 DUP3 ADD MSTORE PUSH32 0x4552433732313A207472616E7366657220746F206E6F6E204552433732315265 PUSH1 0x40 DUP3 ADD MSTORE PUSH18 0x31B2B4BB32B91034B6B83632B6B2B73A32B9 PUSH1 0x71 SHL PUSH1 0x60 DUP3 ADD MSTORE PUSH1 0x80 ADD SWAP1 JUMP JUMPDEST PUSH1 0x0 DUP3 PUSH2 0x36F6 JUMPI PUSH2 0x36F6 PUSH2 0x35A3 JUMP JUMPDEST POP DIV SWAP1 JUMP JUMPDEST PUSH1 0x0 DUP4 MLOAD PUSH2 0x370D DUP2 DUP5 PUSH1 0x20 DUP9 ADD PUSH2 0x2F01 JUMP JUMPDEST PUSH1 0x1 PUSH1 0xFD SHL SWAP1 DUP4 ADD SWAP1 DUP2 MSTORE DUP4 MLOAD PUSH2 0x372B DUP2 PUSH1 0x1 DUP5 ADD PUSH1 0x20 DUP9 ADD PUSH2 0x2F01 JUMP JUMPDEST ADD PUSH1 0x1 ADD SWAP5 SWAP4 POP POP POP POP JUMP JUMPDEST PUSH1 0x1 PUSH1 0x1 PUSH1 0xA0 SHL SUB DUP6 DUP2 AND DUP3 MSTORE DUP5 AND PUSH1 0x20 DUP3 ADD MSTORE PUSH1 0x40 DUP2 ADD DUP4 SWAP1 MSTORE PUSH1 0x80 PUSH1 0x60 DUP3 ADD DUP2 SWAP1 MSTORE PUSH1 0x0 SWAP1 PUSH2 0x376A SWAP1 DUP4 ADD DUP5 PUSH2 0x2F2D JUMP JUMPDEST SWAP7 SWAP6 POP POP POP POP POP POP JUMP JUMPDEST PUSH1 0x0 PUSH1 0x20 DUP3 DUP5 SUB SLT ISZERO PUSH2 0x3786 JUMPI PUSH1 0x0 DUP1 REVERT JUMPDEST DUP2 MLOAD PUSH2 0x1C90 DUP2 PUSH2 0x2ECE JUMP INVALID 0xDD CALLCODE MSTORE 0xAD SHL 0xE2 0xC8 SWAP12 PUSH10 0xC2B068FC378DAA952BA7 CALL PUSH4 0xC4A11628 CREATE2 GAS 0x4D CREATE2 0x23 0xB3 0xEF 0xA8 0x2A PUSH31 0xA15C804D00DBA1B969024B510969FDE70FAC8E0D5DA860CF1F7376D317A264 PUSH10 0x706673582212205CDC27 0xA6 SWAP16 0x26 0xF MSIZE LOG0 0xEF 0xF6 0x5F PUSH6 0x7702F76CDEE5 0xD6 0xCE 0xC 0xA8 0xF9 0xD5 0x5D EXTCODESIZE 0x27 DUP11 SWAP9 SWAP3 0xA8 PUSH5 0x736F6C6343 STOP ADDMOD 0xE STOP CALLER "
		},
		"gasEstimates": {
			"creation": {
				"codeDepositCost": "2868600",
				"executionCost": "infinite",
				"totalCost": "infinite"
			},
			"external": {
				"_ticketPrice()": "2669",
				"_winningNumbers(uint256)": "2990",
				"approve(address,uint256)": "infinite",
				"balanceOf(address)": "2919",
				"buy(uint256[6][])": "infinite",
				"closeLottery()": "infinite",
				"descriptionOf(uint256)": "infinite",
				"drawNumbers()": "infinite",
				"getApproved(uint256)": "4821",
				"getAvailablePepes(uint256)": "infinite",
				"getBalance()": "315",
				"getTicket(uint256)": "infinite",
				"getWinningNumbers()": "infinite",
				"givePrizes()": "infinite",
				"isApprovedForAll(address,address)": "infinite",
				"isAvailable(uint256)": "2711",
				"mint(uint256)": "infinite",
				"name()": "infinite",
				"ownerOf(uint256)": "2798",
				"rankOf(uint256)": "2925",
				"safeTransferFrom(address,address,uint256)": "infinite",
				"safeTransferFrom(address,address,uint256,bytes)": "infinite",
				"setApprovalForAll(address,bool)": "27167",
				"setDuration(uint256)": "29350",
				"setTicketprice(uint256)": "28690",
				"setWithdrawal(address)": "27362",
				"startNewRound()": "infinite",
				"supportsInterface(bytes4)": "510",
				"symbol()": "infinite",
				"tokenURI(uint256)": "infinite",
				"transferFrom(address,address,uint256)": "infinite"
			},
			"internal": {
				"_isTicketValid(uint256[6] memory)": "infinite",
				"_prizeRank(struct Lottery.Ticket memory)": "infinite",
				"_withdraw()": "infinite"
			}
		},
		"methodIdentifiers": {
			"_ticketPrice()": "7e40be66",
			"_winningNumbers(uint256)": "cb4c2e9e",
			"approve(address,uint256)": "095ea7b3",
			"balanceOf(address)": "70a08231",
			"buy(uint256[6][])": "0bc09cfe",
			"closeLottery()": "6fd09816",
			"descriptionOf(uint256)": "3e0fb267",
			"drawNumbers()": "676c902f",
			"getApproved(uint256)": "081812fc",
			"getAvailablePepes(uint256)": "642f5818",
			"getBalance()": "12065fe0",
			"getTicket(uint256)": "7dc379fa",
			"getWinningNumbers()": "84350e1d",
			"givePrizes()": "06d5ee54",
			"isApprovedForAll(address,address)": "e985e9c5",
			"isAvailable(uint256)": "3a178d99",
			"mint(uint256)": "a0712d68",
			"name()": "06fdde03",
			"ownerOf(uint256)": "6352211e",
			"rankOf(uint256)": "82f68dc4",
			"safeTransferFrom(address,address,uint256)": "42842e0e",
			"safeTransferFrom(address,address,uint256,bytes)": "b88d4fde",
			"setApprovalForAll(address,bool)": "a22cb465",
			"setDuration(uint256)": "f6be71d1",
			"setTicketprice(uint256)": "0075f5d5",
			"setWithdrawal(address)": "edcefa60",
			"startNewRound()": "bd85948c",
			"supportsInterface(bytes4)": "01ffc9a7",
			"symbol()": "95d89b41",
			"tokenURI(uint256)": "c87b56dd",
			"transferFrom(address,address,uint256)": "23b872dd"
		}
	},
	"abi": [
		{
			"inputs": [],
			"stateMutability": "nonpayable",
			"type": "constructor"
		},
		{
			"anonymous": false,
			"inputs": [
				{
					"indexed": true,
					"internalType": "address",
					"name": "owner",
					"type": "address"
				},
				{
					"indexed": true,
					"internalType": "address",
					"name": "approved",
					"type": "address"
				},
				{
					"indexed": true,
					"internalType": "uint256",
					"name": "tokenId",
					"type": "uint256"
				}
			],
			"name": "Approval",
			"type": "event"
		},
		{
			"anonymous": false,
			"inputs": [
				{
					"indexed": true,
					"internalType": "address",
					"name": "owner",
					"type": "address"
				},
				{
					"indexed": true,
					"internalType": "address",
					"name": "operator",
					"type": "address"
				},
				{
					"indexed": false,
					"internalType": "bool",
					"name": "approved",
					"type": "bool"
				}
			],
			"name": "ApprovalForAll",
			"type": "event"
		},
		{
			"anonymous": false,
			"inputs": [
				{
					"indexed": false,
					"internalType": "address",
					"name": "to",
					"type": "address"
				}
			],
			"name": "LogDeactivation",
			"type": "event"
		},
		{
			"anonymous": false,
			"inputs": [
				{
					"indexed": false,
					"internalType": "address",
					"name": "owner",
					"type": "address"
				}
			],
			"name": "LogDeployment",
			"type": "event"
		},
		{
			"anonymous": false,
			"inputs": [
				{
					"indexed": false,
					"internalType": "address",
					"name": "to",
					"type": "address"
				},
				{
					"indexed": false,
					"internalType": "uint256",
					"name": "prizeRank",
					"type": "uint256"
				},
				{
					"indexed": false,
					"internalType": "uint256",
					"name": "tokenId",
					"type": "uint256"
				}
			],
			"name": "LogMint",
			"type": "event"
		},
		{
			"anonymous": false,
			"inputs": [
				{
					"indexed": false,
					"internalType": "uint256",
					"name": "blockNumber",
					"type": "uint256"
				},
				{
					"indexed": false,
					"internalType": "uint256",
					"name": "roundNumber",
					"type": "uint256"
				}
			],
			"name": "LogNewRound",
			"type": "event"
		},
		{
			"anonymous": false,
			"inputs": [
				{
					"indexed": false,
					"internalType": "uint256[6]",
					"name": "winningNumbers",
					"type": "uint256[6]"
				}
			],
			"name": "LogNumbersDrawing",
			"type": "event"
		},
		{
			"anonymous": false,
			"inputs": [
				{
					"indexed": false,
					"internalType": "address",
					"name": "from",
					"type": "address"
				},
				{
					"indexed": false,
					"internalType": "uint256[6]",
					"name": "invalidNumbers",
					"type": "uint256[6]"
				}
			],
			"name": "LogTicketDuplicates",
			"type": "event"
		},
		{
			"anonymous": false,
			"inputs": [
				{
					"indexed": false,
					"internalType": "address",
					"name": "from",
					"type": "address"
				},
				{
					"indexed": false,
					"internalType": "uint256",
					"name": "amount",
					"type": "uint256"
				},
				{
					"indexed": false,
					"internalType": "uint256[6][]",
					"name": "numbers",
					"type": "uint256[6][]"
				}
			],
			"name": "LogTicketPurchase",
			"type": "event"
		},
		{
			"anonymous": false,
			"inputs": [
				{
					"indexed": false,
					"internalType": "address",
					"name": "to",
					"type": "address"
				},
				{
					"indexed": false,
					"internalType": "uint256",
					"name": "amount",
					"type": "uint256"
				}
			],
			"name": "LogTicketRefund",
			"type": "event"
		},
		{
			"anonymous": false,
			"inputs": [
				{
					"indexed": false,
					"internalType": "address",
					"name": "to",
					"type": "address"
				},
				{
					"indexed": false,
					"internalType": "uint256",
					"name": "prizeRank",
					"type": "uint256"
				},
				{
					"indexed": false,
					"internalType": "uint256",
					"name": "tokenId",
					"type": "uint256"
				}
			],
			"name": "LogWinner",
			"type": "event"
		},
		{
			"anonymous": false,
			"inputs": [
				{
					"indexed": false,
					"internalType": "address",
					"name": "to",
					"type": "address"
				},
				{
					"indexed": false,
					"internalType": "uint256",
					"name": "amount",
					"type": "uint256"
				}
			],
			"name": "LogWithdrawal",
			"type": "event"
		},
		{
			"anonymous": false,
			"inputs": [
				{
					"indexed": false,
					"internalType": "string",
					"name": "s",
					"type": "string"
				}
			],
			"name": "Test",
			"type": "event"
		},
		{
			"anonymous": false,
			"inputs": [
				{
					"indexed": true,
					"internalType": "address",
					"name": "from",
					"type": "address"
				},
				{
					"indexed": true,
					"internalType": "address",
					"name": "to",
					"type": "address"
				},
				{
					"indexed": true,
					"internalType": "uint256",
					"name": "tokenId",
					"type": "uint256"
				}
			],
			"name": "Transfer",
			"type": "event"
		},
		{
			"inputs": [],
			"name": "_ticketPrice",
			"outputs": [
				{
					"internalType": "uint256",
					"name": "",
					"type": "uint256"
				}
			],
			"stateMutability": "view",
			"type": "function"
		},
		{
			"inputs": [
				{
					"internalType": "uint256",
					"name": "",
					"type": "uint256"
				}
			],
			"name": "_winningNumbers",
			"outputs": [
				{
					"internalType": "uint256",
					"name": "",
					"type": "uint256"
				}
			],
			"stateMutability": "view",
			"type": "function"
		},
		{
			"inputs": [
				{
					"internalType": "address",
					"name": "to",
					"type": "address"
				},
				{
					"internalType": "uint256",
					"name": "tokenId",
					"type": "uint256"
				}
			],
			"name": "approve",
			"outputs": [],
			"stateMutability": "nonpayable",
			"type": "function"
		},
		{
			"inputs": [
				{
					"internalType": "address",
					"name": "owner",
					"type": "address"
				}
			],
			"name": "balanceOf",
			"outputs": [
				{
					"internalType": "uint256",
					"name": "",
					"type": "uint256"
				}
			],
			"stateMutability": "view",
			"type": "function"
		},
		{
			"inputs": [
				{
					"internalType": "uint256[6][]",
					"name": "_numbers",
					"type": "uint256[6][]"
				}
			],
			"name": "buy",
			"outputs": [
				{
					"internalType": "bool",
					"name": "",
					"type": "bool"
				}
			],
			"stateMutability": "payable",
			"type": "function"
		},
		{
			"inputs": [],
			"name": "closeLottery",
			"outputs": [],
			"stateMutability": "nonpayable",
			"type": "function"
		},
		{
			"inputs": [
				{
					"internalType": "uint256",
					"name": "tokenId",
					"type": "uint256"
				}
			],
			"name": "descriptionOf",
			"outputs": [
				{
					"internalType": "string",
					"name": "",
					"type": "string"
				}
			],
			"stateMutability": "view",
			"type": "function"
		},
		{
			"inputs": [],
			"name": "drawNumbers",
			"outputs": [
				{
					"internalType": "uint256[6]",
					"name": "",
					"type": "uint256[6]"
				}
			],
			"stateMutability": "nonpayable",
			"type": "function"
		},
		{
			"inputs": [
				{
					"internalType": "uint256",
					"name": "tokenId",
					"type": "uint256"
				}
			],
			"name": "getApproved",
			"outputs": [
				{
					"internalType": "address",
					"name": "",
					"type": "address"
				}
			],
			"stateMutability": "view",
			"type": "function"
		},
		{
			"inputs": [
				{
					"internalType": "uint256",
					"name": "rank",
					"type": "uint256"
				}
			],
			"name": "getAvailablePepes",
			"outputs": [
				{
					"internalType": "uint256[]",
					"name": "",
					"type": "uint256[]"
				}
			],
			"stateMutability": "view",
			"type": "function"
		},
		{
			"inputs": [],
			"name": "getBalance",
			"outputs": [
				{
					"internalType": "uint256",
					"name": "",
					"type": "uint256"
				}
			],
			"stateMutability": "view",
			"type": "function"
		},
		{
			"inputs": [
				{
					"internalType": "uint256",
					"name": "index",
					"type": "uint256"
				}
			],
			"name": "getTicket",
			"outputs": [
				{
					"components": [
						{
							"internalType": "address",
							"name": "player",
							"type": "address"
						},
						{
							"internalType": "uint256[6]",
							"name": "numbers",
							"type": "uint256[6]"
						}
					],
					"internalType": "struct Lottery.Ticket",
					"name": "",
					"type": "tuple"
				}
			],
			"stateMutability": "view",
			"type": "function"
		},
		{
			"inputs": [],
			"name": "getWinningNumbers",
			"outputs": [
				{
					"internalType": "uint256[6]",
					"name": "",
					"type": "uint256[6]"
				}
			],
			"stateMutability": "view",
			"type": "function"
		},
		{
			"inputs": [],
			"name": "givePrizes",
			"outputs": [
				{
					"internalType": "bool",
					"name": "",
					"type": "bool"
				}
			],
			"stateMutability": "nonpayable",
			"type": "function"
		},
		{
			"inputs": [
				{
					"internalType": "address",
					"name": "owner",
					"type": "address"
				},
				{
					"internalType": "address",
					"name": "operator",
					"type": "address"
				}
			],
			"name": "isApprovedForAll",
			"outputs": [
				{
					"internalType": "bool",
					"name": "",
					"type": "bool"
				}
			],
			"stateMutability": "view",
			"type": "function"
		},
		{
			"inputs": [
				{
					"internalType": "uint256",
					"name": "rank",
					"type": "uint256"
				}
			],
			"name": "isAvailable",
			"outputs": [
				{
					"internalType": "bool",
					"name": "",
					"type": "bool"
				}
			],
			"stateMutability": "view",
			"type": "function"
		},
		{
			"inputs": [
				{
					"internalType": "uint256",
					"name": "rank",
					"type": "uint256"
				}
			],
			"name": "mint",
			"outputs": [
				{
					"internalType": "bool",
					"name": "",
					"type": "bool"
				}
			],
			"stateMutability": "nonpayable",
			"type": "function"
		},
		{
			"inputs": [],
			"name": "name",
			"outputs": [
				{
					"internalType": "string",
					"name": "",
					"type": "string"
				}
			],
			"stateMutability": "view",
			"type": "function"
		},
		{
			"inputs": [
				{
					"internalType": "uint256",
					"name": "tokenId",
					"type": "uint256"
				}
			],
			"name": "ownerOf",
			"outputs": [
				{
					"internalType": "address",
					"name": "",
					"type": "address"
				}
			],
			"stateMutability": "view",
			"type": "function"
		},
		{
			"inputs": [
				{
					"internalType": "uint256",
					"name": "tokenId",
					"type": "uint256"
				}
			],
			"name": "rankOf",
			"outputs": [
				{
					"internalType": "uint256",
					"name": "",
					"type": "uint256"
				}
			],
			"stateMutability": "view",
			"type": "function"
		},
		{
			"inputs": [
				{
					"internalType": "address",
					"name": "from",
					"type": "address"
				},
				{
					"internalType": "address",
					"name": "to",
					"type": "address"
				},
				{
					"internalType": "uint256",
					"name": "tokenId",
					"type": "uint256"
				}
			],
			"name": "safeTransferFrom",
			"outputs": [],
			"stateMutability": "nonpayable",
			"type": "function"
		},
		{
			"inputs": [
				{
					"internalType": "address",
					"name": "from",
					"type": "address"
				},
				{
					"internalType": "address",
					"name": "to",
					"type": "address"
				},
				{
					"internalType": "uint256",
					"name": "tokenId",
					"type": "uint256"
				},
				{
					"internalType": "bytes",
					"name": "_data",
					"type": "bytes"
				}
			],
			"name": "safeTransferFrom",
			"outputs": [],
			"stateMutability": "nonpayable",
			"type": "function"
		},
		{
			"inputs": [
				{
					"internalType": "address",
					"name": "operator",
					"type": "address"
				},
				{
					"internalType": "bool",
					"name": "approved",
					"type": "bool"
				}
			],
			"name": "setApprovalForAll",
			"outputs": [],
			"stateMutability": "nonpayable",
			"type": "function"
		},
		{
			"inputs": [
				{
					"internalType": "uint256",
					"name": "duration",
					"type": "uint256"
				}
			],
			"name": "setDuration",
			"outputs": [],
			"stateMutability": "nonpayable",
			"type": "function"
		},
		{
			"inputs": [
				{
					"internalType": "uint256",
					"name": "price",
					"type": "uint256"
				}
			],
			"name": "setTicketprice",
			"outputs": [],
			"stateMutability": "nonpayable",
			"type": "function"
		},
		{
			"inputs": [
				{
					"internalType": "address",
					"name": "withdrawal",
					"type": "address"
				}
			],
			"name": "setWithdrawal",
			"outputs": [],
			"stateMutability": "nonpayable",
			"type": "function"
		},
		{
			"inputs": [],
			"name": "startNewRound",
			"outputs": [
				{
					"internalType": "bool",
					"name": "",
					"type": "bool"
				}
			],
			"stateMutability": "nonpayable",
			"type": "function"
		},
		{
			"inputs": [
				{
					"internalType": "bytes4",
					"name": "interfaceId",
					"type": "bytes4"
				}
			],
			"name": "supportsInterface",
			"outputs": [
				{
					"internalType": "bool",
					"name": "",
					"type": "bool"
				}
			],
			"stateMutability": "view",
			"type": "function"
		},
		{
			"inputs": [],
			"name": "symbol",
			"outputs": [
				{
					"internalType": "string",
					"name": "",
					"type": "string"
				}
			],
			"stateMutability": "view",
			"type": "function"
		},
		{
			"inputs": [
				{
					"internalType": "uint256",
					"name": "tokenId",
					"type": "uint256"
				}
			],
			"name": "tokenURI",
			"outputs": [
				{
					"internalType": "string",
					"name": "",
					"type": "string"
				}
			],
			"stateMutability": "view",
			"type": "function"
		},
		{
			"inputs": [
				{
					"internalType": "address",
					"name": "from",
					"type": "address"
				},
				{
					"internalType": "address",
					"name": "to",
					"type": "address"
				},
				{
					"internalType": "uint256",
					"name": "tokenId",
					"type": "uint256"
				}
			],
			"name": "transferFrom",
			"outputs": [],
			"stateMutability": "nonpayable",
			"type": "function"
		}
	]
}